{"abi":[{"type":"constructor","inputs":[],"stateMutability":"nonpayable"},{"type":"function","name":"UPGRADE_INTERFACE_VERSION","inputs":[],"outputs":[{"name":"","type":"string","internalType":"string"}],"stateMutability":"view"},{"type":"function","name":"aavePool","inputs":[],"outputs":[{"name":"","type":"address","internalType":"contract IPool"}],"stateMutability":"view"},{"type":"function","name":"addSupportedToken","inputs":[{"name":"tokenAddress","type":"address","internalType":"address"}],"outputs":[{"name":"success","type":"bool","internalType":"bool"}],"stateMutability":"nonpayable"},{"type":"function","name":"addressesProvider","inputs":[],"outputs":[{"name":"","type":"address","internalType":"contract IPoolAddressesProvider"}],"stateMutability":"view"},{"type":"function","name":"claimRewards","inputs":[{"name":"rewardsController","type":"address","internalType":"address"},{"name":"assets","type":"address[]","internalType":"address[]"},{"name":"to","type":"address","internalType":"address"}],"outputs":[{"name":"rewardsList","type":"address[]","internalType":"address[]"},{"name":"claimedAmounts","type":"uint256[]","internalType":"uint256[]"}],"stateMutability":"nonpayable"},{"type":"function","name":"dataProvider","inputs":[],"outputs":[{"name":"","type":"address","internalType":"contract IPoolDataProvider"}],"stateMutability":"view"},{"type":"function","name":"depositToAave","inputs":[{"name":"tokenAddress","type":"address","internalType":"address"},{"name":"amount","type":"uint256","internalType":"uint256"}],"outputs":[{"name":"sharesReceived","type":"uint256","internalType":"uint256"}],"stateMutability":"nonpayable"},{"type":"function","name":"emergencyWithdraw","inputs":[{"name":"tokenAddress","type":"address","internalType":"address"},{"name":"recipient","type":"address","internalType":"address"}],"outputs":[],"stateMutability":"nonpayable"},{"type":"function","name":"getATokenBalance","inputs":[{"name":"tokenAddress","type":"address","internalType":"address"}],"outputs":[{"name":"balance","type":"uint256","internalType":"uint256"}],"stateMutability":"view"},{"type":"function","name":"initialize","inputs":[{"name":"_tokenStorage","type":"address","internalType":"address"},{"name":"_aavePoolAddressesProvider","type":"address","internalType":"address"},{"name":"_initialOwner","type":"address","internalType":"address"}],"outputs":[],"stateMutability":"nonpayable"},{"type":"function","name":"initializeBaseTokens","inputs":[],"outputs":[],"stateMutability":"nonpayable"},{"type":"function","name":"owner","inputs":[],"outputs":[{"name":"","type":"address","internalType":"address"}],"stateMutability":"view"},{"type":"function","name":"proxiableUUID","inputs":[],"outputs":[{"name":"","type":"bytes32","internalType":"bytes32"}],"stateMutability":"view"},{"type":"function","name":"renounceOwnership","inputs":[],"outputs":[],"stateMutability":"nonpayable"},{"type":"function","name":"setManagerAuthorization","inputs":[{"name":"manager","type":"address","internalType":"address"},{"name":"authorized","type":"bool","internalType":"bool"}],"outputs":[],"stateMutability":"nonpayable"},{"type":"function","name":"tokenStorage","inputs":[],"outputs":[{"name":"","type":"address","internalType":"contract MiniSafeTokenStorageUpgradeable"}],"stateMutability":"view"},{"type":"function","name":"transferOwnership","inputs":[{"name":"newOwner","type":"address","internalType":"address"}],"outputs":[],"stateMutability":"nonpayable"},{"type":"function","name":"updateAavePool","inputs":[{"name":"newPoolAddress","type":"address","internalType":"address"}],"outputs":[],"stateMutability":"nonpayable"},{"type":"function","name":"updatePoolDataProvider","inputs":[{"name":"newPoolAddress","type":"address","internalType":"address"}],"outputs":[],"stateMutability":"nonpayable"},{"type":"function","name":"upgradeToAndCall","inputs":[{"name":"newImplementation","type":"address","internalType":"address"},{"name":"data","type":"bytes","internalType":"bytes"}],"outputs":[],"stateMutability":"payable"},{"type":"function","name":"version","inputs":[],"outputs":[{"name":"","type":"string","internalType":"string"}],"stateMutability":"pure"},{"type":"function","name":"withdrawFromAave","inputs":[{"name":"tokenAddress","type":"address","internalType":"address"},{"name":"amount","type":"uint256","internalType":"uint256"},{"name":"recipient","type":"address","internalType":"address"}],"outputs":[{"name":"amountWithdrawn","type":"uint256","internalType":"uint256"}],"stateMutability":"nonpayable"},{"type":"event","name":"AavePoolUpdated","inputs":[{"name":"newPool","type":"address","indexed":true,"internalType":"address"}],"anonymous":false},{"type":"event","name":"CircuitBreakerTriggered","inputs":[{"name":"by","type":"address","indexed":true,"internalType":"address"},{"name":"reason","type":"string","indexed":false,"internalType":"string"}],"anonymous":false},{"type":"event","name":"Deposited","inputs":[{"name":"depositor","type":"address","indexed":true,"internalType":"address"},{"name":"amount","type":"uint256","indexed":false,"internalType":"uint256"},{"name":"token","type":"address","indexed":true,"internalType":"address"},{"name":"sharesReceived","type":"uint256","indexed":false,"internalType":"uint256"}],"anonymous":false},{"type":"event","name":"DepositedToAave","inputs":[{"name":"token","type":"address","indexed":true,"internalType":"address"},{"name":"amount","type":"uint256","indexed":false,"internalType":"uint256"}],"anonymous":false},{"type":"event","name":"EmergencyWithdrawalCancelled","inputs":[{"name":"by","type":"address","indexed":true,"internalType":"address"}],"anonymous":false},{"type":"event","name":"EmergencyWithdrawalExecuted","inputs":[{"name":"by","type":"address","indexed":true,"internalType":"address"},{"name":"token","type":"address","indexed":true,"internalType":"address"},{"name":"amount","type":"uint256","indexed":false,"internalType":"uint256"}],"anonymous":false},{"type":"event","name":"EmergencyWithdrawalInitiated","inputs":[{"name":"by","type":"address","indexed":true,"internalType":"address"},{"name":"availableAt","type":"uint256","indexed":false,"internalType":"uint256"}],"anonymous":false},{"type":"event","name":"Initialized","inputs":[{"name":"version","type":"uint64","indexed":false,"internalType":"uint64"}],"anonymous":false},{"type":"event","name":"ManagerAuthorized","inputs":[{"name":"manager","type":"address","indexed":true,"internalType":"address"},{"name":"status","type":"bool","indexed":false,"internalType":"bool"}],"anonymous":false},{"type":"event","name":"OwnershipTransferred","inputs":[{"name":"previousOwner","type":"address","indexed":true,"internalType":"address"},{"name":"newOwner","type":"address","indexed":true,"internalType":"address"}],"anonymous":false},{"type":"event","name":"PoolDataProviderUpdated","inputs":[{"name":"newDataProvider","type":"address","indexed":true,"internalType":"address"}],"anonymous":false},{"type":"event","name":"TimelockBroken","inputs":[{"name":"breaker","type":"address","indexed":true,"internalType":"address"},{"name":"amount","type":"uint256","indexed":false,"internalType":"uint256"},{"name":"token","type":"address","indexed":true,"internalType":"address"}],"anonymous":false},{"type":"event","name":"TokenAdded","inputs":[{"name":"tokenAddress","type":"address","indexed":true,"internalType":"address"},{"name":"aTokenAddress","type":"address","indexed":true,"internalType":"address"}],"anonymous":false},{"type":"event","name":"TokenRemoved","inputs":[{"name":"tokenAddress","type":"address","indexed":true,"internalType":"address"}],"anonymous":false},{"type":"event","name":"TokenSupportAdded","inputs":[{"name":"tokenAddress","type":"address","indexed":true,"internalType":"address"},{"name":"aTokenAddress","type":"address","indexed":true,"internalType":"address"}],"anonymous":false},{"type":"event","name":"Upgraded","inputs":[{"name":"implementation","type":"address","indexed":true,"internalType":"address"}],"anonymous":false},{"type":"event","name":"UserBalanceUpdated","inputs":[{"name":"user","type":"address","indexed":true,"internalType":"address"},{"name":"token","type":"address","indexed":true,"internalType":"address"},{"name":"amount","type":"uint256","indexed":false,"internalType":"uint256"},{"name":"isDeposit","type":"bool","indexed":false,"internalType":"bool"}],"anonymous":false},{"type":"event","name":"Withdrawn","inputs":[{"name":"withdrawer","type":"address","indexed":true,"internalType":"address"},{"name":"amount","type":"uint256","indexed":false,"internalType":"uint256"},{"name":"token","type":"address","indexed":true,"internalType":"address"},{"name":"sharesRedeemed","type":"uint256","indexed":false,"internalType":"uint256"}],"anonymous":false},{"type":"event","name":"WithdrawnFromAave","inputs":[{"name":"token","type":"address","indexed":true,"internalType":"address"},{"name":"amount","type":"uint256","indexed":false,"internalType":"uint256"}],"anonymous":false},{"type":"error","name":"AddressEmptyCode","inputs":[{"name":"target","type":"address","internalType":"address"}]},{"type":"error","name":"ERC1967InvalidImplementation","inputs":[{"name":"implementation","type":"address","internalType":"address"}]},{"type":"error","name":"ERC1967NonPayable","inputs":[]},{"type":"error","name":"FailedCall","inputs":[]},{"type":"error","name":"InvalidInitialization","inputs":[]},{"type":"error","name":"NotInitializing","inputs":[]},{"type":"error","name":"OwnableInvalidOwner","inputs":[{"name":"owner","type":"address","internalType":"address"}]},{"type":"error","name":"OwnableUnauthorizedAccount","inputs":[{"name":"account","type":"address","internalType":"address"}]},{"type":"error","name":"SafeERC20FailedOperation","inputs":[{"name":"token","type":"address","internalType":"address"}]},{"type":"error","name":"UUPSUnauthorizedCallContext","inputs":[]},{"type":"error","name":"UUPSUnsupportedProxiableUUID","inputs":[{"name":"slot","type":"bytes32","internalType":"bytes32"}]}],"bytecode":{"object":"0x60a060405230608052348015610013575f5ffd5b5061001c610021565b6100d3565b7ff0c57e16840df040f15088dc2f81fe391c3923bec73e23a9662efc9c229c6a00805468010000000000000000900460ff16156100715760405163f92ee8a960e01b815260040160405180910390fd5b80546001600160401b03908116146100d05780546001600160401b0319166001600160401b0390811782556040519081527fc7f505b2f371ae2175ee4913f4499e1f2633a7b5936321eed1cdaeb6115181d29060200160405180910390a15b50565b608051612baf6100f95f395f8181611ac601528181611aef0152611c250152612baf5ff3fe608060405260043610610104575f3560e01c80630712f6b3146101085780634f1ef2861461013a57806352d1902d1461014f57806354a1b1161461016357806354fd4d501461018257806356e142ca146101b85780636382d9ad146101e55780636d69fcaf14610204578063715018a6146102335780638da5cb5b14610247578063a03e4bc314610268578063a99b86de14610287578063ad3cb1cc1461029b578063ad9b3af7146102cb578063b199efb5146102ea578063b334ed8614610308578063baded0b014610327578063c0c53b8b14610346578063c72c4d1014610365578063eeb149e714610384578063f2fde38b146103a3578063f71a2a0a146103c2575b5f5ffd5b348015610113575f5ffd5b506101276101223660046122d5565b6103e1565b6040519081526020015b60405180910390f35b61014d610148366004612330565b61057e565b005b34801561015a575f5ffd5b5061012761059d565b34801561016e575f5ffd5b5061014d61017d3660046122d5565b6105b9565b34801561018d575f5ffd5b50604080518082019091526005815264312e302e3160d81b60208201525b60405161013191906123d9565b3480156101c3575f5ffd5b506101d76101d236600461240e565b610630565b6040516101319291906124a2565b3480156101f0575f5ffd5b5061014d6101ff36600461252b565b6107c8565b34801561020f575f5ffd5b5061022361021e3660046122d5565b610b80565b6040519015158152602001610131565b34801561023e575f5ffd5b5061014d610e97565b348015610252575f5ffd5b5061025b610eaa565b6040516101319190612562565b348015610273575f5ffd5b5060035461025b906001600160a01b031681565b348015610292575f5ffd5b5061014d610ec4565b3480156102a6575f5ffd5b506101ab604051806040016040528060058152602001640352e302e360dc1b81525081565b3480156102d6575f5ffd5b506101276102e5366004612576565b610ed4565b3480156102f5575f5ffd5b505f5461025b906001600160a01b031681565b348015610313575f5ffd5b5060025461025b906001600160a01b031681565b348015610332575f5ffd5b5061014d6103413660046125c2565b61126a565b348015610351575f5ffd5b5061014d6103603660046125ee565b61132a565b348015610370575f5ffd5b5060015461025b906001600160a01b031681565b34801561038f575f5ffd5b5061012761039e36600461262b565b611600565b3480156103ae575f5ffd5b5061014d6103bd3660046122d5565b611a07565b3480156103cd575f5ffd5b5061014d6103dc3660046122d5565b611a44565b5f805460405163c187645360e01b81526001600160a01b039091169063c187645390610411908590600401612562565b602060405180830381865afa15801561042c573d5f5f3e3d5ffd5b505050506040513d601f19601f820116820180604052508101906104509190612655565b6104755760405162461bcd60e51b815260040161046c90612670565b60405180910390fd5b5f805460405163083ee56f60e01b81526001600160a01b039091169063083ee56f906104a5908690600401612562565b602060405180830381865afa1580156104c0573d5f5f3e3d5ffd5b505050506040513d601f19601f820116820180604052508101906104e4919061269d565b90506001600160a01b03811661050c5760405162461bcd60e51b815260040161046c906126b8565b6040516370a0823160e01b81526001600160a01b038216906370a0823190610538903090600401612562565b602060405180830381865afa158015610553573d5f5f3e3d5ffd5b505050506040513d601f19601f8201168201806040525081019061057791906126ea565b9392505050565b610586611abb565b61058f82611b5f565b6105998282611b67565b5050565b5f6105a6611c1a565b505f516020612b5a5f395f51905f525b90565b6105c1611c63565b6001600160a01b0381166105e75760405162461bcd60e51b815260040161046c90612701565b600280546001600160a01b0319166001600160a01b0383169081179091556040517f571d68d2e6247b604609ccb22c507d1f2759bd29fed56b588e8f4e26bfd4bae9905f90a250565b606080338061063d610eaa565b6001600160a01b031614806106bb57505f54604051630a3cb21b60e01b81526001600160a01b0390911690630a3cb21b9061067c908490600401612562565b602060405180830381865afa158015610697573d5f5f3e3d5ffd5b505050506040513d601f19601f820116820180604052508101906106bb9190612655565b6106d75760405162461bcd60e51b815260040161046c9061272f565b6001600160a01b0387166107225760405162461bcd60e51b815260206004820152601260248201527124b73b30b634b21031b7b73a3937b63632b960711b604482015260640161046c565b6001600160a01b0384166107485760405162461bcd60e51b815260040161046c90612761565b60405163bb492bf560e01b81526001600160a01b0388169063bb492bf5906107789089908990899060040161278c565b5f604051808303815f875af1158015610793573d5f5f3e3d5ffd5b505050506040513d5f823e601f3d908101601f191682016040526107ba9190810190612881565b925092505094509492505050565b6107d0611c63565b6001600160a01b0381166107f65760405162461bcd60e51b815260040161046c90612761565b5f5460405163c187645360e01b81526001600160a01b039091169063c187645390610825908590600401612562565b602060405180830381865afa158015610840573d5f5f3e3d5ffd5b505050506040513d601f19601f820116820180604052508101906108649190612655565b6108f6576040516370a0823160e01b81525f906001600160a01b038416906370a0823190610896903090600401612562565b602060405180830381865afa1580156108b1573d5f5f3e3d5ffd5b505050506040513d601f19601f820116820180604052508101906108d591906126ea565b905080156108f1576108f16001600160a01b0384168383611c95565b505050565b5f805460405163083ee56f60e01b81526001600160a01b039091169063083ee56f90610926908690600401612562565b602060405180830381865afa158015610941573d5f5f3e3d5ffd5b505050506040513d601f19601f82011682018060405250810190610965919061269d565b90506001600160a01b03811661098d5760405162461bcd60e51b815260040161046c906126b8565b6040516370a0823160e01b81525f906001600160a01b038316906370a08231906109bb903090600401612562565b602060405180830381865afa1580156109d6573d5f5f3e3d5ffd5b505050506040513d601f19601f820116820180604052508101906109fa91906126ea565b90508015610af057600354604051631a4ca37b60e21b81526001600160a01b03909116906369328dec90610a3690879085908890600401612952565b6020604051808303815f875af1925050508015610a70575060408051601f3d908101601f19168201909252610a6d918101906126ea565b60015b610acf57610a7c612975565b806308c379a003610ab55750610a9061298d565b80610a9b5750610ab7565b8060405162461bcd60e51b815260040161046c91906123d9565b505b60405162461bcd60e51b815260040161046c90612a0f565b5f8111610aee5760405162461bcd60e51b815260040161046c90612a0f565b505b6040516370a0823160e01b81525f906001600160a01b038616906370a0823190610b1e903090600401612562565b602060405180830381865afa158015610b39573d5f5f3e3d5ffd5b505050506040513d601f19601f82011682018060405250810190610b5d91906126ea565b90508015610b7957610b796001600160a01b0386168583611c95565b5050505050565b5f3380610b8b610eaa565b6001600160a01b03161480610c0957505f54604051630a3cb21b60e01b81526001600160a01b0390911690630a3cb21b90610bca908490600401612562565b602060405180830381865afa158015610be5573d5f5f3e3d5ffd5b505050506040513d601f19601f82011682018060405250810190610c099190612655565b610c255760405162461bcd60e51b815260040161046c9061272f565b6001600160a01b038316610c7b5760405162461bcd60e51b815260206004820181905260248201527f43616e6e6f7420616464207a65726f206164647265737320617320746f6b656e604482015260640161046c565b6002546040516334924edb60e21b81526001600160a01b039091169063d2493b6c90610cab908690600401612562565b606060405180830381865afa925050508015610ce4575060408051601f3d908101601f19168201909252610ce191810190612a44565b60015b610d6557610cf0612975565b806308c379a003610d0f5750610d0461298d565b80610a9b5750610d11565b505b60405162461bcd60e51b8152602060048201526024808201527f4572726f7220636865636b696e6720746f6b656e20737570706f727420696e206044820152634161766560e01b606482015260840161046c565b6001600160a01b038316610db95760405162461bcd60e51b815260206004820152601b60248201527a546f6b656e206e6f7420737570706f72746564206279204161766560281b604482015260640161046c565b826001600160a01b0316866001600160a01b03167f8e9b29f722eea1874dbce8bfe47b9cceb8e668562d7866149866666cfe1ffb9c60405160405180910390a35f805460405163615bdf0b60e11b81526001600160a01b039091169063c2b7be1690610e2b908a908890600401612a83565b6020604051808303815f875af1158015610e47573d5f5f3e3d5ffd5b505050506040513d601f19601f82011682018060405250810190610e6b9190612655565b905080610e8a5760405162461bcd60e51b815260040161046c90612a9d565b5060019695505050505050565b610e9f611c63565b610ea85f611ced565b565b5f5f610eb4611d47565b546001600160a01b031692915050565b610ecc611c63565b610ea8611d6b565b5f3380610edf610eaa565b6001600160a01b03161480610f5d57505f54604051630a3cb21b60e01b81526001600160a01b0390911690630a3cb21b90610f1e908490600401612562565b602060405180830381865afa158015610f39573d5f5f3e3d5ffd5b505050506040513d601f19601f82011682018060405250810190610f5d9190612655565b610f795760405162461bcd60e51b815260040161046c9061272f565b5f5460405163c187645360e01b81526001600160a01b039091169063c187645390610fa8908890600401612562565b602060405180830381865afa158015610fc3573d5f5f3e3d5ffd5b505050506040513d601f19601f82011682018060405250810190610fe79190612655565b6110035760405162461bcd60e51b815260040161046c90612670565b5f84116110225760405162461bcd60e51b815260040161046c90612ad4565b6001600160a01b0383166110485760405162461bcd60e51b815260040161046c90612761565b5f805460405163083ee56f60e01b81526001600160a01b039091169063083ee56f90611078908990600401612562565b602060405180830381865afa158015611093573d5f5f3e3d5ffd5b505050506040513d601f19601f820116820180604052508101906110b7919061269d565b90506001600160a01b0381166110df5760405162461bcd60e51b815260040161046c906126b8565b856001600160a01b03167fdf67f60de178af7df2d3670e7e7f4d97b8933cc7636022bdc016c2ecf4e0e97d8660405161111a91815260200190565b60405180910390a2600354604051631a4ca37b60e21b81526001600160a01b03909116906369328dec9061115690899089903090600401612952565b6020604051808303815f875af1925050508015611190575060408051601f3d908101601f1916820190925261118d918101906126ea565b60015b6111fc5761119c612975565b806308c379a0036111bb57506111b061298d565b80610a9b57506111bd565b505b60405162461bcd60e51b815260206004820152601460248201527310585d99481dda5d1a191c985dc819985a5b195960621b604482015260640161046c565b92505f831161124d5760405162461bcd60e51b815260206004820152601f60248201527f5769746864726177616c2072657475726e6564207a65726f20616d6f756e7400604482015260640161046c565b6112616001600160a01b0387168585611c95565b50509392505050565b611272611c63565b6001600160a01b0382166112c85760405162461bcd60e51b815260206004820152601d60248201527f43616e6e6f7420617574686f72697a65207a65726f2061646472657373000000604482015260640161046c565b60405162461bcd60e51b815260206004820152603160248201527f55736520546f6b656e53746f726167652e7365744d616e61676572417574686f60448201527072697a6174696f6e206469726563746c7960781b606482015260840161046c565b5f611333611f40565b805490915060ff600160401b82041615906001600160401b03165f811580156113595750825b90505f826001600160401b031660011480156113745750303b155b905081158015611382575080155b156113a05760405163f92ee8a960e01b815260040160405180910390fd5b84546001600160401b031916600117855583156113c957845460ff60401b1916600160401b1785555b6113d286611f6a565b6113da611f7b565b6001600160a01b0388166114305760405162461bcd60e51b815260206004820152601d60248201527f496e76616c696420746f6b656e2073746f726167652061646472657373000000604482015260640161046c565b6001600160a01b0387166114865760405162461bcd60e51b815260206004820152601d60248201527f496e76616c696420416176652070726f76696465722061646472657373000000604482015260640161046c565b5f80546001600160a01b03808b166001600160a01b03199283161790925560018054928a1692909116821790556040805163026b1d5f60e01b8152905163026b1d5f916004808201926020929091908290030181865afa1580156114ec573d5f5f3e3d5ffd5b505050506040513d601f19601f82011682018060405250810190611510919061269d565b600380546001600160a01b0319166001600160a01b039283161790556001546040805163e860accb60e01b81529051919092169163e860accb9160048083019260209291908290030181865afa15801561156c573d5f5f3e3d5ffd5b505050506040513d601f19601f82011682018060405250810190611590919061269d565b600280546001600160a01b0319166001600160a01b039290921691909117905583156115f657845460ff60401b19168555604051600181527fc7f505b2f371ae2175ee4913f4499e1f2633a7b5936321eed1cdaeb6115181d29060200160405180910390a15b5050505050505050565b5f338061160b610eaa565b6001600160a01b0316148061168957505f54604051630a3cb21b60e01b81526001600160a01b0390911690630a3cb21b9061164a908490600401612562565b602060405180830381865afa158015611665573d5f5f3e3d5ffd5b505050506040513d601f19601f820116820180604052508101906116899190612655565b6116a55760405162461bcd60e51b815260040161046c9061272f565b5f5460405163c187645360e01b81526001600160a01b039091169063c1876453906116d4908790600401612562565b602060405180830381865afa1580156116ef573d5f5f3e3d5ffd5b505050506040513d601f19601f820116820180604052508101906117139190612655565b61172f5760405162461bcd60e51b815260040161046c90612670565b5f831161174e5760405162461bcd60e51b815260040161046c90612ad4565b5f805460405163083ee56f60e01b81526001600160a01b039091169063083ee56f9061177e908890600401612562565b602060405180830381865afa158015611799573d5f5f3e3d5ffd5b505050506040513d601f19601f820116820180604052508101906117bd919061269d565b90506001600160a01b0381166117e55760405162461bcd60e51b815260040161046c906126b8565b6040516370a0823160e01b81525f906001600160a01b038316906370a0823190611813903090600401612562565b602060405180830381865afa15801561182e573d5f5f3e3d5ffd5b505050506040513d601f19601f8201168201806040525081019061185291906126ea565b60035490915061186d9087906001600160a01b031687611f83565b856001600160a01b03167ff4988931ffb70f497b7fa193e5239b7bb63ab6b1b2b4eef0899d191ac49ad0fb866040516118a891815260200190565b60405180910390a260035460405163617ba03760e01b81526001600160a01b038881166004830152602482018890523060448301525f60648301529091169063617ba037906084015f604051808303815f87803b158015611907575f5ffd5b505af1925050508015611918575060015b61198357611924612975565b806308c379a003611943575061193861298d565b80610a9b5750611945565b505b60405162461bcd60e51b815260206004820152601360248201527210585d994819195c1bdcda5d0819985a5b1959606a1b604482015260640161046c565b6040516370a0823160e01b81525f906001600160a01b038416906370a08231906119b1903090600401612562565b602060405180830381865afa1580156119cc573d5f5f3e3d5ffd5b505050506040513d601f19601f820116820180604052508101906119f091906126ea565b90506119fc8282612b0b565b979650505050505050565b611a0f611c63565b6001600160a01b038116611a38575f604051631e4fbdf760e01b815260040161046c9190612562565b611a4181611ced565b50565b611a4c611c63565b6001600160a01b038116611a725760405162461bcd60e51b815260040161046c90612701565b600380546001600160a01b0319166001600160a01b0383169081179091556040517f7f1936275a8a68e642cd125b879c72a42f46f2de670c68650617a83dff982d03905f90a250565b306001600160a01b037f0000000000000000000000000000000000000000000000000000000000000000161480611b4157507f00000000000000000000000000000000000000000000000000000000000000006001600160a01b0316611b355f516020612b5a5f395f51905f52546001600160a01b031690565b6001600160a01b031614155b15610ea85760405163703e46dd60e11b815260040160405180910390fd5b611a41611c63565b816001600160a01b03166352d1902d6040518163ffffffff1660e01b8152600401602060405180830381865afa925050508015611bc1575060408051601f3d908101601f19168201909252611bbe918101906126ea565b60015b611be05781604051634c9c8ce360e01b815260040161046c9190612562565b5f516020612b5a5f395f51905f528114611c1057604051632a87526960e21b81526004810182905260240161046c565b6108f18383612013565b306001600160a01b037f00000000000000000000000000000000000000000000000000000000000000001614610ea85760405163703e46dd60e11b815260040160405180910390fd5b33611c6c610eaa565b6001600160a01b031614610ea8573360405163118cdaa760e01b815260040161046c9190612562565b6108f183846001600160a01b031663a9059cbb8585604051602401611cbb929190612b2a565b604051602081830303815290604052915060e01b6020820180516001600160e01b038381831617835250505050612068565b5f611cf6611d47565b80546001600160a01b038481166001600160a01b031983168117845560405193945091169182907f8be0079c531659141344cd1fd0a4f28419497f9722a3daafe3b4186f6b6457e0905f90a3505050565b7f9016d09d72d40fdae2fd8ceac6b6234c7706214fd39c1cd1e609a0528c19930090565b6002545f546040805163cd2b3f0360e01b815290516001600160a01b039384169363d2493b6c93169163cd2b3f039160048083019260209291908290030181865afa158015611dbc573d5f5f3e3d5ffd5b505050506040513d601f19601f82011682018060405250810190611de0919061269d565b6040518263ffffffff1660e01b8152600401611dfc9190612562565b606060405180830381865afa925050508015611e35575060408051601f3d908101601f19168201909252611e3291810190612a44565b60015b15610ea8576001600160a01b038316156108f1575f80546040805163cd2b3f0360e01b815290516001600160a01b039092169163c2b7be1691839163cd2b3f03916004808201926020929091908290030181865afa158015611e99573d5f5f3e3d5ffd5b505050506040513d601f19601f82011682018060405250810190611ebd919061269d565b866040518363ffffffff1660e01b8152600401611edb929190612a83565b6020604051808303815f875af1158015611ef7573d5f5f3e3d5ffd5b505050506040513d601f19601f82011682018060405250810190611f1b9190612655565b905080611f3a5760405162461bcd60e51b815260040161046c90612a9d565b50505050565b5f807ff0c57e16840df040f15088dc2f81fe391c3923bec73e23a9662efc9c229c6a005b92915050565b611f726120cb565b611a41816120f0565b610ea86120cb565b5f836001600160a01b031663095ea7b38484604051602401611fa6929190612b2a565b604051602081830303815290604052915060e01b6020820180516001600160e01b0383818316178352505050509050611fdf84826120f8565b611f3a5761200984856001600160a01b031663095ea7b3865f604051602401611cbb929190612b2a565b611f3a8482612068565b61201c82612141565b6040516001600160a01b038316907fbc7cd75a20ee27fd9adebab32041f755214dbc6bffa90cc0225b39da2e5c2d3b905f90a2805115612060576108f1828261219b565b61059961220d565b5f5f60205f8451602086015f885af180612087576040513d5f823e3d81fd5b50505f513d9150811561209e5780600114156120ab565b6001600160a01b0384163b155b15611f3a5783604051635274afe760e01b815260040161046c9190612562565b6120d361222c565b610ea857604051631afcd79f60e31b815260040160405180910390fd5b611a0f6120cb565b5f5f5f5f60205f8651602088015f8a5af192503d91505f519050828015612137575081156121295780600114612137565b5f866001600160a01b03163b115b9695505050505050565b806001600160a01b03163b5f0361216d5780604051634c9c8ce360e01b815260040161046c9190612562565b5f516020612b5a5f395f51905f5280546001600160a01b0319166001600160a01b0392909216919091179055565b60605f5f846001600160a01b0316846040516121b79190612b43565b5f60405180830381855af49150503d805f81146121ef576040519150601f19603f3d011682016040523d82523d5f602084013e6121f4565b606091505b5091509150612204858383612245565b95945050505050565b3415610ea85760405163b398979f60e01b815260040160405180910390fd5b5f612235611f40565b54600160401b900460ff16919050565b60608261225a5761225582612298565b610577565b815115801561227157506001600160a01b0384163b155b156122915783604051639996b31560e01b815260040161046c9190612562565b5092915050565b8051156122a85780518082602001fd5b60405163d6bda27560e01b815260040160405180910390fd5b6001600160a01b0381168114611a41575f5ffd5b5f602082840312156122e5575f5ffd5b8135610577816122c1565b634e487b7160e01b5f52604160045260245ffd5b601f8201601f191681016001600160401b0381118282101715612329576123296122f0565b6040525050565b5f5f60408385031215612341575f5ffd5b823561234c816122c1565b915060208301356001600160401b03811115612366575f5ffd5b8301601f81018513612376575f5ffd5b80356001600160401b0381111561238f5761238f6122f0565b6040516123a6601f8301601f191660200182612304565b8181528660208385010111156123ba575f5ffd5b816020840160208301375f602083830101528093505050509250929050565b602081525f82518060208401528060208501604085015e5f604082850101526040601f19601f83011684010191505092915050565b5f5f5f5f60608587031215612421575f5ffd5b843561242c816122c1565b935060208501356001600160401b03811115612446575f5ffd5b8501601f81018713612456575f5ffd5b80356001600160401b0381111561246b575f5ffd5b8760208260051b840101111561247f575f5ffd5b602091909101935091506040850135612497816122c1565b939692955090935050565b604080825283519082018190525f9060208501906060840190835b818110156124e45783516001600160a01b03168352602093840193909201916001016124bd565b5050838103602080860191909152855180835291810192508501905f5b8181101561251f578251845260209384019390920191600101612501565b50919695505050505050565b5f5f6040838503121561253c575f5ffd5b8235612547816122c1565b91506020830135612557816122c1565b809150509250929050565b6001600160a01b0391909116815260200190565b5f5f5f60608486031215612588575f5ffd5b8335612593816122c1565b92506020840135915060408401356125aa816122c1565b809150509250925092565b8015158114611a41575f5ffd5b5f5f604083850312156125d3575f5ffd5b82356125de816122c1565b91506020830135612557816125b5565b5f5f5f60608486031215612600575f5ffd5b833561260b816122c1565b9250602084013561261b816122c1565b915060408401356125aa816122c1565b5f5f6040838503121561263c575f5ffd5b8235612647816122c1565b946020939093013593505050565b5f60208284031215612665575f5ffd5b8151610577816125b5565b602080825260139082015272151bdad95b881b9bdd081cdd5c1c1bdc9d1959606a1b604082015260600190565b5f602082840312156126ad575f5ffd5b8151610577816122c1565b60208082526018908201527718551bdad95b881859191c995cdcc81b9bdd08199bdd5b9960421b604082015260600190565b5f602082840312156126fa575f5ffd5b5051919050565b602080825260149082015273496e76616c696420706f6f6c206164647265737360601b604082015260600190565b60208082526018908201527710d85b1b195c881a5cc81b9bdd08185d5d1a1bdc9a5e995960421b604082015260600190565b602080825260119082015270125b9d985b1a59081c9958da5c1a595b9d607a1b604082015260600190565b604080825281018390525f8460608301825b868110156127ce5782356127b1816122c1565b6001600160a01b031682526020928301929091019060010161279e565b506001600160a01b03949094166020939093019290925250909392505050565b5f6001600160401b03821115612806576128066122f0565b5060051b60200190565b5f82601f83011261281f575f5ffd5b815161282a816127ee565b6040516128378282612304565b80915082815260208101915060208360051b86010192508583111561285a575f5ffd5b602085015b8381101561287757805183526020928301920161285f565b5095945050505050565b5f5f60408385031215612892575f5ffd5b82516001600160401b038111156128a7575f5ffd5b8301601f810185136128b7575f5ffd5b80516128c2816127ee565b6040516128cf8282612304565b80915082815260208101915060208360051b8501019250878311156128f2575f5ffd5b6020840193505b8284101561291d57835161290c816122c1565b8252602093840193909101906128f9565b6020870151909550925050506001600160401b0381111561293c575f5ffd5b61294885828601612810565b9150509250929050565b6001600160a01b0393841681526020810192909252909116604082015260600190565b5f60033d11156105b65760045f5f3e505f5160e01c90565b5f60443d101561299a5790565b6040513d600319016004823e80516001600160401b0381113d602483011117156129c357505090565b81810180516001600160401b038111156129de575050505090565b3d84016003190182820160200111156129f8575050505090565b612a0760208285010185612304565b509392505050565b6020808252601b908201527a115b595c99d95b98de481dda5d1a191c985dd85b0819985a5b1959602a1b604082015260600190565b5f5f5f60608486031215612a56575f5ffd5b8351612a61816122c1565b6020850151909350612a72816122c1565b60408501519092506125aa816122c1565b6001600160a01b0392831681529116602082015260400190565b6020808252601d908201527f4661696c656420746f2061646420737570706f7274656420746f6b656e000000604082015260600190565b6020808252601d908201527f416d6f756e74206d7573742062652067726561746572207468616e2030000000604082015260600190565b81810381811115611f6457634e487b7160e01b5f52601160045260245ffd5b6001600160a01b03929092168252602082015260400190565b5f82518060208501845e5f92019182525091905056fe360894a13ba1a3210667c828492db98dca3e2076cc3735a920a3ca505d382bbca2646970667358221220baa248641a93f9d3ece1e2c1af3eabcbd87c463194d1c14c5f81451ffa2cab5d64736f6c634300081e0033","linkReferences":{}},"methodIdentifiers":{"UPGRADE_INTERFACE_VERSION()":"ad3cb1cc","aavePool()":"a03e4bc3","addSupportedToken(address)":"6d69fcaf","addressesProvider()":"c72c4d10","claimRewards(address,address[],address)":"56e142ca","dataProvider()":"b334ed86","depositToAave(address,uint256)":"eeb149e7","emergencyWithdraw(address,address)":"6382d9ad","getATokenBalance(address)":"0712f6b3","initialize(address,address,address)":"c0c53b8b","initializeBaseTokens()":"a99b86de","owner()":"8da5cb5b","proxiableUUID()":"52d1902d","renounceOwnership()":"715018a6","setManagerAuthorization(address,bool)":"baded0b0","tokenStorage()":"b199efb5","transferOwnership(address)":"f2fde38b","updateAavePool(address)":"f71a2a0a","updatePoolDataProvider(address)":"54a1b116","upgradeToAndCall(address,bytes)":"4f1ef286","version()":"54fd4d50","withdrawFromAave(address,uint256,address)":"ad9b3af7"},"id":76}