{"abi":[{"type":"constructor","inputs":[],"stateMutability":"nonpayable"},{"type":"function","name":"CYCLE_DURATION","inputs":[],"outputs":[{"name":"","type":"uint256","internalType":"uint256"}],"stateMutability":"view"},{"type":"function","name":"EMERGENCY_TIMELOCK","inputs":[],"outputs":[{"name":"","type":"uint256","internalType":"uint256"}],"stateMutability":"view"},{"type":"function","name":"MAX_MEMBERS","inputs":[],"outputs":[{"name":"","type":"uint256","internalType":"uint256"}],"stateMutability":"view"},{"type":"function","name":"MIN_CONTRIBUTION","inputs":[],"outputs":[{"name":"","type":"uint256","internalType":"uint256"}],"stateMutability":"view"},{"type":"function","name":"MIN_DEPOSIT","inputs":[],"outputs":[{"name":"","type":"uint256","internalType":"uint256"}],"stateMutability":"view"},{"type":"function","name":"REWARD_PRECISION","inputs":[],"outputs":[{"name":"","type":"uint256","internalType":"uint256"}],"stateMutability":"view"},{"type":"function","name":"UPGRADE_INTERFACE_VERSION","inputs":[],"outputs":[{"name":"","type":"string","internalType":"string"}],"stateMutability":"view"},{"type":"function","name":"aaveIntegration","inputs":[],"outputs":[{"name":"","type":"address","internalType":"contract MiniSafeAaveIntegrationUpgradeable"}],"stateMutability":"view"},{"type":"function","name":"accRewardPerShare","inputs":[{"name":"","type":"address","internalType":"address"},{"name":"","type":"address","internalType":"address"}],"outputs":[{"name":"","type":"uint256","internalType":"uint256"}],"stateMutability":"view"},{"type":"function","name":"activateThriftGroup","inputs":[{"name":"groupId","type":"uint256","internalType":"uint256"}],"outputs":[],"stateMutability":"nonpayable"},{"type":"function","name":"addMemberToPrivateGroup","inputs":[{"name":"groupId","type":"uint256","internalType":"uint256"},{"name":"member","type":"address","internalType":"address"}],"outputs":[],"stateMutability":"nonpayable"},{"type":"function","name":"addRewardToken","inputs":[{"name":"asset","type":"address","internalType":"address"},{"name":"rewardToken","type":"address","internalType":"address"}],"outputs":[],"stateMutability":"nonpayable"},{"type":"function","name":"addSupportedToken","inputs":[{"name":"tokenAddress","type":"address","internalType":"address"}],"outputs":[{"name":"","type":"bool","internalType":"bool"}],"stateMutability":"nonpayable"},{"type":"function","name":"allMembersContributed","inputs":[{"name":"groupId","type":"uint256","internalType":"uint256"}],"outputs":[{"name":"","type":"bool","internalType":"bool"}],"stateMutability":"view"},{"type":"function","name":"allowedThriftTokens","inputs":[{"name":"","type":"address","internalType":"address"}],"outputs":[{"name":"","type":"bool","internalType":"bool"}],"stateMutability":"view"},{"type":"function","name":"breakTimelock","inputs":[{"name":"tokenAddress","type":"address","internalType":"address"}],"outputs":[],"stateMutability":"nonpayable"},{"type":"function","name":"canWithdraw","inputs":[],"outputs":[{"name":"","type":"bool","internalType":"bool"}],"stateMutability":"view"},{"type":"function","name":"claimMyRewards","inputs":[{"name":"assets","type":"address[]","internalType":"address[]"}],"outputs":[],"stateMutability":"nonpayable"},{"type":"function","name":"convertToShares","inputs":[{"name":"token","type":"address","internalType":"address"},{"name":"assets","type":"uint256","internalType":"uint256"}],"outputs":[{"name":"","type":"uint256","internalType":"uint256"}],"stateMutability":"view"},{"type":"function","name":"coverDefault","inputs":[{"name":"groupId","type":"uint256","internalType":"uint256"},{"name":"defaulter","type":"address","internalType":"address"}],"outputs":[],"stateMutability":"nonpayable"},{"type":"function","name":"createThriftGroup","inputs":[{"name":"contributionAmount","type":"uint256","internalType":"uint256"},{"name":"startDate","type":"uint256","internalType":"uint256"},{"name":"isPublic","type":"bool","internalType":"bool"},{"name":"tokenAddress","type":"address","internalType":"address"}],"outputs":[{"name":"","type":"uint256","internalType":"uint256"}],"stateMutability":"nonpayable"},{"type":"function","name":"cycleContributionTime","inputs":[{"name":"","type":"uint256","internalType":"uint256"},{"name":"","type":"address","internalType":"address"}],"outputs":[{"name":"","type":"uint256","internalType":"uint256"}],"stateMutability":"view"},{"type":"function","name":"deposit","inputs":[{"name":"tokenAddress","type":"address","internalType":"address"},{"name":"amount","type":"uint256","internalType":"uint256"}],"outputs":[],"stateMutability":"nonpayable"},{"type":"function","name":"distributePayout","inputs":[{"name":"groupId","type":"uint256","internalType":"uint256"}],"outputs":[],"stateMutability":"nonpayable"},{"type":"function","name":"emergencyWithdraw","inputs":[{"name":"groupId","type":"uint256","internalType":"uint256"}],"outputs":[],"stateMutability":"nonpayable"},{"type":"function","name":"emergencyWithdrawalAvailableAt","inputs":[],"outputs":[{"name":"","type":"uint256","internalType":"uint256"}],"stateMutability":"view"},{"type":"function","name":"executeEmergencyWithdrawal","inputs":[{"name":"tokenAddress","type":"address","internalType":"address"}],"outputs":[],"stateMutability":"nonpayable"},{"type":"function","name":"getBalance","inputs":[{"name":"account","type":"address","internalType":"address"},{"name":"tokenAddress","type":"address","internalType":"address"}],"outputs":[{"name":"","type":"uint256","internalType":"uint256"}],"stateMutability":"view"},{"type":"function","name":"getCurrentRecipient","inputs":[{"name":"groupId","type":"uint256","internalType":"uint256"}],"outputs":[{"name":"","type":"address","internalType":"address"}],"stateMutability":"view"},{"type":"function","name":"getDisposableBalance","inputs":[{"name":"user","type":"address","internalType":"address"},{"name":"token","type":"address","internalType":"address"}],"outputs":[{"name":"","type":"uint256","internalType":"uint256"}],"stateMutability":"view"},{"type":"function","name":"getGroupInfo","inputs":[{"name":"groupId","type":"uint256","internalType":"uint256"}],"outputs":[{"name":"contributionAmount","type":"uint256","internalType":"uint256"},{"name":"startDate","type":"uint256","internalType":"uint256"},{"name":"nextPayoutDate","type":"uint256","internalType":"uint256"},{"name":"currentCycle","type":"uint256","internalType":"uint256"},{"name":"currentRound","type":"uint256","internalType":"uint256"},{"name":"memberCount","type":"uint256","internalType":"uint256"},{"name":"isActive","type":"bool","internalType":"bool"},{"name":"isPublic","type":"bool","internalType":"bool"},{"name":"admin","type":"address","internalType":"address"}],"stateMutability":"view"},{"type":"function","name":"getGroupMembers","inputs":[{"name":"groupId","type":"uint256","internalType":"uint256"}],"outputs":[{"name":"","type":"address[]","internalType":"address[]"}],"stateMutability":"view"},{"type":"function","name":"getGroupPayouts","inputs":[{"name":"groupId","type":"uint256","internalType":"uint256"}],"outputs":[{"name":"","type":"tuple[]","internalType":"struct MiniSafeAaveUpgradeable.Payout[]","components":[{"name":"payoutId","type":"uint256","internalType":"uint256"},{"name":"groupId","type":"uint256","internalType":"uint256"},{"name":"recipient","type":"address","internalType":"address"},{"name":"amount","type":"uint256","internalType":"uint256"},{"name":"timestamp","type":"uint256","internalType":"uint256"},{"name":"cycle","type":"uint256","internalType":"uint256"}]}],"stateMutability":"view"},{"type":"function","name":"getMemberStatus","inputs":[{"name":"groupId","type":"uint256","internalType":"uint256"},{"name":"member","type":"address","internalType":"address"}],"outputs":[{"name":"hasPaid","type":"bool","internalType":"bool"},{"name":"totalContributed","type":"uint256","internalType":"uint256"}],"stateMutability":"view"},{"type":"function","name":"getPayoutOrder","inputs":[{"name":"groupId","type":"uint256","internalType":"uint256"}],"outputs":[{"name":"","type":"address[]","internalType":"address[]"}],"stateMutability":"view"},{"type":"function","name":"getSupportedTokens","inputs":[],"outputs":[{"name":"","type":"address[]","internalType":"address[]"}],"stateMutability":"view"},{"type":"function","name":"getSupportedTokensWithPagination","inputs":[{"name":"startIndex","type":"uint256","internalType":"uint256"},{"name":"count","type":"uint256","internalType":"uint256"}],"outputs":[{"name":"","type":"address[]","internalType":"address[]"}],"stateMutability":"view"},{"type":"function","name":"getTotalShares","inputs":[{"name":"tokenAddress","type":"address","internalType":"address"}],"outputs":[{"name":"","type":"uint256","internalType":"uint256"}],"stateMutability":"view"},{"type":"function","name":"getUserBalance","inputs":[{"name":"user","type":"address","internalType":"address"},{"name":"tokenAddress","type":"address","internalType":"address"}],"outputs":[{"name":"","type":"uint256","internalType":"uint256"}],"stateMutability":"view"},{"type":"function","name":"getUserDepositTime","inputs":[{"name":"user","type":"address","internalType":"address"},{"name":"tokenAddress","type":"address","internalType":"address"}],"outputs":[{"name":"","type":"uint256","internalType":"uint256"}],"stateMutability":"view"},{"type":"function","name":"getUserDepositTime_Legacy","inputs":[{"name":"user","type":"address","internalType":"address"}],"outputs":[{"name":"","type":"uint256","internalType":"uint256"}],"stateMutability":"view"},{"type":"function","name":"getUserTotalContributed","inputs":[{"name":"user","type":"address","internalType":"address"},{"name":"","type":"address","internalType":"address"}],"outputs":[{"name":"","type":"uint256","internalType":"uint256"}],"stateMutability":"view"},{"type":"function","name":"initialize","inputs":[{"name":"_tokenStorage","type":"address","internalType":"address"},{"name":"_aaveIntegration","type":"address","internalType":"address"},{"name":"_initialOwner","type":"address","internalType":"address"}],"outputs":[],"stateMutability":"nonpayable"},{"type":"function","name":"isGroupMember","inputs":[{"name":"groupId","type":"uint256","internalType":"uint256"},{"name":"member","type":"address","internalType":"address"}],"outputs":[{"name":"","type":"bool","internalType":"bool"}],"stateMutability":"view"},{"type":"function","name":"isValidToken","inputs":[{"name":"tokenAddress","type":"address","internalType":"address"}],"outputs":[{"name":"","type":"bool","internalType":"bool"}],"stateMutability":"view"},{"type":"function","name":"joinPublicGroup","inputs":[{"name":"groupId","type":"uint256","internalType":"uint256"}],"outputs":[],"stateMutability":"nonpayable"},{"type":"function","name":"lastUserWithdrawalTimestamp","inputs":[{"name":"","type":"address","internalType":"address"}],"outputs":[{"name":"","type":"uint256","internalType":"uint256"}],"stateMutability":"view"},{"type":"function","name":"leaveGroup","inputs":[{"name":"groupId","type":"uint256","internalType":"uint256"}],"outputs":[],"stateMutability":"nonpayable"},{"type":"function","name":"makeContribution","inputs":[{"name":"groupId","type":"uint256","internalType":"uint256"}],"outputs":[],"stateMutability":"nonpayable"},{"type":"function","name":"makeContribution","inputs":[{"name":"groupId","type":"uint256","internalType":"uint256"},{"name":"tokenAddress","type":"address","internalType":"address"},{"name":"amount","type":"uint256","internalType":"uint256"}],"outputs":[],"stateMutability":"nonpayable"},{"type":"function","name":"owner","inputs":[],"outputs":[{"name":"","type":"address","internalType":"address"}],"stateMutability":"view"},{"type":"function","name":"pause","inputs":[],"outputs":[],"stateMutability":"nonpayable"},{"type":"function","name":"paused","inputs":[],"outputs":[{"name":"","type":"bool","internalType":"bool"}],"stateMutability":"view"},{"type":"function","name":"payouts","inputs":[{"name":"","type":"uint256","internalType":"uint256"}],"outputs":[{"name":"payoutId","type":"uint256","internalType":"uint256"},{"name":"groupId","type":"uint256","internalType":"uint256"},{"name":"recipient","type":"address","internalType":"address"},{"name":"amount","type":"uint256","internalType":"uint256"},{"name":"timestamp","type":"uint256","internalType":"uint256"},{"name":"cycle","type":"uint256","internalType":"uint256"}],"stateMutability":"view"},{"type":"function","name":"proxiableUUID","inputs":[],"outputs":[{"name":"","type":"bytes32","internalType":"bytes32"}],"stateMutability":"view"},{"type":"function","name":"renounceOwnership","inputs":[],"outputs":[],"stateMutability":"nonpayable"},{"type":"function","name":"resumeOperations","inputs":[],"outputs":[],"stateMutability":"nonpayable"},{"type":"function","name":"rewardTokens","inputs":[{"name":"","type":"address","internalType":"address"},{"name":"","type":"uint256","internalType":"uint256"}],"outputs":[{"name":"","type":"address","internalType":"address"}],"stateMutability":"view"},{"type":"function","name":"rewardsController","inputs":[],"outputs":[{"name":"","type":"address","internalType":"address"}],"stateMutability":"view"},{"type":"function","name":"setAllowedThriftToken","inputs":[{"name":"token","type":"address","internalType":"address"},{"name":"allowed","type":"bool","internalType":"bool"}],"outputs":[],"stateMutability":"nonpayable"},{"type":"function","name":"setPayoutOrder","inputs":[{"name":"groupId","type":"uint256","internalType":"uint256"},{"name":"payoutOrder","type":"address[]","internalType":"address[]"}],"outputs":[],"stateMutability":"nonpayable"},{"type":"function","name":"setRewardsController","inputs":[{"name":"_controller","type":"address","internalType":"address"}],"outputs":[],"stateMutability":"nonpayable"},{"type":"function","name":"thriftGroups","inputs":[{"name":"","type":"uint256","internalType":"uint256"}],"outputs":[{"name":"groupId","type":"uint256","internalType":"uint256"},{"name":"contributionAmount","type":"uint256","internalType":"uint256"},{"name":"startDate","type":"uint256","internalType":"uint256"},{"name":"nextPayoutDate","type":"uint256","internalType":"uint256"},{"name":"cycleDuration","type":"uint256","internalType":"uint256"},{"name":"maxMembers","type":"uint256","internalType":"uint256"},{"name":"currentCycle","type":"uint256","internalType":"uint256"},{"name":"currentRound","type":"uint256","internalType":"uint256"},{"name":"admin","type":"address","internalType":"address"},{"name":"tokenAddress","type":"address","internalType":"address"},{"name":"isActive","type":"bool","internalType":"bool"},{"name":"isPublic","type":"bool","internalType":"bool"}],"stateMutability":"view"},{"type":"function","name":"timeBetweenWithdrawalsThreshold","inputs":[],"outputs":[{"name":"","type":"uint256","internalType":"uint256"}],"stateMutability":"view"},{"type":"function","name":"tokenStorage","inputs":[],"outputs":[{"name":"","type":"address","internalType":"contract MiniSafeTokenStorageUpgradeable"}],"stateMutability":"view"},{"type":"function","name":"totalPayouts","inputs":[],"outputs":[{"name":"","type":"uint256","internalType":"uint256"}],"stateMutability":"view"},{"type":"function","name":"totalThriftGroups","inputs":[],"outputs":[{"name":"","type":"uint256","internalType":"uint256"}],"stateMutability":"view"},{"type":"function","name":"totalThriftStaked","inputs":[{"name":"","type":"address","internalType":"address"}],"outputs":[{"name":"","type":"uint256","internalType":"uint256"}],"stateMutability":"view"},{"type":"function","name":"transferOwnership","inputs":[{"name":"newOwner","type":"address","internalType":"address"}],"outputs":[],"stateMutability":"nonpayable"},{"type":"function","name":"triggerCircuitBreaker","inputs":[{"name":"reason","type":"string","internalType":"string"}],"outputs":[],"stateMutability":"nonpayable"},{"type":"function","name":"unpause","inputs":[],"outputs":[],"stateMutability":"nonpayable"},{"type":"function","name":"updateCircuitBreakerThresholds","inputs":[{"name":"newWithdrawalThreshold","type":"uint256","internalType":"uint256"},{"name":"newTimeThreshold","type":"uint256","internalType":"uint256"}],"outputs":[],"stateMutability":"nonpayable"},{"type":"function","name":"upgradeToAndCall","inputs":[{"name":"newImplementation","type":"address","internalType":"address"},{"name":"data","type":"bytes","internalType":"bytes"}],"outputs":[],"stateMutability":"payable"},{"type":"function","name":"userLockedShares","inputs":[{"name":"","type":"address","internalType":"address"},{"name":"","type":"address","internalType":"address"}],"outputs":[{"name":"","type":"uint256","internalType":"uint256"}],"stateMutability":"view"},{"type":"function","name":"userPendingRewards","inputs":[{"name":"","type":"address","internalType":"address"},{"name":"","type":"address","internalType":"address"}],"outputs":[{"name":"","type":"uint256","internalType":"uint256"}],"stateMutability":"view"},{"type":"function","name":"userRewardDebt","inputs":[{"name":"","type":"address","internalType":"address"},{"name":"","type":"address","internalType":"address"},{"name":"","type":"address","internalType":"address"}],"outputs":[{"name":"","type":"uint256","internalType":"uint256"}],"stateMutability":"view"},{"type":"function","name":"version","inputs":[],"outputs":[{"name":"","type":"string","internalType":"string"}],"stateMutability":"pure"},{"type":"function","name":"withdraw","inputs":[{"name":"tokenAddress","type":"address","internalType":"address"},{"name":"amount","type":"uint256","internalType":"uint256"}],"outputs":[],"stateMutability":"nonpayable"},{"type":"function","name":"withdrawalAmountThreshold","inputs":[],"outputs":[{"name":"","type":"uint256","internalType":"uint256"}],"stateMutability":"view"},{"type":"event","name":"AavePoolUpdated","inputs":[{"name":"newPool","type":"address","indexed":true,"internalType":"address"}],"anonymous":false},{"type":"event","name":"CircuitBreakerThresholdsUpdated","inputs":[{"name":"withdrawalAmountThreshold","type":"uint256","indexed":false,"internalType":"uint256"},{"name":"timeBetweenWithdrawalsThreshold","type":"uint256","indexed":false,"internalType":"uint256"}],"anonymous":false},{"type":"event","name":"CircuitBreakerTriggered","inputs":[{"name":"by","type":"address","indexed":true,"internalType":"address"},{"name":"reason","type":"string","indexed":false,"internalType":"string"}],"anonymous":false},{"type":"event","name":"CircuitBreakerTriggered","inputs":[{"name":"reason","type":"string","indexed":false,"internalType":"string"},{"name":"timestamp","type":"uint256","indexed":false,"internalType":"uint256"}],"anonymous":false},{"type":"event","name":"CollateralSeized","inputs":[{"name":"groupId","type":"uint256","indexed":true,"internalType":"uint256"},{"name":"member","type":"address","indexed":true,"internalType":"address"},{"name":"amount","type":"uint256","indexed":false,"internalType":"uint256"}],"anonymous":false},{"type":"event","name":"ContributionMade","inputs":[{"name":"groupId","type":"uint256","indexed":true,"internalType":"uint256"},{"name":"member","type":"address","indexed":true,"internalType":"address"},{"name":"amount","type":"uint256","indexed":false,"internalType":"uint256"}],"anonymous":false},{"type":"event","name":"DefaultCovered","inputs":[{"name":"groupId","type":"uint256","indexed":true,"internalType":"uint256"},{"name":"member","type":"address","indexed":true,"internalType":"address"},{"name":"amount","type":"uint256","indexed":false,"internalType":"uint256"}],"anonymous":false},{"type":"event","name":"Deposited","inputs":[{"name":"depositor","type":"address","indexed":true,"internalType":"address"},{"name":"amount","type":"uint256","indexed":false,"internalType":"uint256"},{"name":"token","type":"address","indexed":true,"internalType":"address"},{"name":"sharesReceived","type":"uint256","indexed":false,"internalType":"uint256"}],"anonymous":false},{"type":"event","name":"DepositedToAave","inputs":[{"name":"token","type":"address","indexed":true,"internalType":"address"},{"name":"amount","type":"uint256","indexed":false,"internalType":"uint256"}],"anonymous":false},{"type":"event","name":"EmergencyWithdraw","inputs":[{"name":"groupId","type":"uint256","indexed":true,"internalType":"uint256"},{"name":"admin","type":"address","indexed":true,"internalType":"address"},{"name":"amount","type":"uint256","indexed":false,"internalType":"uint256"}],"anonymous":false},{"type":"event","name":"EmergencyWithdrawalCancelled","inputs":[{"name":"by","type":"address","indexed":true,"internalType":"address"}],"anonymous":false},{"type":"event","name":"EmergencyWithdrawalExecuted","inputs":[{"name":"by","type":"address","indexed":true,"internalType":"address"},{"name":"token","type":"address","indexed":true,"internalType":"address"},{"name":"amount","type":"uint256","indexed":false,"internalType":"uint256"}],"anonymous":false},{"type":"event","name":"EmergencyWithdrawalInitiated","inputs":[{"name":"by","type":"address","indexed":true,"internalType":"address"},{"name":"availableAt","type":"uint256","indexed":false,"internalType":"uint256"}],"anonymous":false},{"type":"event","name":"GroupActivated","inputs":[{"name":"groupId","type":"uint256","indexed":true,"internalType":"uint256"}],"anonymous":false},{"type":"event","name":"GroupDeactivated","inputs":[{"name":"groupId","type":"uint256","indexed":true,"internalType":"uint256"}],"anonymous":false},{"type":"event","name":"Initialized","inputs":[{"name":"version","type":"uint64","indexed":false,"internalType":"uint64"}],"anonymous":false},{"type":"event","name":"ManagerAuthorized","inputs":[{"name":"manager","type":"address","indexed":true,"internalType":"address"},{"name":"status","type":"bool","indexed":false,"internalType":"bool"}],"anonymous":false},{"type":"event","name":"MemberJoined","inputs":[{"name":"groupId","type":"uint256","indexed":true,"internalType":"uint256"},{"name":"member","type":"address","indexed":true,"internalType":"address"}],"anonymous":false},{"type":"event","name":"MemberLeft","inputs":[{"name":"groupId","type":"uint256","indexed":true,"internalType":"uint256"},{"name":"member","type":"address","indexed":true,"internalType":"address"}],"anonymous":false},{"type":"event","name":"OwnershipTransferred","inputs":[{"name":"previousOwner","type":"address","indexed":true,"internalType":"address"},{"name":"newOwner","type":"address","indexed":true,"internalType":"address"}],"anonymous":false},{"type":"event","name":"Paused","inputs":[{"name":"account","type":"address","indexed":false,"internalType":"address"}],"anonymous":false},{"type":"event","name":"PayoutDistributed","inputs":[{"name":"groupId","type":"uint256","indexed":true,"internalType":"uint256"},{"name":"recipient","type":"address","indexed":true,"internalType":"address"},{"name":"amount","type":"uint256","indexed":false,"internalType":"uint256"},{"name":"cycle","type":"uint256","indexed":false,"internalType":"uint256"}],"anonymous":false},{"type":"event","name":"PayoutOrderSet","inputs":[{"name":"groupId","type":"uint256","indexed":true,"internalType":"uint256"},{"name":"payoutOrder","type":"address[]","indexed":false,"internalType":"address[]"}],"anonymous":false},{"type":"event","name":"PoolDataProviderUpdated","inputs":[{"name":"newDataProvider","type":"address","indexed":true,"internalType":"address"}],"anonymous":false},{"type":"event","name":"RefundIssued","inputs":[{"name":"groupId","type":"uint256","indexed":true,"internalType":"uint256"},{"name":"member","type":"address","indexed":true,"internalType":"address"},{"name":"amount","type":"uint256","indexed":false,"internalType":"uint256"}],"anonymous":false},{"type":"event","name":"RewardTokenAdded","inputs":[{"name":"asset","type":"address","indexed":true,"internalType":"address"},{"name":"rewardToken","type":"address","indexed":true,"internalType":"address"}],"anonymous":false},{"type":"event","name":"RewardsClaimed","inputs":[{"name":"user","type":"address","indexed":true,"internalType":"address"},{"name":"rewardToken","type":"address","indexed":true,"internalType":"address"},{"name":"amount","type":"uint256","indexed":false,"internalType":"uint256"}],"anonymous":false},{"type":"event","name":"RewardsControllerUpdated","inputs":[{"name":"oldController","type":"address","indexed":true,"internalType":"address"},{"name":"newController","type":"address","indexed":true,"internalType":"address"}],"anonymous":false},{"type":"event","name":"ThriftGroupCreated","inputs":[{"name":"groupId","type":"uint256","indexed":true,"internalType":"uint256"},{"name":"contributionAmount","type":"uint256","indexed":false,"internalType":"uint256"},{"name":"startDate","type":"uint256","indexed":false,"internalType":"uint256"},{"name":"maxMembers","type":"uint256","indexed":false,"internalType":"uint256"},{"name":"isPublic","type":"bool","indexed":false,"internalType":"bool"},{"name":"admin","type":"address","indexed":true,"internalType":"address"}],"anonymous":false},{"type":"event","name":"ThriftYieldDistributed","inputs":[{"name":"groupId","type":"uint256","indexed":true,"internalType":"uint256"},{"name":"member","type":"address","indexed":true,"internalType":"address"},{"name":"amount","type":"uint256","indexed":false,"internalType":"uint256"}],"anonymous":false},{"type":"event","name":"TimelockBroken","inputs":[{"name":"breaker","type":"address","indexed":true,"internalType":"address"},{"name":"amount","type":"uint256","indexed":false,"internalType":"uint256"},{"name":"token","type":"address","indexed":true,"internalType":"address"}],"anonymous":false},{"type":"event","name":"TokenAdded","inputs":[{"name":"tokenAddress","type":"address","indexed":true,"internalType":"address"},{"name":"aTokenAddress","type":"address","indexed":true,"internalType":"address"}],"anonymous":false},{"type":"event","name":"TokenRemoved","inputs":[{"name":"tokenAddress","type":"address","indexed":true,"internalType":"address"}],"anonymous":false},{"type":"event","name":"Unpaused","inputs":[{"name":"account","type":"address","indexed":false,"internalType":"address"}],"anonymous":false},{"type":"event","name":"Upgraded","inputs":[{"name":"implementation","type":"address","indexed":true,"internalType":"address"}],"anonymous":false},{"type":"event","name":"UserBalanceUpdated","inputs":[{"name":"user","type":"address","indexed":true,"internalType":"address"},{"name":"token","type":"address","indexed":true,"internalType":"address"},{"name":"amount","type":"uint256","indexed":false,"internalType":"uint256"},{"name":"isDeposit","type":"bool","indexed":false,"internalType":"bool"}],"anonymous":false},{"type":"event","name":"Withdrawn","inputs":[{"name":"withdrawer","type":"address","indexed":true,"internalType":"address"},{"name":"amount","type":"uint256","indexed":false,"internalType":"uint256"},{"name":"token","type":"address","indexed":true,"internalType":"address"},{"name":"sharesRedeemed","type":"uint256","indexed":false,"internalType":"uint256"}],"anonymous":false},{"type":"event","name":"WithdrawnFromAave","inputs":[{"name":"token","type":"address","indexed":true,"internalType":"address"},{"name":"amount","type":"uint256","indexed":false,"internalType":"uint256"}],"anonymous":false},{"type":"error","name":"AddressEmptyCode","inputs":[{"name":"target","type":"address","internalType":"address"}]},{"type":"error","name":"ERC1967InvalidImplementation","inputs":[{"name":"implementation","type":"address","internalType":"address"}]},{"type":"error","name":"ERC1967NonPayable","inputs":[]},{"type":"error","name":"EnforcedPause","inputs":[]},{"type":"error","name":"ExpectedPause","inputs":[]},{"type":"error","name":"FailedCall","inputs":[]},{"type":"error","name":"InvalidInitialization","inputs":[]},{"type":"error","name":"NotInitializing","inputs":[]},{"type":"error","name":"OwnableInvalidOwner","inputs":[{"name":"owner","type":"address","internalType":"address"}]},{"type":"error","name":"OwnableUnauthorizedAccount","inputs":[{"name":"account","type":"address","internalType":"address"}]},{"type":"error","name":"ReentrancyGuardReentrantCall","inputs":[]},{"type":"error","name":"SafeERC20FailedOperation","inputs":[{"name":"token","type":"address","internalType":"address"}]},{"type":"error","name":"UUPSUnauthorizedCallContext","inputs":[]},{"type":"error","name":"UUPSUnsupportedProxiableUUID","inputs":[{"name":"slot","type":"bytes32","internalType":"bytes32"}]}],"bytecode":{"object":"0x60a060405230608052348015610013575f5ffd5b5061001c610021565b6100d3565b7ff0c57e16840df040f15088dc2f81fe391c3923bec73e23a9662efc9c229c6a00805468010000000000000000900460ff16156100715760405163f92ee8a960e01b815260040160405180910390fd5b80546001600160401b03908116146100d05780546001600160401b0319166001600160401b0390811782556040519081527fc7f505b2f371ae2175ee4913f4499e1f2633a7b5936321eed1cdaeb6115181d29060200160405180910390a15b50565b6080516186296100f95f395f81816165730152818161659c01526166d201526186295ff3fe608060405260043610610377575f3560e01c8063072e778f1461037b578063079abc461461039c5780630b098ce9146103e55780630d578f781461040457806312b1deb8146104305780631ad095d8146104445780631ae740c9146104705780631fdf8b861461048557806323cb23901461049a57806326e98b8b146104b957806329652e86146104ef5780632d8c04e9146105495780632dd33d9e146105d157806331ad1200146105f057806333471df51461060f5780633402c5cf1461062e578063360a2bcb1461064d57806336cc81301461066c5780633d6aa5e11461068b5780633e5541f1146106a35780633f4ba83a146106c257806340650c91146106d65780634089b170146106f057806345ad76b41461070557806347e7ef24146107245780634b9ae0ce146107435780634bbd506e1461076e5780634c38da4c146107aa5780634f1ef286146107e057806352d1902d146107f35780635312ea8e1461080757806354fd4d5014610826578063591d8a4b1461085c5780635c975abb1461089257806360d7442b146108b6578063619e7abf146108cc57806361b242c5146108f75780636805d6ad146109165780636bb65f53146109355780636d69fcaf14610954578063715018a6146109735780637dc5bb571461098757806381a4af151461099c57806383ba3ce0146109bb5780638456cb59146109da5780638c91d2dd146109ee5780638da5cb5b14610a0d5780639814dbdc14610a2157806399d4360f14610a4d5780639d07fd1314610abd578063a022668614610adc578063a6e1d01614610afb578063a71f589314610b0f578063a73992e414610b2e578063a9a9e25714610b4d578063ab59a11e14610b7b578063ad3cb1cc14610b9a578063af051e5a14610bca578063b130a6ac14610be9578063b199efb514610c08578063b51459fe14610c27578063bee36bb314610c3b578063bfeb560714610c5a578063c0c53b8b14610c79578063c187645314610c98578063ccdb9cea14610cb7578063cd421fbf14610ced578063cdb646b514610d03578063d3c7c2c714610d22578063d4fac45d14610d36578063df7d296c14610d55578063dfd1004714610d74578063e1e158a514610d93578063e76a812914610dad578063ea0e35b114610dcc578063f20d863414610de0578063f2fde38b14610dff578063f3fef3a314610e1e578063faf7f01814610e3d575b5f5ffd5b348015610386575f5ffd5b5061039a610395366004617989565b610e5c565b005b3480156103a7575f5ffd5b506103d26103b63660046179b7565b601060209081525f928352604080842090915290825290205481565b6040519081526020015b60405180910390f35b3480156103f0575f5ffd5b5061039a6103ff366004617a23565b610fba565b34801561040f575f5ffd5b50600554610423906001600160a01b031681565b6040516103dc9190617a61565b34801561043b575f5ffd5b506103d25f5481565b34801561044f575f5ffd5b5061046361045e366004617a75565b61119b565b6040516103dc9190617ad8565b34801561047b575f5ffd5b506103d260065481565b348015610490575f5ffd5b506103d260025481565b3480156104a5575f5ffd5b5061039a6104b43660046179b7565b611219565b3480156104c4575f5ffd5b506104d86104d3366004617989565b611481565b6040805192151583526020830191909152016103dc565b3480156104fa575f5ffd5b5061050e610509366004617aea565b611500565b6040805196875260208701959095526001600160a01b03909316938501939093526060840152608083019190915260a082015260c0016103dc565b348015610554575f5ffd5b50610568610563366004617aea565b61154e565b604080519c8d5260208d019b909b52998b019890985260608a0196909652608089019490945260a088019290925260c087015260e08601526001600160a01b039081166101008601521661012084015215156101408301521515610160820152610180016103dc565b3480156105dc575f5ffd5b5061039a6105eb366004617aea565b6115d0565b3480156105fb575f5ffd5b5061039a61060a366004617989565b6117a4565b34801561061a575f5ffd5b5061039a610629366004617aea565b6119d7565b348015610639575f5ffd5b506103d2610648366004617b0e565b611f1b565b348015610658575f5ffd5b5061039a610667366004617aea565b61226a565b348015610677575f5ffd5b50610463610686366004617aea565b6122d2565b348015610696575f5ffd5b506103d264e8d4a5100081565b3480156106ae575f5ffd5b506103d26106bd366004617b55565b612376565b3480156106cd575f5ffd5b5061039a612496565b3480156106e1575f5ffd5b506103d2662386f26fc1000081565b3480156106fb575f5ffd5b506103d260075481565b348015610710575f5ffd5b506103d261071f366004617b7f565b6124a8565b34801561072f575f5ffd5b5061039a61073e366004617b55565b612518565b34801561074e575f5ffd5b506103d261075d366004617b7f565b60036020525f908152604090205481565b348015610779575f5ffd5b506103d2610788366004617b9a565b601160209081525f938452604080852082529284528284209052825290205481565b3480156107b5575f5ffd5b506103d26107c43660046179b7565b600c60209081525f928352604080842090915290825290205481565b61039a6107ee366004617c7e565b61281d565b3480156107fe575f5ffd5b506103d2612838565b348015610812575f5ffd5b5061039a610821366004617aea565b612853565b348015610831575f5ffd5b50604080518082019091526005815264312e302e3160d81b60208201525b6040516103dc9190617d0b565b348015610867575f5ffd5b506103d26108763660046179b7565b601260209081525f928352604080842090915290825290205481565b34801561089d575f5ffd5b506108a6612cb1565b60405190151581526020016103dc565b3480156108c1575f5ffd5b506103d26202a30081565b3480156108d7575f5ffd5b506103d26108e6366004617b7f565b600a6020525f908152604090205481565b348015610902575f5ffd5b5061039a610911366004617d1d565b612cc5565b348015610921575f5ffd5b506103d26109303660046179b7565b612cd6565b348015610940575f5ffd5b50600e54610423906001600160a01b031681565b34801561095f575f5ffd5b506108a661096e366004617b7f565b612d48565b34801561097e575f5ffd5b5061039a612dc1565b348015610992575f5ffd5b506103d260015481565b3480156109a7575f5ffd5b506104236109b6366004617b55565b612dd2565b3480156109c6575f5ffd5b5061039a6109d5366004617d61565b612e06565b3480156109e5575f5ffd5b5061039a613390565b3480156109f9575f5ffd5b5061039a610a08366004617aea565b6133a8565b348015610a18575f5ffd5b506104236135e2565b348015610a2c575f5ffd5b50610a40610a3b366004617aea565b6135fc565b6040516103dc9190617d96565b348015610a58575f5ffd5b50610a6c610a67366004617aea565b6137dd565b60408051998a5260208a0198909852968801959095526060870193909352608086019190915260a0850152151560c0840152151560e08301526001600160a01b0316610100820152610120016103dc565b348015610ac8575f5ffd5b50610423610ad7366004617aea565b6138a7565b348015610ae7575f5ffd5b5061039a610af6366004617b7f565b613958565b348015610b06575f5ffd5b5061039a613d48565b348015610b1a575f5ffd5b5061039a610b29366004617aea565b613d58565b348015610b39575f5ffd5b5061039a610b48366004617e0d565b613ee0565b348015610b58575f5ffd5b506108a6610b67366004617b7f565b600d6020525f908152604090205460ff1681565b348015610b86575f5ffd5b5061039a610b95366004617b7f565b614200565b348015610ba5575f5ffd5b5061084f604051806040016040528060058152602001640352e302e360dc1b81525081565b348015610bd5575f5ffd5b5061039a610be4366004617a75565b61443b565b348015610bf4575f5ffd5b506108a6610c03366004617aea565b61448b565b348015610c13575f5ffd5b50600454610423906001600160a01b031681565b348015610c32575f5ffd5b506108a661453f565b348015610c46575f5ffd5b5061039a610c55366004617b7f565b614635565b348015610c65575f5ffd5b506108a6610c74366004617989565b6146e3565b348015610c84575f5ffd5b5061039a610c93366004617b9a565b61478c565b348015610ca3575f5ffd5b506108a6610cb2366004617b7f565b61497f565b348015610cc2575f5ffd5b506103d2610cd1366004617989565b600b60209081525f928352604080842090915290825290205481565b348015610cf8575f5ffd5b506103d262278d0081565b348015610d0e575f5ffd5b506103d2610d1d3660046179b7565b6149cb565b348015610d2d575f5ffd5b50610463614a45565b348015610d41575f5ffd5b506103d2610d503660046179b7565b614ac2565b348015610d60575f5ffd5b50610463610d6f366004617aea565b614b7f565b348015610d7f575f5ffd5b506103d2610d8e3660046179b7565b614c21565b348015610d9e575f5ffd5b506103d266038d7ea4c6800081565b348015610db8575f5ffd5b506103d2610dc73660046179b7565b614cd2565b348015610dd7575f5ffd5b506103d2600581565b348015610deb575f5ffd5b506103d2610dfa366004617b7f565b614d05565b348015610e0a575f5ffd5b5061039a610e19366004617b7f565b614d36565b348015610e29575f5ffd5b5061039a610e38366004617b55565b614d70565b348015610e48575f5ffd5b5061039a610e57366004617e54565b6151ee565b60085482908110610e885760405162461bcd60e51b8152600401610e7f90617e80565b60405180910390fd5b60088181548110610e9b57610e9b617eae565b5f91825260209091206010601190920201015460ff16610ecd5760405162461bcd60e51b8152600401610e7f90617ec2565b610ed5615220565b5f60088481548110610ee957610ee9617eae565b905f5260205f20906011020190508060030154421015610f425760405162461bcd60e51b81526020600482015260146024820152735761697420666f72207061796f7574206461746560601b6044820152606401610e7f565b6001600160a01b0383165f908152600d8201602052604090205460ff1615610fa25760405162461bcd60e51b815260206004820152601360248201527213595b58995c88185b1c9958591e481c185a59606a1b6044820152606401610e7f565b610fac8484615255565b50610fb5615482565b505050565b610fc2615220565b5f5b8181101561100457610ffc33848484818110610fe257610fe2617eae565b9050602002016020810190610ff79190617b7f565b615492565b600101610fc4565b505f5b8181101561118e575f600f5f85858581811061102557611025617eae565b905060200201602081019061103a9190617b7f565b6001600160a01b03166001600160a01b031681526020019081526020015f208054806020026020016040519081016040528092919081815260200182805480156110ab57602002820191905f5260205f20905b81546001600160a01b0316815260019091019060200180831161108d575b509394505f93505050505b8151811015611184575f8282815181106110d2576110d2617eae565b602090810291909101810151335f9081526012835260408082206001600160a01b03841683529093529190912054909150801561117a57335f8181526012602090815260408083206001600160a01b03871680855292528220919091556111399183615aac565b6040518181526001600160a01b0383169033907f9310ccfcb8de723f578a9e4282ea9f521f05ae40dc08f3068dfad528a65ee3c79060200160405180910390a35b50506001016110b6565b5050600101611007565b50611197615482565b5050565b600480546040516360e9b14760e11b81526060926001600160a01b039092169163c1d3628e916111cf918791879101617eef565b5f60405180830381865afa1580156111e9573d5f5f3e3d5ffd5b505050506040513d5f823e601f3d908101601f191682016040526112109190810190617f92565b90505b92915050565b611221615b04565b6004805460405163c187645360e01b81526001600160a01b039091169163c18764539161125091869101617a61565b602060405180830381865afa15801561126b573d5f5f3e3d5ffd5b505050506040513d601f19601f8201168201806040525081019061128f9190617fc3565b6112cf5760405162461bcd60e51b8152602060048201526011602482015270155b9cdd5c1c1bdc9d195908185cdcd95d607a1b6044820152606401610e7f565b6001600160a01b03811661131c5760405162461bcd60e51b815260206004820152601460248201527324b73b30b634b2103932bbb0b932103a37b5b2b760611b6044820152606401610e7f565b6001600160a01b0382165f908152600f602090815260408083208054825181850281018501909352808352919290919083018282801561138357602002820191905f5260205f20905b81546001600160a01b03168152600190910190602001808311611365575b509394505f93505050505b815181101561141657826001600160a01b03168282815181106113b3576113b3617eae565b60200260200101516001600160a01b03160361140e5760405162461bcd60e51b815260206004820152601a60248201527914995dd85c99081d1bdad95b88185b1c9958591e48185919195960321b6044820152606401610e7f565b60010161138e565b506001600160a01b038381165f818152600f60209081526040808320805460018101825590845291832090910180546001600160a01b0319169487169485179055517f3344e0a0f48738979c56a1b9f2cd3425597f76766d53e83439cab3fc30b067c79190a3505050565b6008545f90819084106114a65760405162461bcd60e51b8152600401610e7f90617e80565b5f600885815481106114ba576114ba617eae565b5f91825260208083206001600160a01b0388168452600d6011909302019182018152604080842054600e9093019091529091205460ff90911693509150505b9250929050565b6009818154811061150f575f80fd5b5f91825260209091206006909102018054600182015460028301546003840154600485015460059095015493955091936001600160a01b039091169286565b6008818154811061155d575f80fd5b5f918252602090912060119091020180546001820154600283015460038401546004850154600586015460068701546007880154600889015460098a01546010909a0154989a5096989597949693959294919390926001600160a01b039182169291169060ff808216916101009004168c565b6115d8615220565b60085481106115f95760405162461bcd60e51b8152600401610e7f90617e80565b5f6008828154811061160d5761160d617eae565b905f5260205f20906011020190508060100160019054906101000a900460ff1661166f5760405162461bcd60e51b815260206004820152601360248201527247726f7570206973206e6f74207075626c696360681b6044820152606401610e7f565b6005810154600a820154106116965760405162461bcd60e51b8152600401610e7f90617fde565b6116a082336146e3565b156116bd5760405162461bcd60e51b8152600401610e7f90618005565b601081015460ff16156116e25760405162461bcd60e51b8152600401610e7f9061802f565b6009810154600182015461170391849133916001600160a01b031690615b36565b600a810180546001810182555f828152602090200180546001600160a01b03191633179055600582015490540361177f574260028201819055600482015461174a91618071565b600382015560108101805460ff1916600117905561176782615b8e565b60405182905f5160206185545f395f51905f52905f90a25b604051339083905f5160206185945f395f51905f52905f90a3506117a1615482565b50565b600854829081106117c75760405162461bcd60e51b8152600401610e7f90617e80565b336001600160a01b0316600882815481106117e4576117e4617eae565b5f9182526020909120600860119092020101546001600160a01b03161461181d5760405162461bcd60e51b8152600401610e7f90618084565b611825615220565b5f6008848154811061183957611839617eae565b905f5260205f20906011020190508060100160019054906101000a900460ff16156118b45760405162461bcd60e51b815260206004820152602560248201527f557365206a6f696e5075626c696347726f757020666f72207075626c69632067604482015264726f75707360d81b6064820152608401610e7f565b6005810154600a820154106118db5760405162461bcd60e51b8152600401610e7f90617fde565b6118e584846146e3565b156119025760405162461bcd60e51b8152600401610e7f90618005565b601081015460ff16156119275760405162461bcd60e51b8152600401610e7f9061802f565b600a810180546001810182555f828152602090200180546001600160a01b0319166001600160a01b03861617905560058201549054036119ac574260028201819055600482015461197791618071565b600382015560108101805460ff1916600117905561199484615b8e565b60405184905f5160206185545f395f51905f52905f90a25b6040516001600160a01b0384169085905f5160206185945f395f51905f52905f90a350610fb5615482565b600854819081106119fa5760405162461bcd60e51b8152600401610e7f90617e80565b611a0481336146e3565b611a205760405162461bcd60e51b8152600401610e7f906180cc565b611a28615220565b5f60088381548110611a3c57611a3c617eae565b905f5260205f20906011020190508060020154421080611a615750601081015460ff16155b80611a735750611a718333615cc6565b155b611acb5760405162461bcd60e51b815260206004820152602360248201527f43616e6e6f74206c6561766520616674657220726563656976696e67207061796044820152621bdd5d60ea1b6064820152608401610e7f565b335f908152600e820160205260409020546009820154600a83015460108401546001600160a01b039092169160029091111590610100900460ff1615611bdd575f60058560010154611b1d9190618100565b90505f611b2a8483612376565b335f908152600c602090815260408083206001600160a01b03891684529091529020549091508015611bd957611b608933615cc6565b15611bb957611b7133868b84615d52565b611b7d3386835f615ec7565b60405181815233908a907f348da1c7ca8804ff7b3cbff37a613a1549362d62ee8c309af7a61ca40adb4dae9060200160405180910390a3611bd9565b5f828210611bc75782611bc9565b815b9050611bd733878c84615d52565b505b5050505b611be78633616149565b8015611c245760108401805460ff1916905560405186907f510197d0e3943d304823799ac0c1c74b4d80cc5bcffcb36ab1b4ab510f4fe300905f90a25b604051339087907fa8dcd974806422d974a6135dd981896f1694065789986f7ba7947fbb4759e899905f90a38215611f0f57600554604051630712f6b360e01b81525f916001600160a01b031690630712f6b390611c86908690600401617a61565b602060405180830381865afa158015611ca1573d5f5f3e3d5ffd5b505050506040513d601f19601f82011682018060405250810190611cc59190618117565b60048054604051633c83618d60e21b81529293505f926001600160a01b039091169163f20d863491611cf991889101617a61565b602060405180830381865afa158015611d14573d5f5f3e3d5ffd5b505050506040513d601f19601f82011682018060405250810190611d389190618117565b6004805460405163224a5bbb60e21b81529293505f926001600160a01b03909116916389296eec91611d6e9130918a910161812e565b602060405180830381865afa158015611d89573d5f5f3e3d5ffd5b505050506040513d601f19601f82011682018060405250810190611dad9190618117565b90505f5f8411611dbd575f611dd2565b83611dc88489618100565b611dd2919061815c565b905081811115611ddf5750805b611deb3087835f615ec7565b6001600160a01b0386165f908152600a60205260409020548710611e0f575f611e32565b6001600160a01b0386165f908152600a6020526040902054611e3290889061816f565b6001600160a01b038088165f908152600a60209081526040808320949094558d8252600b815283822033808452915283822091909155600554925163ad9b3af760e01b8152929091169163ad9b3af791611e92918a918c91600401618182565b6020604051808303815f875af1158015611eae573d5f5f3e3d5ffd5b505050506040513d601f19601f82011682018060405250810190611ed29190618117565b5060405187815233908b907f7a482fdeb6bc9a1376f597068a214a7a39472bb2eff1b8cad21ba04f49ddca1b9060200160405180910390a3505050505b50505050611197615482565b5f611f24615220565b42841015611f745760405162461bcd60e51b815260206004820181905260248201527f53746172742064617465206d75737420626520696e20746865206675747572656044820152606401610e7f565b6004805460405163c187645360e01b81526001600160a01b039091169163c187645391611fa391869101617a61565b602060405180830381865afa158015611fbe573d5f5f3e3d5ffd5b505050506040513d601f19601f82011682018060405250810190611fe29190617fc3565b611ffe5760405162461bcd60e51b8152600401610e7f906181a5565b5f61201083662386f26fc100006163e7565b9050808610156120625760405162461bcd60e51b815260206004820152601d60248201527f436f6e747269627574696f6e20616d6f756e7420746f6f20736d616c6c0000006044820152606401610e7f565b6001600160a01b0383165f908152600d602052604090205460ff166120c85760405162461bcd60e51b815260206004820152601c60248201527b151bdad95b881b9bdd08185b1b1bddd95908199bdc881d1a1c9a599d60221b6044820152606401610e7f565b600880546001810182555f9190915260065460119091027ff3f7a9fe364faab93b216da50a3214154f22a0a2b415b23a84c8169e8b636ee381019182557ff3f7a9fe364faab93b216da50a3214154f22a0a2b415b23a84c8169e8b636ee481018890557ff3f7a9fe364faab93b216da50a3214154f22a0a2b415b23a84c8169e8b636ee50186905561215d62278d0087618071565b600382015562278d0060048201556005808201556001600680830182905560078301829055600883018054336001600160a01b0319918216811790925560098501805482166001600160a01b038a16179055600a8501805494850181555f908152602081209094018054909116909117905560108301805461ffff1916610100891515021790558054918291906121f3836181d0565b9190505550851561220a5761220a8133878b615b36565b604080518981526020810189905260058183015287151560608201529051339183917fa6203f8898cfd63f3cc2faaf3960ad67258de105bd66155a50ce2dbdd74d3ba09181900360800190a392505050612262615482565b949350505050565b600854811061228b5760405162461bcd60e51b8152600401610e7f90617e80565b5f6008828154811061229f5761229f617eae565b905f5260205f209060110201905061119782826009015f9054906101000a90046001600160a01b03168360010154612e06565b60085460609082106122f65760405162461bcd60e51b8152600401610e7f90617e80565b6008828154811061230957612309617eae565b905f5260205f209060110201600a0180548060200260200160405190810160405280929190818152602001828054801561236a57602002820191905f5260205f20905b81546001600160a01b0316815260019091019060200180831161234c575b50505050509050919050565b600554604051630712f6b360e01b81525f9182916001600160a01b0390911690630712f6b3906123aa908790600401617a61565b602060405180830381865afa1580156123c5573d5f5f3e3d5ffd5b505050506040513d601f19601f820116820180604052508101906123e99190618117565b60048054604051633c83618d60e21b81529293505f926001600160a01b039091169163f20d86349161241d91899101617a61565b602060405180830381865afa158015612438573d5f5f3e3d5ffd5b505050506040513d601f19601f8201168201806040525081019061245c9190618117565b9050801580612469575081155b15612478578392505050611213565b816124838286618100565b61248d919061815c565b95945050505050565b61249e615b04565b6124a66164b3565b565b60048054604051631a072b8160e11b81525f926001600160a01b039092169163340e5702916124d991869101617a61565b602060405180830381865afa1580156124f4573d5f5f3e3d5ffd5b505050506040513d601f19601f820116820180604052508101906112139190618117565b612520615220565b612528616509565b6004805460405163c187645360e01b81526001600160a01b039091169163c18764539161255791869101617a61565b602060405180830381865afa158015612572573d5f5f3e3d5ffd5b505050506040513d601f19601f820116820180604052508101906125969190617fc3565b6125b25760405162461bcd60e51b8152600401610e7f906181a5565b5f6125c48366038d7ea4c680006163e7565b9050808210156126115760405162461bcd60e51b815260206004820152601860248201527711195c1bdcda5d08185b5bdd5b9d081d1bdbc81cdb585b1b60421b6044820152606401610e7f565b600554604051630712f6b360e01b81525f916001600160a01b031690630712f6b390612641908790600401617a61565b602060405180830381865afa15801561265c573d5f5f3e3d5ffd5b505050506040513d601f19601f820116820180604052508101906126809190618117565b60048054604051633c83618d60e21b81529293505f926001600160a01b039091169163f20d8634916126b491899101617a61565b602060405180830381865afa1580156126cf573d5f5f3e3d5ffd5b505050506040513d601f19601f820116820180604052508101906126f39190618117565b600554909150612712906001600160a01b03878116913391168761652f565b60055460405163eeb149e760e01b81525f916001600160a01b03169063eeb149e79061274490899089906004016181e8565b6020604051808303815f875af1158015612760573d5f5f3e3d5ffd5b505050506040513d601f19601f820116820180604052508101906127849190618117565b90505f821580612792575083155b1561279e5750806127b6565b836127a98484618100565b6127b3919061815c565b90505b6127c33388836001615ec7565b866001600160a01b0316336001600160a01b03167fc490a74c1058132dffb93944d555ddd1817ae53b7367ea1126ff123b1b134a588884604051612808929190617eef565b60405180910390a35050505050611197615482565b612825616568565b61282e8261660c565b6111978282616614565b5f6128416166c7565b505f5160206185b45f395f51905f5290565b61285b615220565b600854811061287c5760405162461bcd60e51b8152600401610e7f90617e80565b5f6008828154811061289057612890617eae565b5f918252602090912060119091020160088101549091506001600160a01b03163314806128c25750601081015460ff16155b61290d5760405162461bcd60e51b815260206004820152601c60248201527b04f6e6c792061646d696e206f7220696e6163746976652067726f75760241b6044820152606401610e7f565b335f908152600c82016020526040902054806129695760405162461bcd60e51b815260206004820152601b60248201527a4e6f20636f6e747269627574696f6e20746f20776974686472617760281b6044820152606401610e7f565b6005546009830154604051630712f6b360e01b81525f926001600160a01b0390811692630712f6b3926129a29290911690600401617a61565b602060405180830381865afa1580156129bd573d5f5f3e3d5ffd5b505050506040513d601f19601f820116820180604052508101906129e19190618117565b600480546009860154604051633c83618d60e21b81529394505f936001600160a01b039283169363f20d863493612a1a93169101617a61565b602060405180830381865afa158015612a35573d5f5f3e3d5ffd5b505050506040513d601f19601f82011682018060405250810190612a599190618117565b60048054600987015460405163224a5bbb60e21b81529394505f936001600160a01b03928316936389296eec93612a959330939116910161812e565b602060405180830381865afa158015612ab0573d5f5f3e3d5ffd5b505050506040513d601f19601f82011682018060405250810190612ad49190618117565b90505f5f8411612ae4575f612af9565b83612aef8487618100565b612af9919061815c565b905081811115612b065750805b335f908152600c870160209081526040808320839055600d89018252808320805460ff19169055600e890190915281208054879290612b4690849061816f565b909155505060108601805460ff191690556009860154612b729030906001600160a01b0316835f615ec7565b60098601546001600160a01b03165f908152600a60205260409020548510612b9a575f612bc1565b60098601546001600160a01b03165f908152600a6020526040902054612bc190869061816f565b6009870180546001600160a01b039081165f908152600a60209081526040808320959095558b8252600b8152848220338084529152848220919091556005549254935163ad9b3af760e01b81529282169363ad9b3af793612c2b9391909116918a91600401618182565b6020604051808303815f875af1158015612c47573d5f5f3e3d5ffd5b505050506040513d601f19601f82011682018060405250810190612c6b9190618117565b50604051858152339088907f947a9dc0c5e62cc9756634ec0a89afea37eb0305933925040b9bda82004400209060200160405180910390a35050505050506117a1615482565b5f5f612cbb616710565b5460ff1692915050565b612ccd615b04565b6117a181616734565b6004805460405163224a5bbb60e21b81525f926001600160a01b03909216916389296eec91612d0991879187910161812e565b602060405180830381865afa158015612d24573d5f5f3e3d5ffd5b505050506040513d601f19601f820116820180604052508101906112109190618117565b5f612d51615b04565b600554604051636d69fcaf60e01b81526001600160a01b0390911690636d69fcaf90612d81908590600401617a61565b6020604051808303815f875af1158015612d9d573d5f5f3e3d5ffd5b505050506040513d601f19601f820116820180604052508101906112139190617fc3565b612dc9615b04565b6124a65f61676d565b600f602052815f5260405f208181548110612deb575f80fd5b5f918252602090912001546001600160a01b03169150829050565b60085483908110612e295760405162461bcd60e51b8152600401610e7f90617e80565b612e3381336146e3565b612e4f5760405162461bcd60e51b8152600401610e7f906180cc565b60085484908110612e725760405162461bcd60e51b8152600401610e7f90617e80565b60088181548110612e8557612e85617eae565b5f91825260209091206010601190920201015460ff16612eb75760405162461bcd60e51b8152600401610e7f90617ec2565b612ebf615220565b5f60088681548110612ed357612ed3617eae565b5f91825260209091206004805460405163c187645360e01b8152601190940290920193506001600160a01b039091169163c187645391612f1591899101617a61565b602060405180830381865afa158015612f30573d5f5f3e3d5ffd5b505050506040513d601f19601f82011682018060405250810190612f549190617fc3565b612f705760405162461bcd60e51b8152600401610e7f906181a5565b60098101546001600160a01b03868116911614612fc05760405162461bcd60e51b815260206004820152600e60248201526d0a8ded6cadc40dad2e6dac2e8c6d60931b6044820152606401610e7f565b806001015484146130225760405162461bcd60e51b815260206004820152602660248201527f436f6e747269627574696f6e20616d6f756e74206d757374206d617463682065604482015265786163746c7960d01b6064820152608401610e7f565b80600201544210156130725760405162461bcd60e51b815260206004820152601960248201527811dc9bdd5c081a185cc81b9bdd081cdd185c9d1959081e595d603a1b6044820152606401610e7f565b335f908152600d8201602052604090205460ff16156130d35760405162461bcd60e51b815260206004820152601e60248201527f416c726561647920636f6e74726962757465642074686973206379636c6500006044820152606401610e7f565b5f868152600b602090815260408083203384529091528082204290556005549051630712f6b360e01b81526001600160a01b0390911690630712f6b39061311e908990600401617a61565b602060405180830381865afa158015613139573d5f5f3e3d5ffd5b505050506040513d601f19601f8201168201806040525081019061315d9190618117565b60048054604051633c83618d60e21b81529293505f926001600160a01b039091169163f20d863491613191918b9101617a61565b602060405180830381865afa1580156131ac573d5f5f3e3d5ffd5b505050506040513d601f19601f820116820180604052508101906131d09190618117565b6005549091506131ef906001600160a01b03898116913391168961652f565b60055460405163eeb149e760e01b81525f916001600160a01b03169063eeb149e790613221908b908b906004016181e8565b6020604051808303815f875af115801561323d573d5f5f3e3d5ffd5b505050506040513d601f19601f820116820180604052508101906132619190618117565b90505f82158061326f575083155b1561327b575080613293565b836132868484618100565b613290919061815c565b90505b6132a0308a836001615ec7565b6001600160a01b0389165f908152600a6020526040812080548492906132c7908490618071565b9091555050335f908152600c86016020526040812080548a92906132ec908490618071565b9091555050335f908152600e86016020526040812080548a9290613311908490618071565b9091555050335f908152600d860160205260409020805460ff191660011790556010850154610100900460ff161561334e5761334e8a8a8a6167c7565b60405188815233908b905f5160206185d45f395f51905f529060200160405180910390a361337c8a8a61681c565b5050505050613389615482565b5050505050565b613398615b04565b6133a0616509565b6124a66168c5565b600854819081106133cb5760405162461bcd60e51b8152600401610e7f90617e80565b336001600160a01b0316600882815481106133e8576133e8617eae565b5f9182526020909120600860119092020101546001600160a01b0316146134215760405162461bcd60e51b8152600401610e7f90618084565b600854829081106134445760405162461bcd60e51b8152600401610e7f90617e80565b6008818154811061345757613457617eae565b5f91825260209091206010601190920201015460ff166134895760405162461bcd60e51b8152600401610e7f90617ec2565b613491615220565b60085483106134b25760405162461bcd60e51b8152600401610e7f90617e80565b5f600884815481106134c6576134c6617eae565b905f5260205f2090601102019050806003015442101561351b5760405162461bcd60e51b815260206004820152601060248201526f5061796f757420746f6f206561726c7960801b6044820152606401610e7f565b5f5b600a8201548110156135c85781600d015f83600a01838154811061354357613543617eae565b5f9182526020808320909101546001600160a01b0316835282019290925260400190205460ff166135c05760405162461bcd60e51b815260206004820152602160248201527f416c6c206d656d62657273206d75737420636f6e7472696275746520666972736044820152601d60fa1b6064820152608401610e7f565b60010161351d565b506009810154610fac9085906001600160a01b031661690b565b5f5f6135ec616bf5565b546001600160a01b031692915050565b60085460609082106136205760405162461bcd60e51b8152600401610e7f90617e80565b6009545f90815b8181101561366e57846009828154811061364357613643617eae565b905f5260205f20906006020160010154036136665782613662816181d0565b9350505b600101613627565b505f826001600160401b0381111561368857613688617be2565b6040519080825280602002602001820160405280156136f557816020015b6136e26040518060c001604052805f81526020015f81526020015f6001600160a01b031681526020015f81526020015f81526020015f81525090565b8152602001906001900390816136a65790505b5090505f805b838110156137d257866009828154811061371757613717617eae565b905f5260205f20906006020160010154036137ca576009818154811061373f5761373f617eae565b5f9182526020918290206040805160c08101825260069093029091018054835260018101549383019390935260028301546001600160a01b031690820152600382015460608201526004820154608082015260059091015460a082015283518490849081106137b0576137b0617eae565b602002602001018190525081806137c6906181d0565b9250505b6001016136fb565b509095945050505050565b5f5f5f5f5f5f5f5f5f6008805490508a1061380a5760405162461bcd60e51b8152600401610e7f90617e80565b5f60088b8154811061381e5761381e617eae565b905f5260205f20906011020190508060010154816002015482600301548360060154846007015485600a0180549050866010015f9054906101000a900460ff168760100160019054906101000a900460ff16886008015f9054906101000a90046001600160a01b0316995099509950995099509950995099509950509193959799909294969850565b6008545f9082106138ca5760405162461bcd60e51b8152600401610e7f90617e80565b5f600883815481106138de576138de617eae565b905f5260205f209060110201905080600b01805490505f0361390257505f92915050565b600b81015460068201545f919061391b9060019061816f565b6139259190618201565b905081600b01818154811061393c5761393c617eae565b5f918252602090912001546001600160a01b0316949350505050565b613960615220565b613968616509565b6004805460405163c187645360e01b81526001600160a01b039091169163c18764539161399791859101617a61565b602060405180830381865afa1580156139b2573d5f5f3e3d5ffd5b505050506040513d601f19601f820116820180604052508101906139d69190617fc3565b6139f25760405162461bcd60e51b8152600401610e7f906181a5565b6004805460405163224a5bbb60e21b81525f926001600160a01b03909216916389296eec91613a2591339187910161812e565b602060405180830381865afa158015613a40573d5f5f3e3d5ffd5b505050506040513d601f19601f82011682018060405250810190613a649190618117565b90505f8111613aae5760405162461bcd60e51b81526020600482015260166024820152754e6f20736176696e677320746f20776974686472617760501b6044820152606401610e7f565b613ab661453f565b15613b1b5760405162461bcd60e51b815260206004820152602f60248201527f43616e6e6f74207573652074686973206d6574686f6420647572696e6720776960448201526e746864726177616c2077696e646f7760881b6064820152608401610e7f565b600554604051630712f6b360e01b81525f916001600160a01b031690630712f6b390613b4b908690600401617a61565b602060405180830381865afa158015613b66573d5f5f3e3d5ffd5b505050506040513d601f19601f82011682018060405250810190613b8a9190618117565b60048054604051633c83618d60e21b81529293505f926001600160a01b039091169163f20d863491613bbe91889101617a61565b602060405180830381865afa158015613bd9573d5f5f3e3d5ffd5b505050506040513d601f19601f82011682018060405250810190613bfd9190618117565b90505f81613c0b8486618100565b613c15919061815c565b9050613c2081616c19565b613c2c3386865f615ec7565b60055460405163ad9b3af760e01b81525f916001600160a01b03169063ad9b3af790613c6090899086903090600401618182565b6020604051808303815f875af1158015613c7c573d5f5f3e3d5ffd5b505050506040513d601f19601f82011682018060405250810190613ca09190618117565b90505f6064613cb0836005618100565b613cba919061815c565b90505f613cc7828461816f565b9050613cdd6001600160a01b0389163383615aac565b613cf9613ce86135e2565b6001600160a01b038a169084615aac565b6040518481526001600160a01b0389169033907fdce5c7d66e4e795ddd685f9eb652842118305d498916e480399e467eb025af379060200160405180910390a3505050505050506117a1615482565b613d50615b04565b61249e616d26565b60085481908110613d7b5760405162461bcd60e51b8152600401610e7f90617e80565b336001600160a01b031660088281548110613d9857613d98617eae565b5f9182526020909120600860119092020101546001600160a01b031614613dd15760405162461bcd60e51b8152600401610e7f90618084565b6008548210613df25760405162461bcd60e51b8152600401610e7f90617e80565b5f60088381548110613e0657613e06617eae565b5f9182526020909120601190910201601081015490915060ff1615613e3d5760405162461bcd60e51b8152600401610e7f9061802f565b600a810154600b820154148015613e575750600a81015415155b613e9a5760405162461bcd60e51b815260206004820152601460248201527314185e5bdd5d081bdc99195c881b9bdd081cd95d60621b6044820152606401610e7f565b42600282018190556004820154613eb091618071565b600382015560108101805460ff1916600117905560405183905f5160206185545f395f51905f52905f90a2505050565b60085483908110613f035760405162461bcd60e51b8152600401610e7f90617e80565b336001600160a01b031660088281548110613f2057613f20617eae565b5f9182526020909120600860119092020101546001600160a01b031614613f595760405162461bcd60e51b8152600401610e7f90618084565b6008548410613f7a5760405162461bcd60e51b8152600401610e7f90617e80565b5f60088581548110613f8e57613f8e617eae565b5f9182526020909120601190910201601081015490915060ff1615613fc55760405162461bcd60e51b8152600401610e7f9061802f565b600a81015483146140165760405162461bcd60e51b815260206004820152601b60248201527a092dcecc2d8d2c840e0c2f2deeae840dee4c8cae440d8cadccee8d602b1b6044820152606401610e7f565b5f5b83811015614157575f85858381811061403357614033617eae565b90506020020160208101906140489190617b7f565b905061405487826146e3565b61409d5760405162461bcd60e51b815260206004820152601a60248201527920b2323932b9b9903737ba10309033b937bab81036b2b6b132b960311b6044820152606401610e7f565b5f6140a9836001618071565b90505b8581101561414d578686828181106140c6576140c6617eae565b90506020020160208101906140db9190617b7f565b6001600160a01b0316826001600160a01b0316036141455760405162461bcd60e51b815260206004820152602160248201527f4475706c6963617465206164647265737320696e207061796f7574206f7264656044820152603960f91b6064820152608401610e7f565b6001016140ac565b5050600101614018565b50614165600b82015f617947565b5f5b838110156141d15781600b0185858381811061418557614185617eae565b905060200201602081019061419a9190617b7f565b8154600180820184555f93845260209093200180546001600160a01b0319166001600160a01b039290921691909117905501614167565b50845f5160206185745f395f51905f5285856040516141f1929190618214565b60405180910390a25050505050565b614208615b04565b6004805460405163c187645360e01b81526001600160a01b039091169163c18764539161423791859101617a61565b602060405180830381865afa158015614252573d5f5f3e3d5ffd5b505050506040513d601f19601f820116820180604052508101906142769190617fc3565b6142925760405162461bcd60e51b8152600401610e7f906181a5565b6004805460405163083ee56f60e01b81525f926001600160a01b039092169163083ee56f916142c391869101617a61565b602060405180830381865afa1580156142de573d5f5f3e3d5ffd5b505050506040513d601f19601f820116820180604052508101906143029190618256565b6005546040516370a0823160e01b81529192505f916001600160a01b03808516926370a08231926143399290911690600401617a61565b602060405180830381865afa158015614354573d5f5f3e3d5ffd5b505050506040513d601f19601f820116820180604052508101906143789190618117565b9050826001600160a01b0316336001600160a01b03167ffc1ec46aae79fbb3f8570a4e75012d5aa304184152e1b97ec06405010f70874c836040516143bf91815260200190565b60405180910390a360055460405163ad9b3af760e01b81525f916001600160a01b03169063ad9b3af7906143fb90879086903390600401618182565b6020604051808303815f875af1158015614417573d5f5f3e3d5ffd5b505050506040513d601f19601f820116820180604052508101906133899190618117565b614443615b04565b600182905560028190556040517f9d8659d64fcfd436fe4bbdd36fe183bcca85a79dd479451fc1eb7dcbfb914b7d9061447f9084908490617eef565b60405180910390a15050565b6008545f9082106144ae5760405162461bcd60e51b8152600401610e7f90617e80565b5f600883815481106144c2576144c2617eae565b5f9182526020822060119091020191505b600a8201548110156145355781600d015f83600a0183815481106144f9576144f9617eae565b5f9182526020808320909101546001600160a01b0316835282019290925260400190205460ff1661452d57505f9392505050565b6001016144d3565b5060019392505050565b5f5f5f5f61454c42616d4b565b9250925092505f82600114806145625750826003145b8061456d5750826005145b806145785750826007145b806145835750826008145b8061458e575082600a145b80614599575082600c145b156145a65750601f61461e565b82600414806145b55750826006145b806145c05750826009145b806145cb575082600b145b156145d85750601e61461e565b6145e3600485618201565b1580156145f957506145f6606485618201565b15155b8061460d575061460b61019085618201565b155b1561461a5750601d61461e565b50601c5b61462960028261816f565b82101594505050505090565b61463d615b04565b6001600160a01b0381166146885760405162461bcd60e51b815260206004820152601260248201527124b73b30b634b21031b7b73a3937b63632b960711b6044820152606401610e7f565b600e546040516001600160a01b038084169216907f7fd36e80e8f3c5380f5057403bd046f0a36b96e84f573554ffaba7023671d39c905f90a3600e80546001600160a01b0319166001600160a01b0392909216919091179055565b6008545f9083106147065760405162461bcd60e51b8152600401610e7f90617e80565b5f6008848154811061471a5761471a617eae565b5f9182526020822060119091020191505b600a82015481101561478257836001600160a01b031682600a01828154811061475657614756617eae565b5f918252602090912001546001600160a01b03160361477a57600192505050611213565b60010161472b565b505f949350505050565b5f614795616ee9565b805490915060ff600160401b82041615906001600160401b03165f811580156147bb5750825b90505f826001600160401b031660011480156147d65750303b155b9050811580156147e4575080155b156148025760405163f92ee8a960e01b815260040160405180910390fd5b84546001600160401b0319166001178555831561482b57845460ff60401b1916600160401b1785555b614833616f11565b61483b616f21565b61484486616f29565b61484c616f21565b683635c9adc5dea00000600190815561012c600255600480546001600160a01b03808c166001600160a01b03199283161790925560058054928b1692909116919091179055600d6020527f548ee6a02cd6ec760a90d6bc654234b790eb0699b79ed123e680323b84fcbd0c805460ff1990811683179091557f612a94d54aa18a5bf7f97170fb3956038457a26df2723ed55b50d42eee9cd3de80548216831790557348065fbbe25f71c9282ddf5e1cd6d6a887483d5e5f527fc2a20b5d83287003f9a385a7bcdc6b6b212b73b96637b2e756948f9ebe9d9e6980549091169091179055831561497557845460ff60401b19168555604051600181527fc7f505b2f371ae2175ee4913f4499e1f2633a7b5936321eed1cdaeb6115181d29060200160405180910390a15b5050505050505050565b6004805460405163c187645360e01b81525f926001600160a01b039092169163c1876453916149b091869101617a61565b602060405180830381865afa158015612d9d573d5f5f3e3d5ffd5b6008545f908190815b81811015614a3b576149e681876146e3565b15614a3357600881815481106149fe576149fe617eae565b5f91825260208083206001600160a01b038a168452600e6011909302019190910190526040902054614a309084618071565b92505b6001016149d4565b5090949350505050565b606060045f9054906101000a90046001600160a01b03166001600160a01b031663d3c7c2c76040518163ffffffff1660e01b81526004015f60405180830381865afa158015614a96573d5f5f3e3d5ffd5b505050506040513d5f823e601f3d908101601f19168201604052614abd9190810190617f92565b905090565b6004805460405163c187645360e01b81525f926001600160a01b039092169163c187645391614af391869101617a61565b602060405180830381865afa158015614b0e573d5f5f3e3d5ffd5b505050506040513d601f19601f82011682018060405250810190614b329190617fc3565b614b4e5760405162461bcd60e51b8152600401610e7f906181a5565b6004805460405163224a5bbb60e21b81526001600160a01b03909116916389296eec91612d0991879187910161812e565b6008546060908210614ba35760405162461bcd60e51b8152600401610e7f90617e80565b60088281548110614bb657614bb6617eae565b905f5260205f209060110201600b0180548060200260200160405190810160405280929190818152602001828054801561236a57602002820191905f5260205f209081546001600160a01b0316815260019091019060200180831161234c5750505050509050919050565b6004805460405163224a5bbb60e21b81525f9283926001600160a01b0316916389296eec91614c5491889188910161812e565b602060405180830381865afa158015614c6f573d5f5f3e3d5ffd5b505050506040513d601f19601f82011682018060405250810190614c939190618117565b6001600160a01b038086165f908152600c6020908152604080832093881683529290522054909150808211614cc8575f61248d565b61248d818361816f565b6004805460405163e76a812960e01b81525f926001600160a01b039092169163e76a812991612d0991879187910161812e565b60048054604051633c83618d60e21b81525f926001600160a01b039092169163f20d8634916124d991869101617a61565b614d3e615b04565b6001600160a01b038116614d67575f604051631e4fbdf760e01b8152600401610e7f9190617a61565b6117a18161676d565b614d78615220565b614d80616509565b6004805460405163c187645360e01b81526001600160a01b039091169163c187645391614daf91869101617a61565b602060405180830381865afa158015614dca573d5f5f3e3d5ffd5b505050506040513d601f19601f82011682018060405250810190614dee9190617fc3565b614e0a5760405162461bcd60e51b8152600401610e7f906181a5565b5f8111614e595760405162461bcd60e51b815260206004820152601d60248201527f416d6f756e74206d7573742062652067726561746572207468616e20300000006044820152606401610e7f565b614e6161453f565b614ec35760405162461bcd60e51b815260206004820152602d60248201527f43616e6e6f74207769746864726177206f75747369646520746865207769746860448201526c64726177616c2077696e646f7760981b6064820152608401610e7f565b600554604051630712f6b360e01b81525f916001600160a01b031690630712f6b390614ef3908690600401617a61565b602060405180830381865afa158015614f0e573d5f5f3e3d5ffd5b505050506040513d601f19601f82011682018060405250810190614f329190618117565b60048054604051633c83618d60e21b81529293505f926001600160a01b039091169163f20d863491614f6691889101617a61565b602060405180830381865afa158015614f81573d5f5f3e3d5ffd5b505050506040513d601f19601f82011682018060405250810190614fa59190618117565b90505f8111614fe85760405162461bcd60e51b815260206004820152600f60248201526e139bc81cda185c995cc8195e1a5cdd608a1b6044820152606401610e7f565b5f82600181614ff78588618100565b6150019190618071565b61500b919061816f565b615015919061815c565b6004805460405163224a5bbb60e21b81529293505f926001600160a01b03909116916389296eec9161504b9133918b910161812e565b602060405180830381865afa158015615066573d5f5f3e3d5ffd5b505050506040513d601f19601f8201168201806040525081019061508a9190618117565b9050818110156150d35760405162461bcd60e51b8152602060048201526014602482015273496e73756666696369656e742062616c616e636560601b6044820152606401610e7f565b6150dc85616c19565b6150e83387845f615ec7565b60055460405163ad9b3af760e01b81525f916001600160a01b03169063ad9b3af79061511c908a908a903390600401618182565b6020604051808303815f875af1158015615138573d5f5f3e3d5ffd5b505050506040513d601f19601f8201168201806040525081019061515c9190618117565b90508581146151a95760405162461bcd60e51b81526020600482015260196024820152780aed2e8d0c8e4c2eedc40c2dadeeadce840dad2e6dac2e8c6d603b1b6044820152606401610e7f565b866001600160a01b0316336001600160a01b03167f6562355720ad5e9816350753de199edab487334dc9b97f1b15e35e1907ca7ed58886604051612808929190617eef565b6151f6615b04565b6001600160a01b03919091165f908152600d60205260409020805460ff1916911515919091179055565b5f615229616f3a565b80549091506001190161524f57604051633ee5aeb560e01b815260040160405180910390fd5b60029055565b5f6008838154811061526957615269617eae565b5f918252602082206001601190920201908101546009820154919350919061529a906001600160a01b031683612376565b6001600160a01b038086165f908152600c602090815260408083206009890154909416835292905220549091508111156152e65760405162461bcd60e51b8152600401610e7f90618271565b60098301546153019085906001600160a01b03168784615d52565b600983015461531c9085906001600160a01b0316835f615ec7565b60098301546153389030906001600160a01b0316836001615ec7565b60098301546001600160a01b03165f908152600a602052604081208054849290615363908490618071565b90915550505f858152600b602090815260408083206001600160a01b03881684528252808320429055600c8601909152812080548492906153a5908490618071565b90915550506001600160a01b0384165f908152600e84016020526040812080548492906153d3908490618071565b90915550506001600160a01b0384165f818152600d8501602052604090819020805460ff191660011790555186905f5160206185d45f395f51905f529061541d9086815260200190565b60405180910390a3836001600160a01b0316857f7a09bc0f90d51d14fdbf93189467bb59ee86089f741df1d1df5c4badcab53d308460405161546191815260200190565b60405180910390a360098301546133899086906001600160a01b031661681c565b5f61548b616f3a565b6001905550565b600e546001600160a01b03166154a6575050565b6001600160a01b0381165f908152600f602090815260408083208054825181850281018501909352808352919290919083018282801561550d57602002820191905f5260205f20905b81546001600160a01b031681526001909101906020018083116154ef575b5050505050905080515f0361552157505050565b60048054604051633c83618d60e21b81525f926001600160a01b039092169163f20d86349161555291879101617a61565b602060405180830381865afa15801561556d573d5f5f3e3d5ffd5b505050506040513d601f19601f820116820180604052508101906155919190618117565b6040805160018082528183019092529192505f91906020808301908036833750506004805460405163083ee56f60e01b81529394506001600160a01b03169263083ee56f92506155e391889101617a61565b602060405180830381865afa1580156155fe573d5f5f3e3d5ffd5b505050506040513d601f19601f820116820180604052508101906156229190618256565b815f8151811061563457615634617eae565b6001600160a01b039283166020918202929092010152600554600e54604051632b70a16560e11b81525f9384938116926356e142ca9261567f929190911690879030906004016182a2565b5f604051808303815f875af115801561569a573d5f5f3e3d5ffd5b505050506040513d5f823e601f3d908101601f191682016040526156c191908101906182dd565b909250905083156157d8575f5b82518110156157d6575f8382815181106156ea576156ea617eae565b602002602001015190505f83838151811061570757615707617eae565b602090810291909101015190505f805b895181101561576357836001600160a01b03168a828151811061573c5761573c617eae565b60200260200101516001600160a01b03160361575b5760019150615763565b600101615717565b5080801561577057505f82115b156157cb578761578564e8d4a5100084618100565b61578f919061815c565b6001600160a01b03808c165f908152601060209081526040808320938816835292905290812080549091906157c5908490618071565b90915550505b5050506001016156ce565b505b6001600160a01b03871615615aa3576004805460405163224a5bbb60e21b81525f926001600160a01b03909216916389296eec9161581a918c918c910161812e565b602060405180830381865afa158015615835573d5f5f3e3d5ffd5b505050506040513d601f19601f820116820180604052508101906158599190618117565b90508015615a40575f5b8651811015615a3a575f87828151811061587f5761587f617eae565b602002602001015190505f60105f8b6001600160a01b03166001600160a01b031681526020019081526020015f205f836001600160a01b03166001600160a01b031681526020019081526020015f205490505f60115f8d6001600160a01b03166001600160a01b031681526020019081526020015f205f8c6001600160a01b03166001600160a01b031681526020019081526020015f205f846001600160a01b03166001600160a01b031681526020019081526020015f205490505f8164e8d4a51000848861594e9190618100565b615958919061815c565b615962919061816f565b905080156159a6576001600160a01b03808e165f908152601260209081526040808320938816835292905290812080548392906159a0908490618071565b90915550505b64e8d4a510006159b68488618100565b6159c0919061815c565b60115f8f6001600160a01b03166001600160a01b031681526020019081526020015f205f8e6001600160a01b03166001600160a01b031681526020019081526020015f205f866001600160a01b03166001600160a01b031681526020019081526020015f2081905550505050508080600101915050615863565b50614975565b5f5b8651811015615aa0575f878281518110615a5e57615a5e617eae565b6020908102919091018101516001600160a01b03808d165f9081526011845260408082208e841683528552808220929093168152925281205550600101615a42565b50505b50505050505050565b610fb583846001600160a01b031663a9059cbb8585604051602401615ad29291906181e8565b604051602081830303815290604052915060e01b6020820180516001600160e01b038381831617835250505050616f5e565b33615b0d6135e2565b6001600160a01b0316146124a6573360405163118cdaa760e01b8152600401610e7f9190617a61565b5f615b42600583618100565b90505f615b4f8483612376565b905080615b5c8686614c21565b1015615b7a5760405162461bcd60e51b8152600401610e7f90618271565b615b8685858884616fc1565b505050505050565b5f60088281548110615ba257615ba2617eae565b905f5260205f209060110201905080600b01805490505f03615c2c575f5b600a820154811015615c265781600b0182600a018281548110615be557615be5617eae565b5f918252602080832090910154835460018181018655948452919092200180546001600160a01b0319166001600160a01b0390921691909117905501615bc0565b50615c9a565b600b8101545b600a820154811015615c985781600b0182600a018281548110615c5757615c57617eae565b5f918252602080832090910154835460018181018655948452919092200180546001600160a01b0319166001600160a01b0390921691909117905501615c32565b505b815f5160206185745f395f51905f5282600b01604051615cba919061839b565b60405180910390a25050565b5f5f60088481548110615cdb57615cdb617eae565b5f9182526020822060119091020191505b600b82015481101561478257836001600160a01b031682600b018281548110615d1757615d17617eae565b5f918252602090912001546001600160a01b031603615d4a57615d3b816001618071565b82600601541192505050611213565b600101615cec565b6001600160a01b038085165f908152600c60209081526040808320938716835292905220548111615dbe576001600160a01b038085165f908152600c6020908152604080832093871683529290529081208054839290615db390849061816f565b90915550615de69050565b6001600160a01b038085165f908152600c602090815260408083209387168352929052908120555b8060088381548110615dfa57615dfa617eae565b5f91825260208083206001600160a01b0389168452600f601190930201919091019052604090205410615e84578060088381548110615e3b57615e3b617eae565b905f5260205f209060110201600f015f866001600160a01b03166001600160a01b031681526020019081526020015f205f828254615e79919061816f565b90915550615ec19050565b5f60088381548110615e9857615e98617eae565b5f91825260208083206001600160a01b0389168452600f60119093020191909101905260409020555b50505050565b615ed18484615492565b60048054604051637bf32b6760e11b81526001600160a01b038781169382019390935285831660248201526044810185905283151560648201525f929091169063f7e656ce906084016020604051808303815f875af1158015615f36573d5f5f3e3d5ffd5b505050506040513d601f19601f82011682018060405250810190615f5a9190617fc3565b905080615fb35760405162461bcd60e51b815260206004820152602160248201527f4661696c656420746f20757064617465207573657220746f6b656e20736861726044820152606560f81b6064820152608401610e7f565b6001600160a01b0384165f908152600f602090815260408083208054825181850281018501909352808352919290919083018282801561601a57602002820191905f5260205f20905b81546001600160a01b03168152600190910190602001808311615ffc575b505050505090505f81511115615b86576004805460405163224a5bbb60e21b81525f926001600160a01b03909216916389296eec9161605d918b918b910161812e565b602060405180830381865afa158015616078573d5f5f3e3d5ffd5b505050506040513d601f19601f8201168201806040525081019061609c9190618117565b90505f5b8251811015614975575f8382815181106160bc576160bc617eae565b6020908102919091018101516001600160a01b03808b165f9081526010845260408082209284168252919093529091205490915064e8d4a510006161008286618100565b61610a919061815c565b6001600160a01b03808c165f9081526011602090815260408083208e8516845282528083209690931682529490945290922091909155506001016160a0565b5f6008838154811061615d5761615d617eae565b5f9182526020822060119091020191505b600a82015481101561628957826001600160a01b031682600a01828154811061619957616199617eae565b5f918252602090912001546001600160a01b03160361628157805b600a8301546161c59060019061816f565b81101561624857600a83016161db826001618071565b815481106161eb576161eb617eae565b5f91825260209091200154600a840180546001600160a01b03909216918390811061621857616218617eae565b5f91825260209091200180546001600160a01b0319166001600160a01b03929092169190911790556001016161b4565b5081600a0180548061625c5761625c6183de565b5f8281526020902081015f1990810180546001600160a01b0319169055019055616289565b60010161616e565b505f5b600b8201548110156163a757826001600160a01b031682600b0182815481106162b7576162b7617eae565b5f918252602090912001546001600160a01b03160361639f57805b600b8301546162e39060019061816f565b81101561636657600b83016162f9826001618071565b8154811061630957616309617eae565b5f91825260209091200154600b840180546001600160a01b03909216918390811061633657616336617eae565b5f91825260209091200180546001600160a01b0319166001600160a01b03929092169190911790556001016162d2565b5081600b0180548061637a5761637a6183de565b5f8281526020902081015f1990810180546001600160a01b03191690550190556163a7565b60010161628c565b506001600160a01b039091165f908152600c820160209081526040808320839055600d84018252808320805460ff19169055600e90930190529081205550565b5f5f836001600160a01b031663313ce5676040518163ffffffff1660e01b8152600401602060405180830381865afa158015616425573d5f5f3e3d5ffd5b505050506040513d601f19601f8201168201806040525081019061644991906183f2565b90508060ff1660120361645f5782915050611213565b60128160ff16101561649357616476816012618412565b61648190600a61850e565b61648b908461815c565b915050611213565b61649e601282618412565b6164a990600a61850e565b61648b9084618100565b6164bb616d26565b5f6164c4616710565b805460ff1916815590507f5db9ee0a495bf2e6ff9c91a7834c1ba4fdd244a5e8aa4e537bd38aeae4b073aa335b6040516164fe9190617a61565b60405180910390a150565b616511612cb1565b156124a65760405163d93c066560e01b815260040160405180910390fd5b6040516001600160a01b038481166024830152838116604483015260648201839052615ec19186918216906323b872dd90608401615ad2565b306001600160a01b037f00000000000000000000000000000000000000000000000000000000000000001614806165ee57507f00000000000000000000000000000000000000000000000000000000000000006001600160a01b03166165e25f5160206185b45f395f51905f52546001600160a01b031690565b6001600160a01b031614155b156124a65760405163703e46dd60e11b815260040160405180910390fd5b6117a1615b04565b816001600160a01b03166352d1902d6040518163ffffffff1660e01b8152600401602060405180830381865afa92505050801561666e575060408051601f3d908101601f1916820190925261666b91810190618117565b60015b61668d5781604051634c9c8ce360e01b8152600401610e7f9190617a61565b5f5160206185b45f395f51905f5281146166bd57604051632a87526960e21b815260048101829052602401610e7f565b610fb58383617012565b306001600160a01b037f000000000000000000000000000000000000000000000000000000000000000016146124a65760405163703e46dd60e11b815260040160405180910390fd5b7fcd5ed15c6e187e77e9aee88184c21f4f2182ab5827cb3b7e07fbedcd63f0330090565b61673c6168c5565b7f9a67283e259b60ad992613fe36fe808ce9a65fc69b7893a856fbe5f926f2518481426040516164fe92919061851c565b5f616776616bf5565b80546001600160a01b038481166001600160a01b031983168117845560405193945091169182907f8be0079c531659141344cd1fd0a4f28419497f9722a3daafe3b4186f6b6457e0905f90a3505050565b5f6167d28383612376565b90505f600885815481106167e8576167e8617eae565b5f9182526020808320338452600f601190930201918201905260409091205490915082116133895761338933858785615d52565b5f6008838154811061683057616830617eae565b905f5260205f2090601102019050806003015442101561684f57505050565b60015f5b600a8301548110156168b45782600d015f84600a01838154811061687957616879617eae565b5f9182526020808320909101546001600160a01b0316835282019290925260400190205460ff166168ac575f91506168b4565b600101616853565b508015615ec157615ec1848461690b565b6168cd616509565b5f6168d6616710565b805460ff1916600117815590507f62e78cea01bee320cd4e420270b5ea74000d11b0c9f74754ebdbfc544b05a2586164f13390565b5f6008838154811061691f5761691f617eae565b5f91825260208220600a60119092020190810154600182015491935061694491618100565b90505f5f6169528584617067565b915091505f84600b018054905060018660060154616970919061816f565b61697a9190618201565b90505f85600b01828154811061699257616992617eae565b5f9182526020909120015460055460405163ad9b3af760e01b81526001600160a01b03928316935091169063ad9b3af7906169d5908a9088903090600401618182565b6020604051808303815f875af11580156169f1573d5f5f3e3d5ffd5b505050506040513d601f19601f82011682018060405250810190616a159190618117565b508215616a2757616a2788888561725e565b616a3b6001600160a01b0388168287615aac565b616a4687858761742e565b6040805160c0810182526007548152602081018a81526001600160a01b03848116838501818152606085018b8152426080870190815260068e8101805460a08a01908152600980546001810182555f9190915299517f6e1540171b6c0c960b71a7020d9f60077f6af931a8bbf590da0223dacf75c7af9a909302998a019290925596517f6e1540171b6c0c960b71a7020d9f60077f6af931a8bbf590da0223dacf75c7b089015592517f6e1540171b6c0c960b71a7020d9f60077f6af931a8bbf590da0223dacf75c7b1880180546001600160a01b0319169190961617909455517f6e1540171b6c0c960b71a7020d9f60077f6af931a8bbf590da0223dacf75c7b286015591517f6e1540171b6c0c960b71a7020d9f60077f6af931a8bbf590da0223dacf75c7b385015590517f6e1540171b6c0c960b71a7020d9f60077f6af931a8bbf590da0223dacf75c7b49093019290925554915190918a917f9855065419f7dab68a92d0ec83da9f1e50736415843c7849733eed78ce0c136091616bd0918a9190617eef565b60405180910390a360078054905f616be7836181d0565b91905055506149758861762e565b7f9016d09d72d40fdae2fd8ceac6b6234c7706214fd39c1cd1e609a0528c19930090565b6001548110616c7d5760405162461bcd60e51b815260206004820152602a60248201527f4369726375697420427265616b65723a204c61726765207769746864726177616044820152691b0819195d1958dd195960b21b6064820152608401610e7f565b335f9081526003602052604090205415801590616cb35750600254335f90815260036020526040902054616cb1904261816f565b105b15616d125760405162461bcd60e51b815260206004820152602960248201527f4369726375697420427265616b65723a205769746864726177616c7320746f6f60448201526808199c995c5d595b9d60ba1b6064820152608401610e7f565b50335f908152600360205260409020429055565b616d2e612cb1565b6124a657604051638dfc202b60e01b815260040160405180910390fd5b5f808080616d5c620151808661815c565b616d6990620afa6c618071565b90505f616d7962023ab18361815c565b90505f616d898262023ab1618100565b616d93908461816f565b90505f61016d616da662023ab08461815c565b616db2618eac8561815c565b616dbe6105b48661815c565b616dc8908661816f565b616dd29190618071565b616ddc919061816f565b616de6919061815c565b9050616df483610190618100565b616dfe9082618071565b96505f616e0c60648361815c565b616e1760048461815c565b616e238461016d618100565b616e2d9190618071565b616e37919061816f565b616e41908461816f565b90505f6099616e51836005618100565b616e5c906002618071565b616e66919061815c565b90506005616e75826099618100565b616e80906002618071565b616e8a919061815c565b616e94908361816f565b616e9f906001618071565b9650600a8110616eb957616eb460098261816f565b616ec4565b616ec4816003618071565b975060028811616edc5788616ed8816181d0565b9950505b5050505050509193909250565b5f807ff0c57e16840df040f15088dc2f81fe391c3923bec73e23a9662efc9c229c6a00611213565b616f19617798565b6124a66177bd565b6124a6617798565b616f31617798565b6117a1816177c5565b7f9b779b17422d0df92223018b32b4d1fa46e071723d6817e2486d003becc55f0090565b5f5f60205f8451602086015f885af180616f7d576040513d5f823e3d81fd5b50505f513d91508115616f94578060011415616fa1565b6001600160a01b0384163b155b15615ec15783604051635274afe760e01b8152600401610e7f9190617a61565b6001600160a01b038085165f908152600c6020908152604080832093871683529290529081208054839290616ff7908490618071565b925050819055508060088381548110615e9857615e98617eae565b61701b826177cd565b6040516001600160a01b038316907fbc7cd75a20ee27fd9adebab32041f755214dbc6bffa90cc0225b39da2e5c2d3b905f90a280511561705f57610fb58282617827565b611197617890565b600554604051630712f6b360e01b81525f91829182916001600160a01b031690630712f6b39061709b908890600401617a61565b602060405180830381865afa1580156170b6573d5f5f3e3d5ffd5b505050506040513d601f19601f820116820180604052508101906170da9190618117565b60048054604051633c83618d60e21b81529293505f926001600160a01b039091169163f20d86349161710e918a9101617a61565b602060405180830381865afa158015617129573d5f5f3e3d5ffd5b505050506040513d601f19601f8201168201806040525081019061714d9190618117565b6004805460405163224a5bbb60e21b81529293505f926001600160a01b03909116916389296eec916171839130918c910161812e565b602060405180830381865afa15801561719e573d5f5f3e3d5ffd5b505050506040513d601f19601f820116820180604052508101906171c29190618117565b90505f5f83116171d2575f6171e7565b826171dd8584618100565b6171e7919061815c565b6001600160a01b0389165f908152600a602052604090205490915061720c5786617238565b6001600160a01b0388165f908152600a602052604090205461722e8883618100565b617238919061815c565b9550868611617247575f617251565b617251878761816f565b9450505050509250929050565b5f6008848154811061727257617272617eae565b5f9182526020822060119091020191504290805b600a840154811015617310575f84600a0182815481106172a8576172a8617eae565b5f9182526020808320909101548a8352600b825260408084206001600160a01b039092168085529190925290822054909250908186116172e95760016172f3565b6172f3828761816f565b90506172ff8186618071565b945050600190920191506172869050565b508015615b86575f5b600a840154811015615aa3575f84600a01828154811061733b5761733b617eae565b5f9182526020808320909101548a8352600b825260408084206001600160a01b0390921680855291909252908220549092509081861161737c576001617386565b617386828761816f565b90505f85617394838b618100565b61739e919061815c565b905080156173ff576173ba6001600160a01b038b168583615aac565b836001600160a01b03168b7f3d325f4e841722a9f4e4ce5f537d0d2f343d5b547f8f9a26dd7b495a0c3b968e836040516173f691815260200190565b60405180910390a35b5050505f888152600b602090815260408083206001600160a01b03909416835292905290812055600101617319565b600554604051630712f6b360e01b81525f916001600160a01b031690630712f6b39061745e908790600401617a61565b602060405180830381865afa158015617479573d5f5f3e3d5ffd5b505050506040513d601f19601f8201168201806040525081019061749d9190618117565b60048054604051633c83618d60e21b81529293505f926001600160a01b039091169163f20d8634916174d191899101617a61565b602060405180830381865afa1580156174ec573d5f5f3e3d5ffd5b505050506040513d601f19601f820116820180604052508101906175109190618117565b6004805460405163224a5bbb60e21b81529293505f926001600160a01b03909116916389296eec916175469130918b910161812e565b602060405180830381865afa158015617561573d5f5f3e3d5ffd5b505050506040513d601f19601f820116820180604052508101906175859190618117565b90505f5f8411617595575f6175aa565b836175a08488618100565b6175aa919061815c565b9050818111156175b75750805b6175c33088835f615ec7565b6001600160a01b0387165f908152600a602052604090205485106175e7575f61760a565b6001600160a01b0387165f908152600a602052604090205461760a90869061816f565b6001600160a01b039097165f908152600a6020526040902096909655505050505050565b5f6008828154811061764257617642617eae565b5f9182526020822060119091020191505b600a82015481101561773b575f82600d015f84600a01848154811061767a5761767a617eae565b5f918252602080832091909101546001600160a01b031683528201929092526040018120805460ff191692151592909217909155600a83018054600c8501918391859081106176cb576176cb617eae565b5f9182526020808320909101546001600160a01b03168352820192909252604001812091909155600a83018054600e85019183918590811061770f5761770f617eae565b5f9182526020808320909101546001600160a01b03168352820192909252604001902055600101617653565b50600681018054905f61774d836181d0565b9091555050600a810154600682015411156177805760016006820155600781018054905f61777a836181d0565b91905055505b600481015461778f9042618071565b60039091015550565b6177a06178af565b6124a657604051631afcd79f60e31b815260040160405180910390fd5b615482617798565b614d3e617798565b806001600160a01b03163b5f036177f95780604051634c9c8ce360e01b8152600401610e7f9190617a61565b5f5160206185b45f395f51905f5280546001600160a01b0319166001600160a01b0392909216919091179055565b60605f5f846001600160a01b031684604051617843919061853d565b5f60405180830381855af49150503d805f811461787b576040519150601f19603f3d011682016040523d82523d5f602084013e617880565b606091505b509150915061248d8583836178c8565b34156124a65760405163b398979f60e01b815260040160405180910390fd5b5f6178b8616ee9565b54600160401b900460ff16919050565b6060826178dd576178d88261791e565b617917565b81511580156178f457506001600160a01b0384163b155b156179145783604051639996b31560e01b8152600401610e7f9190617a61565b50805b9392505050565b80511561792e5780518082602001fd5b60405163d6bda27560e01b815260040160405180910390fd5b5080545f8255905f5260205f20908101906117a191905b80821115617971575f815560010161795e565b5090565b6001600160a01b03811681146117a1575f5ffd5b5f5f6040838503121561799a575f5ffd5b8235915060208301356179ac81617975565b809150509250929050565b5f5f604083850312156179c8575f5ffd5b82356179d381617975565b915060208301356179ac81617975565b5f5f83601f8401126179f3575f5ffd5b5081356001600160401b03811115617a09575f5ffd5b6020830191508360208260051b85010111156114f9575f5ffd5b5f5f60208385031215617a34575f5ffd5b82356001600160401b03811115617a49575f5ffd5b617a55858286016179e3565b90969095509350505050565b6001600160a01b0391909116815260200190565b5f5f60408385031215617a86575f5ffd5b50508035926020909101359150565b5f8151808452602084019350602083015f5b82811015617ace5781516001600160a01b0316865260209586019590910190600101617aa7565b5093949350505050565b602081525f6112106020830184617a95565b5f60208284031215617afa575f5ffd5b5035919050565b80151581146117a1575f5ffd5b5f5f5f5f60808587031215617b21575f5ffd5b84359350602085013592506040850135617b3a81617b01565b91506060850135617b4a81617975565b939692955090935050565b5f5f60408385031215617b66575f5ffd5b8235617b7181617975565b946020939093013593505050565b5f60208284031215617b8f575f5ffd5b813561791781617975565b5f5f5f60608486031215617bac575f5ffd5b8335617bb781617975565b92506020840135617bc781617975565b91506040840135617bd781617975565b809150509250925092565b634e487b7160e01b5f52604160045260245ffd5b604051601f8201601f191681016001600160401b0381118282101715617c1e57617c1e617be2565b604052919050565b5f806001600160401b03841115617c3f57617c3f617be2565b50601f8301601f1916602001617c5481617bf6565b915050828152838383011115617c68575f5ffd5b828260208301375f602084830101529392505050565b5f5f60408385031215617c8f575f5ffd5b8235617c9a81617975565b915060208301356001600160401b03811115617cb4575f5ffd5b8301601f81018513617cc4575f5ffd5b617cd385823560208401617c26565b9150509250929050565b5f81518084528060208401602086015e5f602082860101526020601f19601f83011685010191505092915050565b602081525f6112106020830184617cdd565b5f60208284031215617d2d575f5ffd5b81356001600160401b03811115617d42575f5ffd5b8201601f81018413617d52575f5ffd5b61226284823560208401617c26565b5f5f5f60608486031215617d73575f5ffd5b833592506020840135617d8581617975565b929592945050506040919091013590565b602080825282518282018190525f918401906040840190835b818110156137d257835180518452602080820151818601526040808301516001600160a01b031690860152606080830151908601526080808301519086015260a091820151918501919091529093019260c090920191600101617daf565b5f5f5f60408486031215617e1f575f5ffd5b8335925060208401356001600160401b03811115617e3b575f5ffd5b617e47868287016179e3565b9497909650939450505050565b5f5f60408385031215617e65575f5ffd5b8235617e7081617975565b915060208301356179ac81617b01565b60208082526014908201527311dc9bdd5c08191bd95cc81b9bdd08195e1a5cdd60621b604082015260600190565b634e487b7160e01b5f52603260045260245ffd5b60208082526013908201527247726f7570206973206e6f742061637469766560681b604082015260600190565b918252602082015260400190565b5f6001600160401b03821115617f1557617f15617be2565b5060051b60200190565b5f82601f830112617f2e575f5ffd5b8151617f41617f3c82617efd565b617bf6565b8082825260208201915060208360051b860101925085831115617f62575f5ffd5b602085015b83811015617f88578051617f7a81617975565b835260209283019201617f67565b5095945050505050565b5f60208284031215617fa2575f5ffd5b81516001600160401b03811115617fb7575f5ffd5b61226284828501617f1f565b5f60208284031215617fd3575f5ffd5b815161791781617b01565b6020808252600d908201526c11dc9bdd5c081a5cc8199d5b1b609a1b604082015260600190565b60208082526010908201526f20b63932b0b23c90309036b2b6b132b960811b604082015260600190565b60208082526014908201527347726f757020616c72656164792061637469766560601b604082015260600190565b634e487b7160e01b5f52601160045260245ffd5b808201808211156112135761121361805d565b60208082526028908201527f4f6e6c792067726f75702061646d696e2063616e20706572666f726d20746869604082015267399030b1ba34b7b760c11b606082015260800190565b6020808252601a908201527904e6f742061206d656d626572206f6620746869732067726f75760341b604082015260600190565b80820281158282048414176112135761121361805d565b5f60208284031215618127575f5ffd5b5051919050565b6001600160a01b0392831681529116602082015260400190565b634e487b7160e01b5f52601260045260245ffd5b5f8261816a5761816a618148565b500490565b818103818111156112135761121361805d565b6001600160a01b0393841681526020810192909252909116604082015260600190565b6020808252601190820152702ab739bab83837b93a32b2103a37b5b2b760791b604082015260600190565b5f600182016181e1576181e161805d565b5060010190565b6001600160a01b03929092168252602082015260400190565b5f8261820f5761820f618148565b500690565b602080825281018290525f8360408301825b85811015617f8857823561823981617975565b6001600160a01b0316825260209283019290910190600101618226565b5f60208284031215618266575f5ffd5b815161791781617975565b602080825260179082015276125b9cdd59999a58da595b9d0818dbdb1b185d195c985b604a1b604082015260600190565b6001600160a01b03841681526060602082018190525f906182c590830185617a95565b905060018060a01b0383166040830152949350505050565b5f5f604083850312156182ee575f5ffd5b82516001600160401b03811115618303575f5ffd5b61830f85828601617f1f565b602085015190935090506001600160401b0381111561832c575f5ffd5b8301601f8101851361833c575f5ffd5b805161834a617f3c82617efd565b8082825260208201915060208360051b85010192508783111561836b575f5ffd5b6020840193505b8284101561838d578351825260209384019390910190618372565b809450505050509250929050565b602080825282548282018190525f848152918220906040840190835b818110156137d25783546001600160a01b03168352600193840193602090930192016183b7565b634e487b7160e01b5f52603160045260245ffd5b5f60208284031215618402575f5ffd5b815160ff81168114617917575f5ffd5b60ff82811682821603908111156112135761121361805d565b6001815b60018411156184665780850481111561844a5761844a61805d565b600184161561845857908102905b60019390931c92800261842f565b935093915050565b5f8261847c57506001611213565b8161848857505f611213565b816001811461849e57600281146184a8576184c4565b6001915050611213565b60ff8411156184b9576184b961805d565b50506001821b611213565b5060208310610133831016604e8410600b84101617156184e7575081810a611213565b6184f35f19848461842b565b805f19048211156185065761850661805d565b029392505050565b5f61121060ff84168361846e565b604081525f61852e6040830185617cdd565b90508260208301529392505050565b5f82518060208501845e5f92019182525091905056feebefe55be640961855d7fd4e391c743a58d0ee08196320fead0e6d832d33d3b8fe079e5fa34f81453fe4c8457ebcec335238f66f73597bc275282e33d9b4156a78da64a590c3052953ad9e0a5546bbf12bb68ae7634e3fb2a774e22a8c6557c1360894a13ba1a3210667c828492db98dca3e2076cc3735a920a3ca505d382bbc0a4a91237423e0a1766a761c7cb029311d8b95d6b1b81db1b949a70c98b4e08ea264697066735822122088ed1e4b0b6b75f1f010a332807054a8038bed069c24bebf55975ea10029b03d64736f6c634300081e0033","linkReferences":{}},"methodIdentifiers":{"CYCLE_DURATION()":"cd421fbf","EMERGENCY_TIMELOCK()":"60d7442b","MAX_MEMBERS()":"ea0e35b1","MIN_CONTRIBUTION()":"40650c91","MIN_DEPOSIT()":"e1e158a5","REWARD_PRECISION()":"3d6aa5e1","UPGRADE_INTERFACE_VERSION()":"ad3cb1cc","aaveIntegration()":"0d578f78","accRewardPerShare(address,address)":"079abc46","activateThriftGroup(uint256)":"a71f5893","addMemberToPrivateGroup(uint256,address)":"31ad1200","addRewardToken(address,address)":"23cb2390","addSupportedToken(address)":"6d69fcaf","allMembersContributed(uint256)":"b130a6ac","allowedThriftTokens(address)":"a9a9e257","breakTimelock(address)":"a0226686","canWithdraw()":"b51459fe","claimMyRewards(address[])":"0b098ce9","convertToShares(address,uint256)":"3e5541f1","coverDefault(uint256,address)":"072e778f","createThriftGroup(uint256,uint256,bool,address)":"3402c5cf","cycleContributionTime(uint256,address)":"ccdb9cea","deposit(address,uint256)":"47e7ef24","distributePayout(uint256)":"8c91d2dd","emergencyWithdraw(uint256)":"5312ea8e","emergencyWithdrawalAvailableAt()":"12b1deb8","executeEmergencyWithdrawal(address)":"ab59a11e","getBalance(address,address)":"d4fac45d","getCurrentRecipient(uint256)":"9d07fd13","getDisposableBalance(address,address)":"dfd10047","getGroupInfo(uint256)":"99d4360f","getGroupMembers(uint256)":"36cc8130","getGroupPayouts(uint256)":"9814dbdc","getMemberStatus(uint256,address)":"26e98b8b","getPayoutOrder(uint256)":"df7d296c","getSupportedTokens()":"d3c7c2c7","getSupportedTokensWithPagination(uint256,uint256)":"1ad095d8","getTotalShares(address)":"f20d8634","getUserBalance(address,address)":"6805d6ad","getUserDepositTime(address,address)":"e76a8129","getUserDepositTime_Legacy(address)":"45ad76b4","getUserTotalContributed(address,address)":"cdb646b5","initialize(address,address,address)":"c0c53b8b","isGroupMember(uint256,address)":"bfeb5607","isValidToken(address)":"c1876453","joinPublicGroup(uint256)":"2dd33d9e","lastUserWithdrawalTimestamp(address)":"4b9ae0ce","leaveGroup(uint256)":"33471df5","makeContribution(uint256)":"360a2bcb","makeContribution(uint256,address,uint256)":"83ba3ce0","owner()":"8da5cb5b","pause()":"8456cb59","paused()":"5c975abb","payouts(uint256)":"29652e86","proxiableUUID()":"52d1902d","renounceOwnership()":"715018a6","resumeOperations()":"a6e1d016","rewardTokens(address,uint256)":"81a4af15","rewardsController()":"6bb65f53","setAllowedThriftToken(address,bool)":"faf7f018","setPayoutOrder(uint256,address[])":"a73992e4","setRewardsController(address)":"bee36bb3","thriftGroups(uint256)":"2d8c04e9","timeBetweenWithdrawalsThreshold()":"1fdf8b86","tokenStorage()":"b199efb5","totalPayouts()":"4089b170","totalThriftGroups()":"1ae740c9","totalThriftStaked(address)":"619e7abf","transferOwnership(address)":"f2fde38b","triggerCircuitBreaker(string)":"61b242c5","unpause()":"3f4ba83a","updateCircuitBreakerThresholds(uint256,uint256)":"af051e5a","upgradeToAndCall(address,bytes)":"4f1ef286","userLockedShares(address,address)":"4c38da4c","userPendingRewards(address,address)":"591d8a4b","userRewardDebt(address,address,address)":"4bbd506e","version()":"54fd4d50","withdraw(address,uint256)":"f3fef3a3","withdrawalAmountThreshold()":"7dc5bb57"},"id":77}