{"abi":[{"type":"constructor","inputs":[],"stateMutability":"nonpayable"},{"type":"function","name":"CYCLE_DURATION","inputs":[],"outputs":[{"name":"","type":"uint256","internalType":"uint256"}],"stateMutability":"view"},{"type":"function","name":"EMERGENCY_TIMELOCK","inputs":[],"outputs":[{"name":"","type":"uint256","internalType":"uint256"}],"stateMutability":"view"},{"type":"function","name":"MAX_MEMBERS","inputs":[],"outputs":[{"name":"","type":"uint256","internalType":"uint256"}],"stateMutability":"view"},{"type":"function","name":"MIN_CONTRIBUTION","inputs":[],"outputs":[{"name":"","type":"uint256","internalType":"uint256"}],"stateMutability":"view"},{"type":"function","name":"MIN_DEPOSIT","inputs":[],"outputs":[{"name":"","type":"uint256","internalType":"uint256"}],"stateMutability":"view"},{"type":"function","name":"REWARD_PRECISION","inputs":[],"outputs":[{"name":"","type":"uint256","internalType":"uint256"}],"stateMutability":"view"},{"type":"function","name":"UPGRADE_INTERFACE_VERSION","inputs":[],"outputs":[{"name":"","type":"string","internalType":"string"}],"stateMutability":"view"},{"type":"function","name":"aaveIntegration","inputs":[],"outputs":[{"name":"","type":"address","internalType":"contract MiniSafeAaveIntegrationUpgradeable"}],"stateMutability":"view"},{"type":"function","name":"accRewardPerShare","inputs":[{"name":"","type":"address","internalType":"address"},{"name":"","type":"address","internalType":"address"}],"outputs":[{"name":"","type":"uint256","internalType":"uint256"}],"stateMutability":"view"},{"type":"function","name":"activateThriftGroup","inputs":[{"name":"groupId","type":"uint256","internalType":"uint256"}],"outputs":[],"stateMutability":"nonpayable"},{"type":"function","name":"addMemberToPrivateGroup","inputs":[{"name":"groupId","type":"uint256","internalType":"uint256"},{"name":"member","type":"address","internalType":"address"},{"name":"email","type":"string","internalType":"string"},{"name":"phone","type":"string","internalType":"string"}],"outputs":[],"stateMutability":"nonpayable"},{"type":"function","name":"addRewardToken","inputs":[{"name":"asset","type":"address","internalType":"address"},{"name":"rewardToken","type":"address","internalType":"address"}],"outputs":[],"stateMutability":"nonpayable"},{"type":"function","name":"addSupportedToken","inputs":[{"name":"tokenAddress","type":"address","internalType":"address"}],"outputs":[{"name":"","type":"bool","internalType":"bool"}],"stateMutability":"nonpayable"},{"type":"function","name":"allMembersContributed","inputs":[{"name":"groupId","type":"uint256","internalType":"uint256"}],"outputs":[{"name":"","type":"bool","internalType":"bool"}],"stateMutability":"view"},{"type":"function","name":"allowedThriftTokens","inputs":[{"name":"","type":"address","internalType":"address"}],"outputs":[{"name":"","type":"bool","internalType":"bool"}],"stateMutability":"view"},{"type":"function","name":"breakTimelock","inputs":[{"name":"tokenAddress","type":"address","internalType":"address"}],"outputs":[],"stateMutability":"nonpayable"},{"type":"function","name":"canWithdraw","inputs":[],"outputs":[{"name":"","type":"bool","internalType":"bool"}],"stateMutability":"view"},{"type":"function","name":"claimMyRewards","inputs":[{"name":"assets","type":"address[]","internalType":"address[]"}],"outputs":[],"stateMutability":"nonpayable"},{"type":"function","name":"convertToShares","inputs":[{"name":"token","type":"address","internalType":"address"},{"name":"assets","type":"uint256","internalType":"uint256"}],"outputs":[{"name":"","type":"uint256","internalType":"uint256"}],"stateMutability":"view"},{"type":"function","name":"coverDefault","inputs":[{"name":"groupId","type":"uint256","internalType":"uint256"},{"name":"defaulter","type":"address","internalType":"address"}],"outputs":[],"stateMutability":"nonpayable"},{"type":"function","name":"createThriftGroup","inputs":[{"name":"contributionAmount","type":"uint256","internalType":"uint256"},{"name":"startDate","type":"uint256","internalType":"uint256"},{"name":"isPublic","type":"bool","internalType":"bool"},{"name":"tokenAddress","type":"address","internalType":"address"},{"name":"email","type":"string","internalType":"string"},{"name":"phone","type":"string","internalType":"string"}],"outputs":[{"name":"","type":"uint256","internalType":"uint256"}],"stateMutability":"nonpayable"},{"type":"function","name":"cycleContributionTime","inputs":[{"name":"","type":"uint256","internalType":"uint256"},{"name":"","type":"address","internalType":"address"}],"outputs":[{"name":"","type":"uint256","internalType":"uint256"}],"stateMutability":"view"},{"type":"function","name":"deposit","inputs":[{"name":"tokenAddress","type":"address","internalType":"address"},{"name":"amount","type":"uint256","internalType":"uint256"}],"outputs":[],"stateMutability":"nonpayable"},{"type":"function","name":"distributePayout","inputs":[{"name":"groupId","type":"uint256","internalType":"uint256"}],"outputs":[],"stateMutability":"nonpayable"},{"type":"function","name":"emergencyWithdraw","inputs":[{"name":"groupId","type":"uint256","internalType":"uint256"}],"outputs":[],"stateMutability":"nonpayable"},{"type":"function","name":"emergencyWithdrawalAvailableAt","inputs":[],"outputs":[{"name":"","type":"uint256","internalType":"uint256"}],"stateMutability":"view"},{"type":"function","name":"executeEmergencyWithdrawal","inputs":[{"name":"tokenAddress","type":"address","internalType":"address"}],"outputs":[],"stateMutability":"nonpayable"},{"type":"function","name":"getBalance","inputs":[{"name":"account","type":"address","internalType":"address"},{"name":"tokenAddress","type":"address","internalType":"address"}],"outputs":[{"name":"","type":"uint256","internalType":"uint256"}],"stateMutability":"view"},{"type":"function","name":"getCurrentRecipient","inputs":[{"name":"groupId","type":"uint256","internalType":"uint256"}],"outputs":[{"name":"","type":"address","internalType":"address"}],"stateMutability":"view"},{"type":"function","name":"getDisposableBalance","inputs":[{"name":"user","type":"address","internalType":"address"},{"name":"token","type":"address","internalType":"address"}],"outputs":[{"name":"","type":"uint256","internalType":"uint256"}],"stateMutability":"view"},{"type":"function","name":"getGroupInfo","inputs":[{"name":"groupId","type":"uint256","internalType":"uint256"}],"outputs":[{"name":"contributionAmount","type":"uint256","internalType":"uint256"},{"name":"startDate","type":"uint256","internalType":"uint256"},{"name":"nextPayoutDate","type":"uint256","internalType":"uint256"},{"name":"currentCycle","type":"uint256","internalType":"uint256"},{"name":"currentRound","type":"uint256","internalType":"uint256"},{"name":"memberCount","type":"uint256","internalType":"uint256"},{"name":"isActive","type":"bool","internalType":"bool"},{"name":"isPublic","type":"bool","internalType":"bool"},{"name":"admin","type":"address","internalType":"address"}],"stateMutability":"view"},{"type":"function","name":"getGroupMembers","inputs":[{"name":"groupId","type":"uint256","internalType":"uint256"}],"outputs":[{"name":"","type":"address[]","internalType":"address[]"}],"stateMutability":"view"},{"type":"function","name":"getGroupPayouts","inputs":[{"name":"groupId","type":"uint256","internalType":"uint256"}],"outputs":[{"name":"","type":"tuple[]","internalType":"struct MiniSafeAaveUpgradeable.Payout[]","components":[{"name":"payoutId","type":"uint256","internalType":"uint256"},{"name":"groupId","type":"uint256","internalType":"uint256"},{"name":"recipient","type":"address","internalType":"address"},{"name":"amount","type":"uint256","internalType":"uint256"},{"name":"timestamp","type":"uint256","internalType":"uint256"},{"name":"cycle","type":"uint256","internalType":"uint256"}]}],"stateMutability":"view"},{"type":"function","name":"getMemberStatus","inputs":[{"name":"groupId","type":"uint256","internalType":"uint256"},{"name":"member","type":"address","internalType":"address"}],"outputs":[{"name":"hasPaid","type":"bool","internalType":"bool"},{"name":"totalContributed","type":"uint256","internalType":"uint256"}],"stateMutability":"view"},{"type":"function","name":"getPayoutOrder","inputs":[{"name":"groupId","type":"uint256","internalType":"uint256"}],"outputs":[{"name":"","type":"address[]","internalType":"address[]"}],"stateMutability":"view"},{"type":"function","name":"getSupportedTokens","inputs":[],"outputs":[{"name":"","type":"address[]","internalType":"address[]"}],"stateMutability":"view"},{"type":"function","name":"getSupportedTokensWithPagination","inputs":[{"name":"startIndex","type":"uint256","internalType":"uint256"},{"name":"count","type":"uint256","internalType":"uint256"}],"outputs":[{"name":"","type":"address[]","internalType":"address[]"}],"stateMutability":"view"},{"type":"function","name":"getTotalShares","inputs":[{"name":"tokenAddress","type":"address","internalType":"address"}],"outputs":[{"name":"","type":"uint256","internalType":"uint256"}],"stateMutability":"view"},{"type":"function","name":"getUserBalance","inputs":[{"name":"user","type":"address","internalType":"address"},{"name":"tokenAddress","type":"address","internalType":"address"}],"outputs":[{"name":"","type":"uint256","internalType":"uint256"}],"stateMutability":"view"},{"type":"function","name":"getUserDepositTime","inputs":[{"name":"user","type":"address","internalType":"address"},{"name":"tokenAddress","type":"address","internalType":"address"}],"outputs":[{"name":"","type":"uint256","internalType":"uint256"}],"stateMutability":"view"},{"type":"function","name":"getUserDepositTime_Legacy","inputs":[{"name":"user","type":"address","internalType":"address"}],"outputs":[{"name":"","type":"uint256","internalType":"uint256"}],"stateMutability":"view"},{"type":"function","name":"getUserTotalContributed","inputs":[{"name":"user","type":"address","internalType":"address"},{"name":"","type":"address","internalType":"address"}],"outputs":[{"name":"","type":"uint256","internalType":"uint256"}],"stateMutability":"view"},{"type":"function","name":"initialize","inputs":[{"name":"_tokenStorage","type":"address","internalType":"address"},{"name":"_aaveIntegration","type":"address","internalType":"address"},{"name":"_initialOwner","type":"address","internalType":"address"}],"outputs":[],"stateMutability":"nonpayable"},{"type":"function","name":"isGroupMember","inputs":[{"name":"groupId","type":"uint256","internalType":"uint256"},{"name":"member","type":"address","internalType":"address"}],"outputs":[{"name":"","type":"bool","internalType":"bool"}],"stateMutability":"view"},{"type":"function","name":"isValidToken","inputs":[{"name":"tokenAddress","type":"address","internalType":"address"}],"outputs":[{"name":"","type":"bool","internalType":"bool"}],"stateMutability":"view"},{"type":"function","name":"joinPublicGroup","inputs":[{"name":"groupId","type":"uint256","internalType":"uint256"},{"name":"email","type":"string","internalType":"string"},{"name":"phone","type":"string","internalType":"string"}],"outputs":[],"stateMutability":"nonpayable"},{"type":"function","name":"lastUserWithdrawalTimestamp","inputs":[{"name":"","type":"address","internalType":"address"}],"outputs":[{"name":"","type":"uint256","internalType":"uint256"}],"stateMutability":"view"},{"type":"function","name":"leaveGroup","inputs":[{"name":"groupId","type":"uint256","internalType":"uint256"}],"outputs":[],"stateMutability":"nonpayable"},{"type":"function","name":"makeContribution","inputs":[{"name":"groupId","type":"uint256","internalType":"uint256"}],"outputs":[],"stateMutability":"nonpayable"},{"type":"function","name":"makeContribution","inputs":[{"name":"groupId","type":"uint256","internalType":"uint256"},{"name":"tokenAddress","type":"address","internalType":"address"},{"name":"amount","type":"uint256","internalType":"uint256"}],"outputs":[],"stateMutability":"nonpayable"},{"type":"function","name":"owner","inputs":[],"outputs":[{"name":"","type":"address","internalType":"address"}],"stateMutability":"view"},{"type":"function","name":"pause","inputs":[],"outputs":[],"stateMutability":"nonpayable"},{"type":"function","name":"paused","inputs":[],"outputs":[{"name":"","type":"bool","internalType":"bool"}],"stateMutability":"view"},{"type":"function","name":"payouts","inputs":[{"name":"","type":"uint256","internalType":"uint256"}],"outputs":[{"name":"payoutId","type":"uint256","internalType":"uint256"},{"name":"groupId","type":"uint256","internalType":"uint256"},{"name":"recipient","type":"address","internalType":"address"},{"name":"amount","type":"uint256","internalType":"uint256"},{"name":"timestamp","type":"uint256","internalType":"uint256"},{"name":"cycle","type":"uint256","internalType":"uint256"}],"stateMutability":"view"},{"type":"function","name":"proxiableUUID","inputs":[],"outputs":[{"name":"","type":"bytes32","internalType":"bytes32"}],"stateMutability":"view"},{"type":"function","name":"renounceOwnership","inputs":[],"outputs":[],"stateMutability":"nonpayable"},{"type":"function","name":"resumeOperations","inputs":[],"outputs":[],"stateMutability":"nonpayable"},{"type":"function","name":"rewardTokens","inputs":[{"name":"","type":"address","internalType":"address"},{"name":"","type":"uint256","internalType":"uint256"}],"outputs":[{"name":"","type":"address","internalType":"address"}],"stateMutability":"view"},{"type":"function","name":"rewardsController","inputs":[],"outputs":[{"name":"","type":"address","internalType":"address"}],"stateMutability":"view"},{"type":"function","name":"setAllowedThriftToken","inputs":[{"name":"token","type":"address","internalType":"address"},{"name":"allowed","type":"bool","internalType":"bool"}],"outputs":[],"stateMutability":"nonpayable"},{"type":"function","name":"setPayoutOrder","inputs":[{"name":"groupId","type":"uint256","internalType":"uint256"},{"name":"payoutOrder","type":"address[]","internalType":"address[]"}],"outputs":[],"stateMutability":"nonpayable"},{"type":"function","name":"setRewardsController","inputs":[{"name":"_controller","type":"address","internalType":"address"}],"outputs":[],"stateMutability":"nonpayable"},{"type":"function","name":"thriftGroups","inputs":[{"name":"","type":"uint256","internalType":"uint256"}],"outputs":[{"name":"groupId","type":"uint256","internalType":"uint256"},{"name":"contributionAmount","type":"uint256","internalType":"uint256"},{"name":"startDate","type":"uint256","internalType":"uint256"},{"name":"nextPayoutDate","type":"uint256","internalType":"uint256"},{"name":"cycleDuration","type":"uint256","internalType":"uint256"},{"name":"maxMembers","type":"uint256","internalType":"uint256"},{"name":"currentCycle","type":"uint256","internalType":"uint256"},{"name":"currentRound","type":"uint256","internalType":"uint256"},{"name":"admin","type":"address","internalType":"address"},{"name":"tokenAddress","type":"address","internalType":"address"},{"name":"isActive","type":"bool","internalType":"bool"},{"name":"isPublic","type":"bool","internalType":"bool"}],"stateMutability":"view"},{"type":"function","name":"timeBetweenWithdrawalsThreshold","inputs":[],"outputs":[{"name":"","type":"uint256","internalType":"uint256"}],"stateMutability":"view"},{"type":"function","name":"tokenStorage","inputs":[],"outputs":[{"name":"","type":"address","internalType":"contract MiniSafeTokenStorageUpgradeable"}],"stateMutability":"view"},{"type":"function","name":"totalPayouts","inputs":[],"outputs":[{"name":"","type":"uint256","internalType":"uint256"}],"stateMutability":"view"},{"type":"function","name":"totalThriftGroups","inputs":[],"outputs":[{"name":"","type":"uint256","internalType":"uint256"}],"stateMutability":"view"},{"type":"function","name":"totalThriftStaked","inputs":[{"name":"","type":"address","internalType":"address"}],"outputs":[{"name":"","type":"uint256","internalType":"uint256"}],"stateMutability":"view"},{"type":"function","name":"transferOwnership","inputs":[{"name":"newOwner","type":"address","internalType":"address"}],"outputs":[],"stateMutability":"nonpayable"},{"type":"function","name":"triggerCircuitBreaker","inputs":[{"name":"reason","type":"string","internalType":"string"}],"outputs":[],"stateMutability":"nonpayable"},{"type":"function","name":"unpause","inputs":[],"outputs":[],"stateMutability":"nonpayable"},{"type":"function","name":"updateCircuitBreakerThresholds","inputs":[{"name":"newWithdrawalThreshold","type":"uint256","internalType":"uint256"},{"name":"newTimeThreshold","type":"uint256","internalType":"uint256"}],"outputs":[],"stateMutability":"nonpayable"},{"type":"function","name":"upgradeToAndCall","inputs":[{"name":"newImplementation","type":"address","internalType":"address"},{"name":"data","type":"bytes","internalType":"bytes"}],"outputs":[],"stateMutability":"payable"},{"type":"function","name":"userLockedShares","inputs":[{"name":"","type":"address","internalType":"address"},{"name":"","type":"address","internalType":"address"}],"outputs":[{"name":"","type":"uint256","internalType":"uint256"}],"stateMutability":"view"},{"type":"function","name":"userPendingRewards","inputs":[{"name":"","type":"address","internalType":"address"},{"name":"","type":"address","internalType":"address"}],"outputs":[{"name":"","type":"uint256","internalType":"uint256"}],"stateMutability":"view"},{"type":"function","name":"userRewardDebt","inputs":[{"name":"","type":"address","internalType":"address"},{"name":"","type":"address","internalType":"address"},{"name":"","type":"address","internalType":"address"}],"outputs":[{"name":"","type":"uint256","internalType":"uint256"}],"stateMutability":"view"},{"type":"function","name":"version","inputs":[],"outputs":[{"name":"","type":"string","internalType":"string"}],"stateMutability":"pure"},{"type":"function","name":"withdraw","inputs":[{"name":"tokenAddress","type":"address","internalType":"address"},{"name":"amount","type":"uint256","internalType":"uint256"}],"outputs":[],"stateMutability":"nonpayable"},{"type":"function","name":"withdrawalAmountThreshold","inputs":[],"outputs":[{"name":"","type":"uint256","internalType":"uint256"}],"stateMutability":"view"},{"type":"event","name":"AavePoolUpdated","inputs":[{"name":"newPool","type":"address","indexed":true,"internalType":"address"}],"anonymous":false},{"type":"event","name":"CircuitBreakerThresholdsUpdated","inputs":[{"name":"withdrawalAmountThreshold","type":"uint256","indexed":false,"internalType":"uint256"},{"name":"timeBetweenWithdrawalsThreshold","type":"uint256","indexed":false,"internalType":"uint256"}],"anonymous":false},{"type":"event","name":"CircuitBreakerTriggered","inputs":[{"name":"by","type":"address","indexed":true,"internalType":"address"},{"name":"reason","type":"string","indexed":false,"internalType":"string"}],"anonymous":false},{"type":"event","name":"CircuitBreakerTriggered","inputs":[{"name":"reason","type":"string","indexed":false,"internalType":"string"},{"name":"timestamp","type":"uint256","indexed":false,"internalType":"uint256"}],"anonymous":false},{"type":"event","name":"CollateralSeized","inputs":[{"name":"groupId","type":"uint256","indexed":true,"internalType":"uint256"},{"name":"member","type":"address","indexed":true,"internalType":"address"},{"name":"amount","type":"uint256","indexed":false,"internalType":"uint256"}],"anonymous":false},{"type":"event","name":"ContributionMade","inputs":[{"name":"groupId","type":"uint256","indexed":true,"internalType":"uint256"},{"name":"member","type":"address","indexed":true,"internalType":"address"},{"name":"amount","type":"uint256","indexed":false,"internalType":"uint256"}],"anonymous":false},{"type":"event","name":"DefaultCovered","inputs":[{"name":"groupId","type":"uint256","indexed":true,"internalType":"uint256"},{"name":"member","type":"address","indexed":true,"internalType":"address"},{"name":"amount","type":"uint256","indexed":false,"internalType":"uint256"}],"anonymous":false},{"type":"event","name":"Deposited","inputs":[{"name":"depositor","type":"address","indexed":true,"internalType":"address"},{"name":"amount","type":"uint256","indexed":false,"internalType":"uint256"},{"name":"token","type":"address","indexed":true,"internalType":"address"},{"name":"sharesReceived","type":"uint256","indexed":false,"internalType":"uint256"}],"anonymous":false},{"type":"event","name":"DepositedToAave","inputs":[{"name":"token","type":"address","indexed":true,"internalType":"address"},{"name":"amount","type":"uint256","indexed":false,"internalType":"uint256"}],"anonymous":false},{"type":"event","name":"EmergencyWithdraw","inputs":[{"name":"groupId","type":"uint256","indexed":true,"internalType":"uint256"},{"name":"admin","type":"address","indexed":true,"internalType":"address"},{"name":"amount","type":"uint256","indexed":false,"internalType":"uint256"}],"anonymous":false},{"type":"event","name":"EmergencyWithdrawalCancelled","inputs":[{"name":"by","type":"address","indexed":true,"internalType":"address"}],"anonymous":false},{"type":"event","name":"EmergencyWithdrawalExecuted","inputs":[{"name":"by","type":"address","indexed":true,"internalType":"address"},{"name":"token","type":"address","indexed":true,"internalType":"address"},{"name":"amount","type":"uint256","indexed":false,"internalType":"uint256"}],"anonymous":false},{"type":"event","name":"EmergencyWithdrawalInitiated","inputs":[{"name":"by","type":"address","indexed":true,"internalType":"address"},{"name":"availableAt","type":"uint256","indexed":false,"internalType":"uint256"}],"anonymous":false},{"type":"event","name":"GroupActivated","inputs":[{"name":"groupId","type":"uint256","indexed":true,"internalType":"uint256"}],"anonymous":false},{"type":"event","name":"GroupDeactivated","inputs":[{"name":"groupId","type":"uint256","indexed":true,"internalType":"uint256"}],"anonymous":false},{"type":"event","name":"Initialized","inputs":[{"name":"version","type":"uint64","indexed":false,"internalType":"uint64"}],"anonymous":false},{"type":"event","name":"ManagerAuthorized","inputs":[{"name":"manager","type":"address","indexed":true,"internalType":"address"},{"name":"status","type":"bool","indexed":false,"internalType":"bool"}],"anonymous":false},{"type":"event","name":"MemberJoined","inputs":[{"name":"groupId","type":"uint256","indexed":true,"internalType":"uint256"},{"name":"member","type":"address","indexed":true,"internalType":"address"},{"name":"email","type":"string","indexed":false,"internalType":"string"},{"name":"phone","type":"string","indexed":false,"internalType":"string"}],"anonymous":false},{"type":"event","name":"MemberLeft","inputs":[{"name":"groupId","type":"uint256","indexed":true,"internalType":"uint256"},{"name":"member","type":"address","indexed":true,"internalType":"address"}],"anonymous":false},{"type":"event","name":"OwnershipTransferred","inputs":[{"name":"previousOwner","type":"address","indexed":true,"internalType":"address"},{"name":"newOwner","type":"address","indexed":true,"internalType":"address"}],"anonymous":false},{"type":"event","name":"Paused","inputs":[{"name":"account","type":"address","indexed":false,"internalType":"address"}],"anonymous":false},{"type":"event","name":"PayoutDistributed","inputs":[{"name":"groupId","type":"uint256","indexed":true,"internalType":"uint256"},{"name":"recipient","type":"address","indexed":true,"internalType":"address"},{"name":"amount","type":"uint256","indexed":false,"internalType":"uint256"},{"name":"cycle","type":"uint256","indexed":false,"internalType":"uint256"}],"anonymous":false},{"type":"event","name":"PayoutOrderSet","inputs":[{"name":"groupId","type":"uint256","indexed":true,"internalType":"uint256"},{"name":"payoutOrder","type":"address[]","indexed":false,"internalType":"address[]"}],"anonymous":false},{"type":"event","name":"PoolDataProviderUpdated","inputs":[{"name":"newDataProvider","type":"address","indexed":true,"internalType":"address"}],"anonymous":false},{"type":"event","name":"RefundIssued","inputs":[{"name":"groupId","type":"uint256","indexed":true,"internalType":"uint256"},{"name":"member","type":"address","indexed":true,"internalType":"address"},{"name":"amount","type":"uint256","indexed":false,"internalType":"uint256"}],"anonymous":false},{"type":"event","name":"RewardTokenAdded","inputs":[{"name":"asset","type":"address","indexed":true,"internalType":"address"},{"name":"rewardToken","type":"address","indexed":true,"internalType":"address"}],"anonymous":false},{"type":"event","name":"RewardsClaimed","inputs":[{"name":"user","type":"address","indexed":true,"internalType":"address"},{"name":"rewardToken","type":"address","indexed":true,"internalType":"address"},{"name":"amount","type":"uint256","indexed":false,"internalType":"uint256"}],"anonymous":false},{"type":"event","name":"RewardsControllerUpdated","inputs":[{"name":"oldController","type":"address","indexed":true,"internalType":"address"},{"name":"newController","type":"address","indexed":true,"internalType":"address"}],"anonymous":false},{"type":"event","name":"ThriftGroupCreated","inputs":[{"name":"groupId","type":"uint256","indexed":true,"internalType":"uint256"},{"name":"contributionAmount","type":"uint256","indexed":false,"internalType":"uint256"},{"name":"startDate","type":"uint256","indexed":false,"internalType":"uint256"},{"name":"maxMembers","type":"uint256","indexed":false,"internalType":"uint256"},{"name":"isPublic","type":"bool","indexed":false,"internalType":"bool"},{"name":"admin","type":"address","indexed":true,"internalType":"address"},{"name":"email","type":"string","indexed":false,"internalType":"string"},{"name":"phone","type":"string","indexed":false,"internalType":"string"}],"anonymous":false},{"type":"event","name":"ThriftYieldDistributed","inputs":[{"name":"groupId","type":"uint256","indexed":true,"internalType":"uint256"},{"name":"member","type":"address","indexed":true,"internalType":"address"},{"name":"amount","type":"uint256","indexed":false,"internalType":"uint256"}],"anonymous":false},{"type":"event","name":"TimelockBroken","inputs":[{"name":"breaker","type":"address","indexed":true,"internalType":"address"},{"name":"amount","type":"uint256","indexed":false,"internalType":"uint256"},{"name":"token","type":"address","indexed":true,"internalType":"address"}],"anonymous":false},{"type":"event","name":"TokenAdded","inputs":[{"name":"tokenAddress","type":"address","indexed":true,"internalType":"address"},{"name":"aTokenAddress","type":"address","indexed":true,"internalType":"address"}],"anonymous":false},{"type":"event","name":"TokenRemoved","inputs":[{"name":"tokenAddress","type":"address","indexed":true,"internalType":"address"}],"anonymous":false},{"type":"event","name":"Unpaused","inputs":[{"name":"account","type":"address","indexed":false,"internalType":"address"}],"anonymous":false},{"type":"event","name":"Upgraded","inputs":[{"name":"implementation","type":"address","indexed":true,"internalType":"address"}],"anonymous":false},{"type":"event","name":"UserBalanceUpdated","inputs":[{"name":"user","type":"address","indexed":true,"internalType":"address"},{"name":"token","type":"address","indexed":true,"internalType":"address"},{"name":"amount","type":"uint256","indexed":false,"internalType":"uint256"},{"name":"isDeposit","type":"bool","indexed":false,"internalType":"bool"}],"anonymous":false},{"type":"event","name":"Withdrawn","inputs":[{"name":"withdrawer","type":"address","indexed":true,"internalType":"address"},{"name":"amount","type":"uint256","indexed":false,"internalType":"uint256"},{"name":"token","type":"address","indexed":true,"internalType":"address"},{"name":"sharesRedeemed","type":"uint256","indexed":false,"internalType":"uint256"}],"anonymous":false},{"type":"event","name":"WithdrawnFromAave","inputs":[{"name":"token","type":"address","indexed":true,"internalType":"address"},{"name":"amount","type":"uint256","indexed":false,"internalType":"uint256"}],"anonymous":false},{"type":"error","name":"AddressEmptyCode","inputs":[{"name":"target","type":"address","internalType":"address"}]},{"type":"error","name":"ERC1967InvalidImplementation","inputs":[{"name":"implementation","type":"address","internalType":"address"}]},{"type":"error","name":"ERC1967NonPayable","inputs":[]},{"type":"error","name":"EnforcedPause","inputs":[]},{"type":"error","name":"ExpectedPause","inputs":[]},{"type":"error","name":"FailedCall","inputs":[]},{"type":"error","name":"InvalidInitialization","inputs":[]},{"type":"error","name":"NotInitializing","inputs":[]},{"type":"error","name":"OwnableInvalidOwner","inputs":[{"name":"owner","type":"address","internalType":"address"}]},{"type":"error","name":"OwnableUnauthorizedAccount","inputs":[{"name":"account","type":"address","internalType":"address"}]},{"type":"error","name":"ReentrancyGuardReentrantCall","inputs":[]},{"type":"error","name":"SafeERC20FailedOperation","inputs":[{"name":"token","type":"address","internalType":"address"}]},{"type":"error","name":"UUPSUnauthorizedCallContext","inputs":[]},{"type":"error","name":"UUPSUnsupportedProxiableUUID","inputs":[{"name":"slot","type":"bytes32","internalType":"bytes32"}]}],"bytecode":{"object":"0x60a060405230608052348015610013575f5ffd5b5061001c610021565b6100d3565b7ff0c57e16840df040f15088dc2f81fe391c3923bec73e23a9662efc9c229c6a00805468010000000000000000900460ff16156100715760405163f92ee8a960e01b815260040160405180910390fd5b80546001600160401b03908116146100d05780546001600160401b0319166001600160401b0390811782556040519081527fc7f505b2f371ae2175ee4913f4499e1f2633a7b5936321eed1cdaeb6115181d29060200160405180910390a15b50565b6080516188136100f95f395f81816164360152818161645f015261659501526188135ff3fe608060405260043610610377575f3560e01c8063072e778f1461037b578063079abc461461039c5780630abc062f146103e55780630b098ce9146104045780630d578f781461042357806312b1deb81461044f5780631ad095d8146104635780631ae740c91461048f5780631fdf8b86146104a457806323cb2390146104b957806326e98b8b146104d857806329652e861461050e5780632d8c04e91461056857806333471df5146105f0578063360a2bcb1461060f57806336cc81301461062e5780633d6aa5e11461064d5780633e5541f1146106655780633f4ba83a1461068457806340650c91146106985780634089b170146106b257806345ad76b4146106c757806347e7ef24146106e65780634b9ae0ce146107055780634bbd506e146107305780634c38da4c1461076c5780634f1ef286146107a257806352d1902d146107b55780635312ea8e146107c957806354fd4d50146107e8578063591d8a4b1461081e5780635c975abb146108545780635e33ec821461087857806360d7442b14610897578063619e7abf146108ad57806361b242c5146108d85780636805d6ad146108f75780636bb65f53146109165780636d69fcaf14610935578063715018a6146109545780637dc5bb571461096857806381a4af151461097d57806383ba3ce01461099c5780638456cb59146109bb5780638c91d2dd146109cf5780638da5cb5b146109ee5780639814dbdc14610a0257806399d4360f14610a2e5780639d07fd1314610a9e578063a022668614610abd578063a6e1d01614610adc578063a71f589314610af0578063a73992e414610b0f578063a9a9e25714610b2e578063ab59a11e14610b5c578063ad3cb1cc14610b7b578063af051e5a14610bab578063b130a6ac14610bca578063b199efb514610be9578063b51459fe14610c08578063bee36bb314610c1c578063bfeb560714610c3b578063c0c53b8b14610c5a578063c187645314610c79578063c1bb31cc14610c98578063ccdb9cea14610cb7578063cd421fbf14610ced578063cdb646b514610d03578063d3c7c2c714610d22578063d4fac45d14610d36578063df7d296c14610d55578063dfd1004714610d74578063e1e158a514610d93578063e76a812914610dad578063ea0e35b114610dcc578063f20d863414610de0578063f2fde38b14610dff578063f3fef3a314610e1e578063faf7f01814610e3d575b5f5ffd5b348015610386575f5ffd5b5061039a610395366004617984565b610e5c565b005b3480156103a7575f5ffd5b506103d26103b63660046179b2565b601060209081525f928352604080842090915290825290205481565b6040519081526020015b60405180910390f35b3480156103f0575f5ffd5b506103d26103ff366004617aa5565b610fba565b34801561040f575f5ffd5b5061039a61041e366004617b7d565b61130c565b34801561042e575f5ffd5b50600554610442906001600160a01b031681565b6040516103dc9190617bbb565b34801561045a575f5ffd5b506103d25f5481565b34801561046e575f5ffd5b5061048261047d366004617bcf565b6114ed565b6040516103dc9190617c32565b34801561049a575f5ffd5b506103d260065481565b3480156104af575f5ffd5b506103d260025481565b3480156104c4575f5ffd5b5061039a6104d33660046179b2565b61156b565b3480156104e3575f5ffd5b506104f76104f2366004617984565b6117d3565b6040805192151583526020830191909152016103dc565b348015610519575f5ffd5b5061052d610528366004617c44565b611852565b6040805196875260208701959095526001600160a01b03909316938501939093526060840152608083019190915260a082015260c0016103dc565b348015610573575f5ffd5b50610587610582366004617c44565b6118a0565b604080519c8d5260208d019b909b52998b019890985260608a0196909652608089019490945260a088019290925260c087015260e08601526001600160a01b039081166101008601521661012084015215156101408301521515610160820152610180016103dc565b3480156105fb575f5ffd5b5061039a61060a366004617c44565b611922565b34801561061a575f5ffd5b5061039a610629366004617c44565b611e66565b348015610639575f5ffd5b50610482610648366004617c44565b611ece565b348015610658575f5ffd5b506103d264e8d4a5100081565b348015610670575f5ffd5b506103d261067f366004617c5b565b611f72565b34801561068f575f5ffd5b5061039a612092565b3480156106a3575f5ffd5b506103d2662386f26fc1000081565b3480156106bd575f5ffd5b506103d260075481565b3480156106d2575f5ffd5b506103d26106e1366004617c85565b6120a4565b3480156106f1575f5ffd5b5061039a610700366004617c5b565b612114565b348015610710575f5ffd5b506103d261071f366004617c85565b60036020525f908152604090205481565b34801561073b575f5ffd5b506103d261074a366004617ca0565b601160209081525f938452604080852082529284528284209052825290205481565b348015610777575f5ffd5b506103d26107863660046179b2565b600c60209081525f928352604080842090915290825290205481565b61039a6107b0366004617ce8565b612419565b3480156107c0575f5ffd5b506103d2612434565b3480156107d4575f5ffd5b5061039a6107e3366004617c44565b61244f565b3480156107f3575f5ffd5b50604080518082019091526005815264312e302e3160d81b60208201525b6040516103dc9190617d75565b348015610829575f5ffd5b506103d26108383660046179b2565b601260209081525f928352604080842090915290825290205481565b34801561085f575f5ffd5b506108686128b0565b60405190151581526020016103dc565b348015610883575f5ffd5b5061039a610892366004617d87565b6128c4565b3480156108a2575f5ffd5b506103d26202a30081565b3480156108b8575f5ffd5b506103d26108c7366004617c85565b600a6020525f908152604090205481565b3480156108e3575f5ffd5b5061039a6108f2366004617e05565b612af1565b348015610902575f5ffd5b506103d26109113660046179b2565b612b02565b348015610921575f5ffd5b50600e54610442906001600160a01b031681565b348015610940575f5ffd5b5061086861094f366004617c85565b612b74565b34801561095f575f5ffd5b5061039a612bed565b348015610973575f5ffd5b506103d260015481565b348015610988575f5ffd5b50610442610997366004617c5b565b612bfe565b3480156109a7575f5ffd5b5061039a6109b6366004617e3e565b612c32565b3480156109c6575f5ffd5b5061039a6131b5565b3480156109da575f5ffd5b5061039a6109e9366004617c44565b6131cd565b3480156109f9575f5ffd5b50610442613407565b348015610a0d575f5ffd5b50610a21610a1c366004617c44565b613421565b6040516103dc9190617e73565b348015610a39575f5ffd5b50610a4d610a48366004617c44565b613602565b60408051998a5260208a0198909852968801959095526060870193909352608086019190915260a0850152151560c0840152151560e08301526001600160a01b0316610100820152610120016103dc565b348015610aa9575f5ffd5b50610442610ab8366004617c44565b6136cc565b348015610ac8575f5ffd5b5061039a610ad7366004617c85565b61377d565b348015610ae7575f5ffd5b5061039a613b6d565b348015610afb575f5ffd5b5061039a610b0a366004617c44565b613b7d565b348015610b1a575f5ffd5b5061039a610b29366004617eea565b613d0e565b348015610b39575f5ffd5b50610868610b48366004617c85565b600d6020525f908152604090205460ff1681565b348015610b67575f5ffd5b5061039a610b76366004617c85565b61402e565b348015610b86575f5ffd5b50610811604051806040016040528060058152602001640352e302e360dc1b81525081565b348015610bb6575f5ffd5b5061039a610bc5366004617bcf565b614269565b348015610bd5575f5ffd5b50610868610be4366004617c44565b6142b9565b348015610bf4575f5ffd5b50600454610442906001600160a01b031681565b348015610c13575f5ffd5b5061086861436d565b348015610c27575f5ffd5b5061039a610c36366004617c85565b614463565b348015610c46575f5ffd5b50610868610c55366004617984565b614511565b348015610c65575f5ffd5b5061039a610c74366004617ca0565b6145ba565b348015610c84575f5ffd5b50610868610c93366004617c85565b6147ad565b348015610ca3575f5ffd5b5061039a610cb2366004617f31565b6147f9565b348015610cc2575f5ffd5b506103d2610cd1366004617984565b600b60209081525f928352604080842090915290825290205481565b348015610cf8575f5ffd5b506103d262278d0081565b348015610d0e575f5ffd5b506103d2610d1d3660046179b2565b6149c6565b348015610d2d575f5ffd5b50610482614a40565b348015610d41575f5ffd5b506103d2610d503660046179b2565b614abd565b348015610d60575f5ffd5b50610482610d6f366004617c44565b614b7a565b348015610d7f575f5ffd5b506103d2610d8e3660046179b2565b614c1c565b348015610d9e575f5ffd5b506103d266038d7ea4c6800081565b348015610db8575f5ffd5b506103d2610dc73660046179b2565b614ccd565b348015610dd7575f5ffd5b506103d2600581565b348015610deb575f5ffd5b506103d2610dfa366004617c85565b614d00565b348015610e0a575f5ffd5b5061039a610e19366004617c85565b614d31565b348015610e29575f5ffd5b5061039a610e38366004617c5b565b614d6b565b348015610e48575f5ffd5b5061039a610e57366004617f9c565b6151e9565b60085482908110610e885760405162461bcd60e51b8152600401610e7f90617fc8565b60405180910390fd5b60088181548110610e9b57610e9b617ff6565b5f91825260209091206010601190920201015460ff16610ecd5760405162461bcd60e51b8152600401610e7f9061800a565b610ed561521b565b5f60088481548110610ee957610ee9617ff6565b905f5260205f20906011020190508060030154421015610f425760405162461bcd60e51b81526020600482015260146024820152735761697420666f72207061796f7574206461746560601b6044820152606401610e7f565b6001600160a01b0383165f908152600d8201602052604090205460ff1615610fa25760405162461bcd60e51b815260206004820152601360248201527213595b58995c88185b1c9958591e481c185a59606a1b6044820152606401610e7f565b610fac8484615250565b50610fb561547d565b505050565b5f610fc361521b565b428610156110135760405162461bcd60e51b815260206004820181905260248201527f53746172742064617465206d75737420626520696e20746865206675747572656044820152606401610e7f565b6004805460405163c187645360e01b81526001600160a01b039091169163c18764539161104291889101617bbb565b602060405180830381865afa15801561105d573d5f5f3e3d5ffd5b505050506040513d601f19601f820116820180604052508101906110819190618037565b61109d5760405162461bcd60e51b8152600401610e7f90618052565b5f6110af85662386f26fc1000061548d565b9050808810156111015760405162461bcd60e51b815260206004820152601d60248201527f436f6e747269627574696f6e20616d6f756e7420746f6f20736d616c6c0000006044820152606401610e7f565b6001600160a01b0385165f908152600d602052604090205460ff166111675760405162461bcd60e51b815260206004820152601c60248201527b151bdad95b881b9bdd08185b1b1bddd95908199bdc881d1a1c9a599d60221b6044820152606401610e7f565b600880546001810182555f9190915260065460119091027ff3f7a9fe364faab93b216da50a3214154f22a0a2b415b23a84c8169e8b636ee381019182557ff3f7a9fe364faab93b216da50a3214154f22a0a2b415b23a84c8169e8b636ee481018a90557ff3f7a9fe364faab93b216da50a3214154f22a0a2b415b23a84c8169e8b636ee5018890556111fc62278d0089618091565b600382015562278d0060048201556005808201556001600680830182905560078301829055600883018054336001600160a01b0319918216811790925560098501805482166001600160a01b038c16179055600a8501805494850181555f908152602081209094018054909116909117905560108301805461ffff19166101008b151502179055805491829190611292836180a4565b919050555087156112a9576112a98133898d615559565b336001600160a01b0316817f78684e42da9424e9ea40088d800df606e13fb71f2e28dfbbed9e1980eba2f3e78c8c60058d8c8c6040516112ee969594939291906180bc565b60405180910390a39250505061130261547d565b9695505050505050565b61131461521b565b5f5b818110156113565761134e3384848481811061133457611334617ff6565b90506020020160208101906113499190617c85565b6155b1565b600101611316565b505f5b818110156114e0575f600f5f85858581811061137757611377617ff6565b905060200201602081019061138c9190617c85565b6001600160a01b03166001600160a01b031681526020019081526020015f208054806020026020016040519081016040528092919081815260200182805480156113fd57602002820191905f5260205f20905b81546001600160a01b031681526001909101906020018083116113df575b509394505f93505050505b81518110156114d6575f82828151811061142457611424617ff6565b602090810291909101810151335f9081526012835260408082206001600160a01b0384168352909352919091205490915080156114cc57335f8181526012602090815260408083206001600160a01b038716808552925282209190915561148b9183615bcb565b6040518181526001600160a01b0383169033907f9310ccfcb8de723f578a9e4282ea9f521f05ae40dc08f3068dfad528a65ee3c79060200160405180910390a35b5050600101611408565b5050600101611359565b506114e961547d565b5050565b600480546040516360e9b14760e11b81526060926001600160a01b039092169163c1d3628e91611521918791879101618107565b5f60405180830381865afa15801561153b573d5f5f3e3d5ffd5b505050506040513d5f823e601f3d908101601f1916820160405261156291908101906181aa565b90505b92915050565b611573615c23565b6004805460405163c187645360e01b81526001600160a01b039091169163c1876453916115a291869101617bbb565b602060405180830381865afa1580156115bd573d5f5f3e3d5ffd5b505050506040513d601f19601f820116820180604052508101906115e19190618037565b6116215760405162461bcd60e51b8152602060048201526011602482015270155b9cdd5c1c1bdc9d195908185cdcd95d607a1b6044820152606401610e7f565b6001600160a01b03811661166e5760405162461bcd60e51b815260206004820152601460248201527324b73b30b634b2103932bbb0b932103a37b5b2b760611b6044820152606401610e7f565b6001600160a01b0382165f908152600f60209081526040808320805482518185028101850190935280835291929091908301828280156116d557602002820191905f5260205f20905b81546001600160a01b031681526001909101906020018083116116b7575b509394505f93505050505b815181101561176857826001600160a01b031682828151811061170557611705617ff6565b60200260200101516001600160a01b0316036117605760405162461bcd60e51b815260206004820152601a60248201527914995dd85c99081d1bdad95b88185b1c9958591e48185919195960321b6044820152606401610e7f565b6001016116e0565b506001600160a01b038381165f818152600f60209081526040808320805460018101825590845291832090910180546001600160a01b0319169487169485179055517f3344e0a0f48738979c56a1b9f2cd3425597f76766d53e83439cab3fc30b067c79190a3505050565b6008545f90819084106117f85760405162461bcd60e51b8152600401610e7f90617fc8565b5f6008858154811061180c5761180c617ff6565b5f91825260208083206001600160a01b0388168452600d6011909302019182018152604080842054600e9093019091529091205460ff90911693509150505b9250929050565b60098181548110611861575f80fd5b5f91825260209091206006909102018054600182015460028301546003840154600485015460059095015493955091936001600160a01b039091169286565b600881815481106118af575f80fd5b5f918252602090912060119091020180546001820154600283015460038401546004850154600586015460068701546007880154600889015460098a01546010909a0154989a5096989597949693959294919390926001600160a01b039182169291169060ff808216916101009004168c565b600854819081106119455760405162461bcd60e51b8152600401610e7f90617fc8565b61194f8133614511565b61196b5760405162461bcd60e51b8152600401610e7f906181db565b61197361521b565b5f6008838154811061198757611987617ff6565b905f5260205f209060110201905080600201544210806119ac5750601081015460ff16155b806119be57506119bc8333615c55565b155b611a165760405162461bcd60e51b815260206004820152602360248201527f43616e6e6f74206c6561766520616674657220726563656976696e67207061796044820152621bdd5d60ea1b6064820152608401610e7f565b335f908152600e820160205260409020546009820154600a83015460108401546001600160a01b039092169160029091111590610100900460ff1615611b28575f60058560010154611a68919061820f565b90505f611a758483611f72565b335f908152600c602090815260408083206001600160a01b03891684529091529020549091508015611b2457611aab8933615c55565b15611b0457611abc33868b84615ce1565b611ac83386835f615e56565b60405181815233908a907f348da1c7ca8804ff7b3cbff37a613a1549362d62ee8c309af7a61ca40adb4dae9060200160405180910390a3611b24565b5f828210611b125782611b14565b815b9050611b2233878c84615ce1565b505b5050505b611b3286336160d8565b8015611b6f5760108401805460ff1916905560405186907f510197d0e3943d304823799ac0c1c74b4d80cc5bcffcb36ab1b4ab510f4fe300905f90a25b604051339087907fa8dcd974806422d974a6135dd981896f1694065789986f7ba7947fbb4759e899905f90a38215611e5a57600554604051630712f6b360e01b81525f916001600160a01b031690630712f6b390611bd1908690600401617bbb565b602060405180830381865afa158015611bec573d5f5f3e3d5ffd5b505050506040513d601f19601f82011682018060405250810190611c109190618226565b60048054604051633c83618d60e21b81529293505f926001600160a01b039091169163f20d863491611c4491889101617bbb565b602060405180830381865afa158015611c5f573d5f5f3e3d5ffd5b505050506040513d601f19601f82011682018060405250810190611c839190618226565b6004805460405163224a5bbb60e21b81529293505f926001600160a01b03909116916389296eec91611cb99130918a910161823d565b602060405180830381865afa158015611cd4573d5f5f3e3d5ffd5b505050506040513d601f19601f82011682018060405250810190611cf89190618226565b90505f5f8411611d08575f611d1d565b83611d13848961820f565b611d1d919061826b565b905081811115611d2a5750805b611d363087835f615e56565b6001600160a01b0386165f908152600a60205260409020548710611d5a575f611d7d565b6001600160a01b0386165f908152600a6020526040902054611d7d90889061827e565b6001600160a01b038088165f908152600a60209081526040808320949094558d8252600b815283822033808452915283822091909155600554925163ad9b3af760e01b8152929091169163ad9b3af791611ddd918a918c91600401618291565b6020604051808303815f875af1158015611df9573d5f5f3e3d5ffd5b505050506040513d601f19601f82011682018060405250810190611e1d9190618226565b5060405187815233908b907f7a482fdeb6bc9a1376f597068a214a7a39472bb2eff1b8cad21ba04f49ddca1b9060200160405180910390a3505050505b505050506114e961547d565b6008548110611e875760405162461bcd60e51b8152600401610e7f90617fc8565b5f60088281548110611e9b57611e9b617ff6565b905f5260205f20906011020190506114e982826009015f9054906101000a90046001600160a01b03168360010154612c32565b6008546060908210611ef25760405162461bcd60e51b8152600401610e7f90617fc8565b60088281548110611f0557611f05617ff6565b905f5260205f209060110201600a01805480602002602001604051908101604052809291908181526020018280548015611f6657602002820191905f5260205f20905b81546001600160a01b03168152600190910190602001808311611f48575b50505050509050919050565b600554604051630712f6b360e01b81525f9182916001600160a01b0390911690630712f6b390611fa6908790600401617bbb565b602060405180830381865afa158015611fc1573d5f5f3e3d5ffd5b505050506040513d601f19601f82011682018060405250810190611fe59190618226565b60048054604051633c83618d60e21b81529293505f926001600160a01b039091169163f20d86349161201991899101617bbb565b602060405180830381865afa158015612034573d5f5f3e3d5ffd5b505050506040513d601f19601f820116820180604052508101906120589190618226565b9050801580612065575081155b15612074578392505050611565565b8161207f828661820f565b612089919061826b565b95945050505050565b61209a615c23565b6120a2616376565b565b60048054604051631a072b8160e11b81525f926001600160a01b039092169163340e5702916120d591869101617bbb565b602060405180830381865afa1580156120f0573d5f5f3e3d5ffd5b505050506040513d601f19601f820116820180604052508101906115659190618226565b61211c61521b565b6121246163cc565b6004805460405163c187645360e01b81526001600160a01b039091169163c18764539161215391869101617bbb565b602060405180830381865afa15801561216e573d5f5f3e3d5ffd5b505050506040513d601f19601f820116820180604052508101906121929190618037565b6121ae5760405162461bcd60e51b8152600401610e7f90618052565b5f6121c08366038d7ea4c6800061548d565b90508082101561220d5760405162461bcd60e51b815260206004820152601860248201527711195c1bdcda5d08185b5bdd5b9d081d1bdbc81cdb585b1b60421b6044820152606401610e7f565b600554604051630712f6b360e01b81525f916001600160a01b031690630712f6b39061223d908790600401617bbb565b602060405180830381865afa158015612258573d5f5f3e3d5ffd5b505050506040513d601f19601f8201168201806040525081019061227c9190618226565b60048054604051633c83618d60e21b81529293505f926001600160a01b039091169163f20d8634916122b091899101617bbb565b602060405180830381865afa1580156122cb573d5f5f3e3d5ffd5b505050506040513d601f19601f820116820180604052508101906122ef9190618226565b60055490915061230e906001600160a01b0387811691339116876163f2565b60055460405163eeb149e760e01b81525f916001600160a01b03169063eeb149e79061234090899089906004016182b4565b6020604051808303815f875af115801561235c573d5f5f3e3d5ffd5b505050506040513d601f19601f820116820180604052508101906123809190618226565b90505f82158061238e575083155b1561239a5750806123b2565b836123a5848461820f565b6123af919061826b565b90505b6123bf3388836001615e56565b866001600160a01b0316336001600160a01b03167fc490a74c1058132dffb93944d555ddd1817ae53b7367ea1126ff123b1b134a588884604051612404929190618107565b60405180910390a350505050506114e961547d565b61242161642b565b61242a826164cf565b6114e982826164d7565b5f61243d61658a565b505f51602061877e5f395f51905f5290565b61245761521b565b60085481106124785760405162461bcd60e51b8152600401610e7f90617fc8565b5f6008828154811061248c5761248c617ff6565b5f918252602090912060119091020160088101549091506001600160a01b03163314806124be5750601081015460ff16155b6125095760405162461bcd60e51b815260206004820152601c60248201527b04f6e6c792061646d696e206f7220696e6163746976652067726f75760241b6044820152606401610e7f565b335f908152600c82016020526040902054806125655760405162461bcd60e51b815260206004820152601b60248201527a4e6f20636f6e747269627574696f6e20746f20776974686472617760281b6044820152606401610e7f565b6005546009830154604051630712f6b360e01b81525f926001600160a01b0390811692630712f6b39261259e9290911690600401617bbb565b602060405180830381865afa1580156125b9573d5f5f3e3d5ffd5b505050506040513d601f19601f820116820180604052508101906125dd9190618226565b600480546009860154604051633c83618d60e21b81529394505f936001600160a01b039283169363f20d86349361261693169101617bbb565b602060405180830381865afa158015612631573d5f5f3e3d5ffd5b505050506040513d601f19601f820116820180604052508101906126559190618226565b60048054600987015460405163224a5bbb60e21b81529394505f936001600160a01b03928316936389296eec936126919330939116910161823d565b602060405180830381865afa1580156126ac573d5f5f3e3d5ffd5b505050506040513d601f19601f820116820180604052508101906126d09190618226565b90505f5f84116126e0575f6126f5565b836126eb848761820f565b6126f5919061826b565b9050818111156127025750805b335f908152600c870160209081526040808320839055600d89018252808320805460ff19169055600e89019091528120805487929061274290849061827e565b909155505060108601805460ff19169055600986015461276e9030906001600160a01b0316835f615e56565b60098601546001600160a01b03165f908152600a60205260409020548510612796575f6127bd565b60098601546001600160a01b03165f908152600a60205260409020546127bd90869061827e565b6009870180546001600160a01b039081165f908152600a60209081526040808320959095558b8252600b8152848220338084529152848220919091556005549254935163ad9b3af760e01b81529282169363ad9b3af7936128279391909116918a91600401618291565b6020604051808303815f875af1158015612843573d5f5f3e3d5ffd5b505050506040513d601f19601f820116820180604052508101906128679190618226565b50604051858152339088907f947a9dc0c5e62cc9756634ec0a89afea37eb0305933925040b9bda82004400209060200160405180910390a35050505050506128ad61547d565b50565b5f5f6128ba6165d3565b5460ff1692915050565b600854849081106128e75760405162461bcd60e51b8152600401610e7f90617fc8565b336001600160a01b03166008828154811061290457612904617ff6565b5f9182526020909120600860119092020101546001600160a01b03161461293d5760405162461bcd60e51b8152600401610e7f906182cd565b61294561521b565b5f6008868154811061295957612959617ff6565b905f5260205f20906011020190508060100160019054906101000a900460ff16156129d45760405162461bcd60e51b815260206004820152602560248201527f557365206a6f696e5075626c696347726f757020666f72207075626c69632067604482015264726f75707360d81b6064820152608401610e7f565b6005810154600a820154106129fb5760405162461bcd60e51b8152600401610e7f90618315565b612a058686614511565b15612a225760405162461bcd60e51b8152600401610e7f9061833c565b8060020154421115612a465760405162461bcd60e51b8152600401610e7f90618366565b600a810180546001810182555f828152602090200180546001600160a01b0319166001600160a01b0388161790556005820154905403612ab05760108101805460ff19166001179055612a98866165f7565b60405186905f51602061873e5f395f51905f52905f90a25b846001600160a01b0316865f51602061879e5f395f51905f528686604051612ad9929190618399565b60405180910390a350612aea61547d565b5050505050565b612af9615c23565b6128ad8161672f565b6004805460405163224a5bbb60e21b81525f926001600160a01b03909216916389296eec91612b3591879187910161823d565b602060405180830381865afa158015612b50573d5f5f3e3d5ffd5b505050506040513d601f19601f820116820180604052508101906115629190618226565b5f612b7d615c23565b600554604051636d69fcaf60e01b81526001600160a01b0390911690636d69fcaf90612bad908590600401617bbb565b6020604051808303815f875af1158015612bc9573d5f5f3e3d5ffd5b505050506040513d601f19601f820116820180604052508101906115659190618037565b612bf5615c23565b6120a25f616768565b600f602052815f5260405f208181548110612c17575f80fd5b5f918252602090912001546001600160a01b03169150829050565b60085483908110612c555760405162461bcd60e51b8152600401610e7f90617fc8565b612c5f8133614511565b612c7b5760405162461bcd60e51b8152600401610e7f906181db565b60085484908110612c9e5760405162461bcd60e51b8152600401610e7f90617fc8565b60088181548110612cb157612cb1617ff6565b5f91825260209091206010601190920201015460ff16612ce35760405162461bcd60e51b8152600401610e7f9061800a565b612ceb61521b565b5f60088681548110612cff57612cff617ff6565b5f91825260209091206004805460405163c187645360e01b8152601190940290920193506001600160a01b039091169163c187645391612d4191899101617bbb565b602060405180830381865afa158015612d5c573d5f5f3e3d5ffd5b505050506040513d601f19601f82011682018060405250810190612d809190618037565b612d9c5760405162461bcd60e51b8152600401610e7f90618052565b60098101546001600160a01b03868116911614612dec5760405162461bcd60e51b815260206004820152600e60248201526d0a8ded6cadc40dad2e6dac2e8c6d60931b6044820152606401610e7f565b80600101548414612e4e5760405162461bcd60e51b815260206004820152602660248201527f436f6e747269627574696f6e20616d6f756e74206d757374206d617463682065604482015265786163746c7960d01b6064820152608401610e7f565b8060020154421015612e9e5760405162461bcd60e51b815260206004820152601960248201527811dc9bdd5c081a185cc81b9bdd081cdd185c9d1959081e595d603a1b6044820152606401610e7f565b335f908152600d8201602052604090205460ff1615612eff5760405162461bcd60e51b815260206004820152601e60248201527f416c726561647920636f6e74726962757465642074686973206379636c6500006044820152606401610e7f565b5f868152600b602090815260408083203384529091528082204290556005549051630712f6b360e01b81526001600160a01b0390911690630712f6b390612f4a908990600401617bbb565b602060405180830381865afa158015612f65573d5f5f3e3d5ffd5b505050506040513d601f19601f82011682018060405250810190612f899190618226565b60048054604051633c83618d60e21b81529293505f926001600160a01b039091169163f20d863491612fbd918b9101617bbb565b602060405180830381865afa158015612fd8573d5f5f3e3d5ffd5b505050506040513d601f19601f82011682018060405250810190612ffc9190618226565b60055490915061301b906001600160a01b0389811691339116896163f2565b60055460405163eeb149e760e01b81525f916001600160a01b03169063eeb149e79061304d908b908b906004016182b4565b6020604051808303815f875af1158015613069573d5f5f3e3d5ffd5b505050506040513d601f19601f8201168201806040525081019061308d9190618226565b90505f82158061309b575083155b156130a75750806130bf565b836130b2848461820f565b6130bc919061826b565b90505b6130cc308a836001615e56565b6001600160a01b0389165f908152600a6020526040812080548492906130f3908490618091565b9091555050335f908152600c86016020526040812080548a9290613118908490618091565b9091555050335f908152600e86016020526040812080548a929061313d908490618091565b9091555050335f908152600d860160205260409020805460ff191660011790556010850154610100900460ff161561317a5761317a8a8a8a6167c2565b60405188815233908b905f5160206187be5f395f51905f529060200160405180910390a36131a88a8a616817565b5050505050612aea61547d565b6131bd615c23565b6131c56163cc565b6120a26168c0565b600854819081106131f05760405162461bcd60e51b8152600401610e7f90617fc8565b336001600160a01b03166008828154811061320d5761320d617ff6565b5f9182526020909120600860119092020101546001600160a01b0316146132465760405162461bcd60e51b8152600401610e7f906182cd565b600854829081106132695760405162461bcd60e51b8152600401610e7f90617fc8565b6008818154811061327c5761327c617ff6565b5f91825260209091206010601190920201015460ff166132ae5760405162461bcd60e51b8152600401610e7f9061800a565b6132b661521b565b60085483106132d75760405162461bcd60e51b8152600401610e7f90617fc8565b5f600884815481106132eb576132eb617ff6565b905f5260205f209060110201905080600301544210156133405760405162461bcd60e51b815260206004820152601060248201526f5061796f757420746f6f206561726c7960801b6044820152606401610e7f565b5f5b600a8201548110156133ed5781600d015f83600a01838154811061336857613368617ff6565b5f9182526020808320909101546001600160a01b0316835282019290925260400190205460ff166133e55760405162461bcd60e51b815260206004820152602160248201527f416c6c206d656d62657273206d75737420636f6e7472696275746520666972736044820152601d60fa1b6064820152608401610e7f565b600101613342565b506009810154610fac9085906001600160a01b0316616906565b5f5f613411616bf0565b546001600160a01b031692915050565b60085460609082106134455760405162461bcd60e51b8152600401610e7f90617fc8565b6009545f90815b8181101561349357846009828154811061346857613468617ff6565b905f5260205f209060060201600101540361348b5782613487816180a4565b9350505b60010161344c565b505f826001600160401b038111156134ad576134ad6179eb565b60405190808252806020026020018201604052801561351a57816020015b6135076040518060c001604052805f81526020015f81526020015f6001600160a01b031681526020015f81526020015f81526020015f81525090565b8152602001906001900390816134cb5790505b5090505f805b838110156135f757866009828154811061353c5761353c617ff6565b905f5260205f20906006020160010154036135ef576009818154811061356457613564617ff6565b5f9182526020918290206040805160c08101825260069093029091018054835260018101549383019390935260028301546001600160a01b031690820152600382015460608201526004820154608082015260059091015460a082015283518490849081106135d5576135d5617ff6565b602002602001018190525081806135eb906180a4565b9250505b600101613520565b509095945050505050565b5f5f5f5f5f5f5f5f5f6008805490508a1061362f5760405162461bcd60e51b8152600401610e7f90617fc8565b5f60088b8154811061364357613643617ff6565b905f5260205f20906011020190508060010154816002015482600301548360060154846007015485600a0180549050866010015f9054906101000a900460ff168760100160019054906101000a900460ff16886008015f9054906101000a90046001600160a01b0316995099509950995099509950995099509950509193959799909294969850565b6008545f9082106136ef5760405162461bcd60e51b8152600401610e7f90617fc8565b5f6008838154811061370357613703617ff6565b905f5260205f209060110201905080600b01805490505f0361372757505f92915050565b600b81015460068201545f91906137409060019061827e565b61374a91906183bd565b905081600b01818154811061376157613761617ff6565b5f918252602090912001546001600160a01b0316949350505050565b61378561521b565b61378d6163cc565b6004805460405163c187645360e01b81526001600160a01b039091169163c1876453916137bc91859101617bbb565b602060405180830381865afa1580156137d7573d5f5f3e3d5ffd5b505050506040513d601f19601f820116820180604052508101906137fb9190618037565b6138175760405162461bcd60e51b8152600401610e7f90618052565b6004805460405163224a5bbb60e21b81525f926001600160a01b03909216916389296eec9161384a91339187910161823d565b602060405180830381865afa158015613865573d5f5f3e3d5ffd5b505050506040513d601f19601f820116820180604052508101906138899190618226565b90505f81116138d35760405162461bcd60e51b81526020600482015260166024820152754e6f20736176696e677320746f20776974686472617760501b6044820152606401610e7f565b6138db61436d565b156139405760405162461bcd60e51b815260206004820152602f60248201527f43616e6e6f74207573652074686973206d6574686f6420647572696e6720776960448201526e746864726177616c2077696e646f7760881b6064820152608401610e7f565b600554604051630712f6b360e01b81525f916001600160a01b031690630712f6b390613970908690600401617bbb565b602060405180830381865afa15801561398b573d5f5f3e3d5ffd5b505050506040513d601f19601f820116820180604052508101906139af9190618226565b60048054604051633c83618d60e21b81529293505f926001600160a01b039091169163f20d8634916139e391889101617bbb565b602060405180830381865afa1580156139fe573d5f5f3e3d5ffd5b505050506040513d601f19601f82011682018060405250810190613a229190618226565b90505f81613a30848661820f565b613a3a919061826b565b9050613a4581616c14565b613a513386865f615e56565b60055460405163ad9b3af760e01b81525f916001600160a01b03169063ad9b3af790613a8590899086903090600401618291565b6020604051808303815f875af1158015613aa1573d5f5f3e3d5ffd5b505050506040513d601f19601f82011682018060405250810190613ac59190618226565b90505f6064613ad583600561820f565b613adf919061826b565b90505f613aec828461827e565b9050613b026001600160a01b0389163383615bcb565b613b1e613b0d613407565b6001600160a01b038a169084615bcb565b6040518481526001600160a01b0389169033907fdce5c7d66e4e795ddd685f9eb652842118305d498916e480399e467eb025af379060200160405180910390a3505050505050506128ad61547d565b613b75615c23565b61209a616d21565b60085481908110613ba05760405162461bcd60e51b8152600401610e7f90617fc8565b336001600160a01b031660088281548110613bbd57613bbd617ff6565b5f9182526020909120600860119092020101546001600160a01b031614613bf65760405162461bcd60e51b8152600401610e7f906182cd565b6008548210613c175760405162461bcd60e51b8152600401610e7f90617fc8565b5f60088381548110613c2b57613c2b617ff6565b5f9182526020909120601190910201601081015490915060ff1615613c625760405162461bcd60e51b8152600401610e7f906183d0565b600a810154600b820154148015613c7c5750600a81015415155b613cbf5760405162461bcd60e51b815260206004820152601460248201527314185e5bdd5d081bdc99195c881b9bdd081cd95d60621b6044820152606401610e7f565b8060020154421115613ce35760405162461bcd60e51b8152600401610e7f90618366565b60108101805460ff1916600117905560405183905f51602061873e5f395f51905f52905f90a2505050565b60085483908110613d315760405162461bcd60e51b8152600401610e7f90617fc8565b336001600160a01b031660088281548110613d4e57613d4e617ff6565b5f9182526020909120600860119092020101546001600160a01b031614613d875760405162461bcd60e51b8152600401610e7f906182cd565b6008548410613da85760405162461bcd60e51b8152600401610e7f90617fc8565b5f60088581548110613dbc57613dbc617ff6565b5f9182526020909120601190910201601081015490915060ff1615613df35760405162461bcd60e51b8152600401610e7f906183d0565b600a8101548314613e445760405162461bcd60e51b815260206004820152601b60248201527a092dcecc2d8d2c840e0c2f2deeae840dee4c8cae440d8cadccee8d602b1b6044820152606401610e7f565b5f5b83811015613f85575f858583818110613e6157613e61617ff6565b9050602002016020810190613e769190617c85565b9050613e828782614511565b613ecb5760405162461bcd60e51b815260206004820152601a60248201527920b2323932b9b9903737ba10309033b937bab81036b2b6b132b960311b6044820152606401610e7f565b5f613ed7836001618091565b90505b85811015613f7b57868682818110613ef457613ef4617ff6565b9050602002016020810190613f099190617c85565b6001600160a01b0316826001600160a01b031603613f735760405162461bcd60e51b815260206004820152602160248201527f4475706c6963617465206164647265737320696e207061796f7574206f7264656044820152603960f91b6064820152608401610e7f565b600101613eda565b5050600101613e46565b50613f93600b82015f617942565b5f5b83811015613fff5781600b01858583818110613fb357613fb3617ff6565b9050602002016020810190613fc89190617c85565b8154600180820184555f93845260209093200180546001600160a01b0319166001600160a01b039290921691909117905501613f95565b50845f51602061875e5f395f51905f52858560405161401f9291906183fe565b60405180910390a25050505050565b614036615c23565b6004805460405163c187645360e01b81526001600160a01b039091169163c18764539161406591859101617bbb565b602060405180830381865afa158015614080573d5f5f3e3d5ffd5b505050506040513d601f19601f820116820180604052508101906140a49190618037565b6140c05760405162461bcd60e51b8152600401610e7f90618052565b6004805460405163083ee56f60e01b81525f926001600160a01b039092169163083ee56f916140f191869101617bbb565b602060405180830381865afa15801561410c573d5f5f3e3d5ffd5b505050506040513d601f19601f820116820180604052508101906141309190618440565b6005546040516370a0823160e01b81529192505f916001600160a01b03808516926370a08231926141679290911690600401617bbb565b602060405180830381865afa158015614182573d5f5f3e3d5ffd5b505050506040513d601f19601f820116820180604052508101906141a69190618226565b9050826001600160a01b0316336001600160a01b03167ffc1ec46aae79fbb3f8570a4e75012d5aa304184152e1b97ec06405010f70874c836040516141ed91815260200190565b60405180910390a360055460405163ad9b3af760e01b81525f916001600160a01b03169063ad9b3af79061422990879086903390600401618291565b6020604051808303815f875af1158015614245573d5f5f3e3d5ffd5b505050506040513d601f19601f82011682018060405250810190612aea9190618226565b614271615c23565b600182905560028190556040517f9d8659d64fcfd436fe4bbdd36fe183bcca85a79dd479451fc1eb7dcbfb914b7d906142ad9084908490618107565b60405180910390a15050565b6008545f9082106142dc5760405162461bcd60e51b8152600401610e7f90617fc8565b5f600883815481106142f0576142f0617ff6565b5f9182526020822060119091020191505b600a8201548110156143635781600d015f83600a01838154811061432757614327617ff6565b5f9182526020808320909101546001600160a01b0316835282019290925260400190205460ff1661435b57505f9392505050565b600101614301565b5060019392505050565b5f5f5f5f61437a42616d46565b9250925092505f82600114806143905750826003145b8061439b5750826005145b806143a65750826007145b806143b15750826008145b806143bc575082600a145b806143c7575082600c145b156143d45750601f61444c565b82600414806143e35750826006145b806143ee5750826009145b806143f9575082600b145b156144065750601e61444c565b6144116004856183bd565b15801561442757506144246064856183bd565b15155b8061443b5750614439610190856183bd565b155b156144485750601d61444c565b50601c5b61445760028261827e565b82101594505050505090565b61446b615c23565b6001600160a01b0381166144b65760405162461bcd60e51b815260206004820152601260248201527124b73b30b634b21031b7b73a3937b63632b960711b6044820152606401610e7f565b600e546040516001600160a01b038084169216907f7fd36e80e8f3c5380f5057403bd046f0a36b96e84f573554ffaba7023671d39c905f90a3600e80546001600160a01b0319166001600160a01b0392909216919091179055565b6008545f9083106145345760405162461bcd60e51b8152600401610e7f90617fc8565b5f6008848154811061454857614548617ff6565b5f9182526020822060119091020191505b600a8201548110156145b057836001600160a01b031682600a01828154811061458457614584617ff6565b5f918252602090912001546001600160a01b0316036145a857600192505050611565565b600101614559565b505f949350505050565b5f6145c3616ee4565b805490915060ff600160401b82041615906001600160401b03165f811580156145e95750825b90505f826001600160401b031660011480156146045750303b155b905081158015614612575080155b156146305760405163f92ee8a960e01b815260040160405180910390fd5b84546001600160401b0319166001178555831561465957845460ff60401b1916600160401b1785555b614661616f0c565b614669616f1c565b61467286616f24565b61467a616f1c565b683635c9adc5dea00000600190815561012c600255600480546001600160a01b03808c166001600160a01b03199283161790925560058054928b1692909116919091179055600d6020527f548ee6a02cd6ec760a90d6bc654234b790eb0699b79ed123e680323b84fcbd0c805460ff1990811683179091557f612a94d54aa18a5bf7f97170fb3956038457a26df2723ed55b50d42eee9cd3de80548216831790557348065fbbe25f71c9282ddf5e1cd6d6a887483d5e5f527fc2a20b5d83287003f9a385a7bcdc6b6b212b73b96637b2e756948f9ebe9d9e698054909116909117905583156147a357845460ff60401b19168555604051600181527fc7f505b2f371ae2175ee4913f4499e1f2633a7b5936321eed1cdaeb6115181d29060200160405180910390a15b5050505050505050565b6004805460405163c187645360e01b81525f926001600160a01b039092169163c1876453916147de91869101617bbb565b602060405180830381865afa158015612bc9573d5f5f3e3d5ffd5b61480161521b565b60085483106148225760405162461bcd60e51b8152600401610e7f90617fc8565b5f6008848154811061483657614836617ff6565b905f5260205f20906011020190508060100160019054906101000a900460ff166148985760405162461bcd60e51b815260206004820152601360248201527247726f7570206973206e6f74207075626c696360681b6044820152606401610e7f565b6005810154600a820154106148bf5760405162461bcd60e51b8152600401610e7f90618315565b6148c98433614511565b156148e65760405162461bcd60e51b8152600401610e7f9061833c565b806002015442111561490a5760405162461bcd60e51b8152600401610e7f90618366565b6009810154600182015461492b91869133916001600160a01b031690615559565b600a810180546001810182555f828152602090200180546001600160a01b03191633179055600582015490540361498c5760108101805460ff19166001179055614974846165f7565b60405184905f51602061873e5f395f51905f52905f90a25b336001600160a01b0316845f51602061879e5f395f51905f5285856040516149b5929190618399565b60405180910390a350610fb561547d565b6008545f908190815b81811015614a36576149e18187614511565b15614a2e57600881815481106149f9576149f9617ff6565b5f91825260208083206001600160a01b038a168452600e6011909302019190910190526040902054614a2b9084618091565b92505b6001016149cf565b5090949350505050565b606060045f9054906101000a90046001600160a01b03166001600160a01b031663d3c7c2c76040518163ffffffff1660e01b81526004015f60405180830381865afa158015614a91573d5f5f3e3d5ffd5b505050506040513d5f823e601f3d908101601f19168201604052614ab891908101906181aa565b905090565b6004805460405163c187645360e01b81525f926001600160a01b039092169163c187645391614aee91869101617bbb565b602060405180830381865afa158015614b09573d5f5f3e3d5ffd5b505050506040513d601f19601f82011682018060405250810190614b2d9190618037565b614b495760405162461bcd60e51b8152600401610e7f90618052565b6004805460405163224a5bbb60e21b81526001600160a01b03909116916389296eec91612b3591879187910161823d565b6008546060908210614b9e5760405162461bcd60e51b8152600401610e7f90617fc8565b60088281548110614bb157614bb1617ff6565b905f5260205f209060110201600b01805480602002602001604051908101604052809291908181526020018280548015611f6657602002820191905f5260205f209081546001600160a01b03168152600190910190602001808311611f485750505050509050919050565b6004805460405163224a5bbb60e21b81525f9283926001600160a01b0316916389296eec91614c4f91889188910161823d565b602060405180830381865afa158015614c6a573d5f5f3e3d5ffd5b505050506040513d601f19601f82011682018060405250810190614c8e9190618226565b6001600160a01b038086165f908152600c6020908152604080832093881683529290522054909150808211614cc3575f612089565b612089818361827e565b6004805460405163e76a812960e01b81525f926001600160a01b039092169163e76a812991612b3591879187910161823d565b60048054604051633c83618d60e21b81525f926001600160a01b039092169163f20d8634916120d591869101617bbb565b614d39615c23565b6001600160a01b038116614d62575f604051631e4fbdf760e01b8152600401610e7f9190617bbb565b6128ad81616768565b614d7361521b565b614d7b6163cc565b6004805460405163c187645360e01b81526001600160a01b039091169163c187645391614daa91869101617bbb565b602060405180830381865afa158015614dc5573d5f5f3e3d5ffd5b505050506040513d601f19601f82011682018060405250810190614de99190618037565b614e055760405162461bcd60e51b8152600401610e7f90618052565b5f8111614e545760405162461bcd60e51b815260206004820152601d60248201527f416d6f756e74206d7573742062652067726561746572207468616e20300000006044820152606401610e7f565b614e5c61436d565b614ebe5760405162461bcd60e51b815260206004820152602d60248201527f43616e6e6f74207769746864726177206f75747369646520746865207769746860448201526c64726177616c2077696e646f7760981b6064820152608401610e7f565b600554604051630712f6b360e01b81525f916001600160a01b031690630712f6b390614eee908690600401617bbb565b602060405180830381865afa158015614f09573d5f5f3e3d5ffd5b505050506040513d601f19601f82011682018060405250810190614f2d9190618226565b60048054604051633c83618d60e21b81529293505f926001600160a01b039091169163f20d863491614f6191889101617bbb565b602060405180830381865afa158015614f7c573d5f5f3e3d5ffd5b505050506040513d601f19601f82011682018060405250810190614fa09190618226565b90505f8111614fe35760405162461bcd60e51b815260206004820152600f60248201526e139bc81cda185c995cc8195e1a5cdd608a1b6044820152606401610e7f565b5f82600181614ff2858861820f565b614ffc9190618091565b615006919061827e565b615010919061826b565b6004805460405163224a5bbb60e21b81529293505f926001600160a01b03909116916389296eec916150469133918b910161823d565b602060405180830381865afa158015615061573d5f5f3e3d5ffd5b505050506040513d601f19601f820116820180604052508101906150859190618226565b9050818110156150ce5760405162461bcd60e51b8152602060048201526014602482015273496e73756666696369656e742062616c616e636560601b6044820152606401610e7f565b6150d785616c14565b6150e33387845f615e56565b60055460405163ad9b3af760e01b81525f916001600160a01b03169063ad9b3af790615117908a908a903390600401618291565b6020604051808303815f875af1158015615133573d5f5f3e3d5ffd5b505050506040513d601f19601f820116820180604052508101906151579190618226565b90508581146151a45760405162461bcd60e51b81526020600482015260196024820152780aed2e8d0c8e4c2eedc40c2dadeeadce840dad2e6dac2e8c6d603b1b6044820152606401610e7f565b866001600160a01b0316336001600160a01b03167f6562355720ad5e9816350753de199edab487334dc9b97f1b15e35e1907ca7ed58886604051612404929190618107565b6151f1615c23565b6001600160a01b03919091165f908152600d60205260409020805460ff1916911515919091179055565b5f615224616f35565b80549091506001190161524a57604051633ee5aeb560e01b815260040160405180910390fd5b60029055565b5f6008838154811061526457615264617ff6565b5f9182526020822060016011909202019081015460098201549193509190615295906001600160a01b031683611f72565b6001600160a01b038086165f908152600c602090815260408083206009890154909416835292905220549091508111156152e15760405162461bcd60e51b8152600401610e7f9061845b565b60098301546152fc9085906001600160a01b03168784615ce1565b60098301546153179085906001600160a01b0316835f615e56565b60098301546153339030906001600160a01b0316836001615e56565b60098301546001600160a01b03165f908152600a60205260408120805484929061535e908490618091565b90915550505f858152600b602090815260408083206001600160a01b03881684528252808320429055600c8601909152812080548492906153a0908490618091565b90915550506001600160a01b0384165f908152600e84016020526040812080548492906153ce908490618091565b90915550506001600160a01b0384165f818152600d8501602052604090819020805460ff191660011790555186905f5160206187be5f395f51905f52906154189086815260200190565b60405180910390a3836001600160a01b0316857f7a09bc0f90d51d14fdbf93189467bb59ee86089f741df1d1df5c4badcab53d308460405161545c91815260200190565b60405180910390a36009830154612aea9086906001600160a01b0316616817565b5f615486616f35565b6001905550565b5f5f836001600160a01b031663313ce5676040518163ffffffff1660e01b8152600401602060405180830381865afa1580156154cb573d5f5f3e3d5ffd5b505050506040513d601f19601f820116820180604052508101906154ef919061848c565b90508060ff166012036155055782915050611565565b60128160ff1610156155395761551c8160126184ac565b61552790600a6185a8565b615531908461826b565b915050611565565b6155446012826184ac565b61554f90600a6185a8565b615531908461820f565b5f61556560058361820f565b90505f6155728483611f72565b90508061557f8686614c1c565b101561559d5760405162461bcd60e51b8152600401610e7f9061845b565b6155a985858884616f59565b505050505050565b600e546001600160a01b03166155c5575050565b6001600160a01b0381165f908152600f602090815260408083208054825181850281018501909352808352919290919083018282801561562c57602002820191905f5260205f20905b81546001600160a01b0316815260019091019060200180831161560e575b5050505050905080515f0361564057505050565b60048054604051633c83618d60e21b81525f926001600160a01b039092169163f20d86349161567191879101617bbb565b602060405180830381865afa15801561568c573d5f5f3e3d5ffd5b505050506040513d601f19601f820116820180604052508101906156b09190618226565b6040805160018082528183019092529192505f91906020808301908036833750506004805460405163083ee56f60e01b81529394506001600160a01b03169263083ee56f925061570291889101617bbb565b602060405180830381865afa15801561571d573d5f5f3e3d5ffd5b505050506040513d601f19601f820116820180604052508101906157419190618440565b815f8151811061575357615753617ff6565b6001600160a01b039283166020918202929092010152600554600e54604051632b70a16560e11b81525f9384938116926356e142ca9261579e929190911690879030906004016185b6565b5f604051808303815f875af11580156157b9573d5f5f3e3d5ffd5b505050506040513d5f823e601f3d908101601f191682016040526157e091908101906185f1565b909250905083156158f7575f5b82518110156158f5575f83828151811061580957615809617ff6565b602002602001015190505f83838151811061582657615826617ff6565b602090810291909101015190505f805b895181101561588257836001600160a01b03168a828151811061585b5761585b617ff6565b60200260200101516001600160a01b03160361587a5760019150615882565b600101615836565b5080801561588f57505f82115b156158ea57876158a464e8d4a510008461820f565b6158ae919061826b565b6001600160a01b03808c165f908152601060209081526040808320938816835292905290812080549091906158e4908490618091565b90915550505b5050506001016157ed565b505b6001600160a01b03871615615bc2576004805460405163224a5bbb60e21b81525f926001600160a01b03909216916389296eec91615939918c918c910161823d565b602060405180830381865afa158015615954573d5f5f3e3d5ffd5b505050506040513d601f19601f820116820180604052508101906159789190618226565b90508015615b5f575f5b8651811015615b59575f87828151811061599e5761599e617ff6565b602002602001015190505f60105f8b6001600160a01b03166001600160a01b031681526020019081526020015f205f836001600160a01b03166001600160a01b031681526020019081526020015f205490505f60115f8d6001600160a01b03166001600160a01b031681526020019081526020015f205f8c6001600160a01b03166001600160a01b031681526020019081526020015f205f846001600160a01b03166001600160a01b031681526020019081526020015f205490505f8164e8d4a510008488615a6d919061820f565b615a77919061826b565b615a81919061827e565b90508015615ac5576001600160a01b03808e165f90815260126020908152604080832093881683529290529081208054839290615abf908490618091565b90915550505b64e8d4a51000615ad5848861820f565b615adf919061826b565b60115f8f6001600160a01b03166001600160a01b031681526020019081526020015f205f8e6001600160a01b03166001600160a01b031681526020019081526020015f205f866001600160a01b03166001600160a01b031681526020019081526020015f2081905550505050508080600101915050615982565b506147a3565b5f5b8651811015615bbf575f878281518110615b7d57615b7d617ff6565b6020908102919091018101516001600160a01b03808d165f9081526011845260408082208e841683528552808220929093168152925281205550600101615b61565b50505b50505050505050565b610fb583846001600160a01b031663a9059cbb8585604051602401615bf19291906182b4565b604051602081830303815290604052915060e01b6020820180516001600160e01b038381831617835250505050616faa565b33615c2c613407565b6001600160a01b0316146120a2573360405163118cdaa760e01b8152600401610e7f9190617bbb565b5f5f60088481548110615c6a57615c6a617ff6565b5f9182526020822060119091020191505b600b8201548110156145b057836001600160a01b031682600b018281548110615ca657615ca6617ff6565b5f918252602090912001546001600160a01b031603615cd957615cca816001618091565b82600601541192505050611565565b600101615c7b565b6001600160a01b038085165f908152600c60209081526040808320938716835292905220548111615d4d576001600160a01b038085165f908152600c6020908152604080832093871683529290529081208054839290615d4290849061827e565b90915550615d759050565b6001600160a01b038085165f908152600c602090815260408083209387168352929052908120555b8060088381548110615d8957615d89617ff6565b5f91825260208083206001600160a01b0389168452600f601190930201919091019052604090205410615e13578060088381548110615dca57615dca617ff6565b905f5260205f209060110201600f015f866001600160a01b03166001600160a01b031681526020019081526020015f205f828254615e08919061827e565b90915550615e509050565b5f60088381548110615e2757615e27617ff6565b5f91825260208083206001600160a01b0389168452600f60119093020191909101905260409020555b50505050565b615e6084846155b1565b60048054604051637bf32b6760e11b81526001600160a01b038781169382019390935285831660248201526044810185905283151560648201525f929091169063f7e656ce906084016020604051808303815f875af1158015615ec5573d5f5f3e3d5ffd5b505050506040513d601f19601f82011682018060405250810190615ee99190618037565b905080615f425760405162461bcd60e51b815260206004820152602160248201527f4661696c656420746f20757064617465207573657220746f6b656e20736861726044820152606560f81b6064820152608401610e7f565b6001600160a01b0384165f908152600f6020908152604080832080548251818502810185019093528083529192909190830182828015615fa957602002820191905f5260205f20905b81546001600160a01b03168152600190910190602001808311615f8b575b505050505090505f815111156155a9576004805460405163224a5bbb60e21b81525f926001600160a01b03909216916389296eec91615fec918b918b910161823d565b602060405180830381865afa158015616007573d5f5f3e3d5ffd5b505050506040513d601f19601f8201168201806040525081019061602b9190618226565b90505f5b82518110156147a3575f83828151811061604b5761604b617ff6565b6020908102919091018101516001600160a01b03808b165f9081526010845260408082209284168252919093529091205490915064e8d4a5100061608f828661820f565b616099919061826b565b6001600160a01b03808c165f9081526011602090815260408083208e85168452825280832096909316825294909452909220919091555060010161602f565b5f600883815481106160ec576160ec617ff6565b5f9182526020822060119091020191505b600a82015481101561621857826001600160a01b031682600a01828154811061612857616128617ff6565b5f918252602090912001546001600160a01b03160361621057805b600a8301546161549060019061827e565b8110156161d757600a830161616a826001618091565b8154811061617a5761617a617ff6565b5f91825260209091200154600a840180546001600160a01b0390921691839081106161a7576161a7617ff6565b5f91825260209091200180546001600160a01b0319166001600160a01b0392909216919091179055600101616143565b5081600a018054806161eb576161eb6186af565b5f8281526020902081015f1990810180546001600160a01b0319169055019055616218565b6001016160fd565b505f5b600b82015481101561633657826001600160a01b031682600b01828154811061624657616246617ff6565b5f918252602090912001546001600160a01b03160361632e57805b600b8301546162729060019061827e565b8110156162f557600b8301616288826001618091565b8154811061629857616298617ff6565b5f91825260209091200154600b840180546001600160a01b0390921691839081106162c5576162c5617ff6565b5f91825260209091200180546001600160a01b0319166001600160a01b0392909216919091179055600101616261565b5081600b01805480616309576163096186af565b5f8281526020902081015f1990810180546001600160a01b0319169055019055616336565b60010161621b565b506001600160a01b039091165f908152600c820160209081526040808320839055600d84018252808320805460ff19169055600e90930190529081205550565b61637e616d21565b5f6163876165d3565b805460ff1916815590507f5db9ee0a495bf2e6ff9c91a7834c1ba4fdd244a5e8aa4e537bd38aeae4b073aa335b6040516163c19190617bbb565b60405180910390a150565b6163d46128b0565b156120a25760405163d93c066560e01b815260040160405180910390fd5b6040516001600160a01b038481166024830152838116604483015260648201839052615e509186918216906323b872dd90608401615bf1565b306001600160a01b037f00000000000000000000000000000000000000000000000000000000000000001614806164b157507f00000000000000000000000000000000000000000000000000000000000000006001600160a01b03166164a55f51602061877e5f395f51905f52546001600160a01b031690565b6001600160a01b031614155b156120a25760405163703e46dd60e11b815260040160405180910390fd5b6128ad615c23565b816001600160a01b03166352d1902d6040518163ffffffff1660e01b8152600401602060405180830381865afa925050508015616531575060408051601f3d908101601f1916820190925261652e91810190618226565b60015b6165505781604051634c9c8ce360e01b8152600401610e7f9190617bbb565b5f51602061877e5f395f51905f52811461658057604051632a87526960e21b815260048101829052602401610e7f565b610fb5838361700d565b306001600160a01b037f000000000000000000000000000000000000000000000000000000000000000016146120a25760405163703e46dd60e11b815260040160405180910390fd5b7fcd5ed15c6e187e77e9aee88184c21f4f2182ab5827cb3b7e07fbedcd63f0330090565b5f6008828154811061660b5761660b617ff6565b905f5260205f209060110201905080600b01805490505f03616695575f5b600a82015481101561668f5781600b0182600a01828154811061664e5761664e617ff6565b5f918252602080832090910154835460018181018655948452919092200180546001600160a01b0319166001600160a01b0390921691909117905501616629565b50616703565b600b8101545b600a8201548110156167015781600b0182600a0182815481106166c0576166c0617ff6565b5f918252602080832090910154835460018181018655948452919092200180546001600160a01b0319166001600160a01b039092169190911790550161669b565b505b815f51602061875e5f395f51905f5282600b0160405161672391906186c3565b60405180910390a25050565b6167376168c0565b7f9a67283e259b60ad992613fe36fe808ce9a65fc69b7893a856fbe5f926f2518481426040516163c1929190618706565b5f616771616bf0565b80546001600160a01b038481166001600160a01b031983168117845560405193945091169182907f8be0079c531659141344cd1fd0a4f28419497f9722a3daafe3b4186f6b6457e0905f90a3505050565b5f6167cd8383611f72565b90505f600885815481106167e3576167e3617ff6565b5f9182526020808320338452600f60119093020191820190526040909120549091508211612aea57612aea33858785615ce1565b5f6008838154811061682b5761682b617ff6565b905f5260205f2090601102019050806003015442101561684a57505050565b60015f5b600a8301548110156168af5782600d015f84600a01838154811061687457616874617ff6565b5f9182526020808320909101546001600160a01b0316835282019290925260400190205460ff166168a7575f91506168af565b60010161684e565b508015615e5057615e508484616906565b6168c86163cc565b5f6168d16165d3565b805460ff1916600117815590507f62e78cea01bee320cd4e420270b5ea74000d11b0c9f74754ebdbfc544b05a2586163b43390565b5f6008838154811061691a5761691a617ff6565b5f91825260208220600a60119092020190810154600182015491935061693f9161820f565b90505f5f61694d8584617062565b915091505f84600b01805490506001866006015461696b919061827e565b61697591906183bd565b90505f85600b01828154811061698d5761698d617ff6565b5f9182526020909120015460055460405163ad9b3af760e01b81526001600160a01b03928316935091169063ad9b3af7906169d0908a9088903090600401618291565b6020604051808303815f875af11580156169ec573d5f5f3e3d5ffd5b505050506040513d601f19601f82011682018060405250810190616a109190618226565b508215616a2257616a22888885617259565b616a366001600160a01b0388168287615bcb565b616a41878587617429565b6040805160c0810182526007548152602081018a81526001600160a01b03848116838501818152606085018b8152426080870190815260068e8101805460a08a01908152600980546001810182555f9190915299517f6e1540171b6c0c960b71a7020d9f60077f6af931a8bbf590da0223dacf75c7af9a909302998a019290925596517f6e1540171b6c0c960b71a7020d9f60077f6af931a8bbf590da0223dacf75c7b089015592517f6e1540171b6c0c960b71a7020d9f60077f6af931a8bbf590da0223dacf75c7b1880180546001600160a01b0319169190961617909455517f6e1540171b6c0c960b71a7020d9f60077f6af931a8bbf590da0223dacf75c7b286015591517f6e1540171b6c0c960b71a7020d9f60077f6af931a8bbf590da0223dacf75c7b385015590517f6e1540171b6c0c960b71a7020d9f60077f6af931a8bbf590da0223dacf75c7b49093019290925554915190918a917f9855065419f7dab68a92d0ec83da9f1e50736415843c7849733eed78ce0c136091616bcb918a9190618107565b60405180910390a360078054905f616be2836180a4565b91905055506147a388617629565b7f9016d09d72d40fdae2fd8ceac6b6234c7706214fd39c1cd1e609a0528c19930090565b6001548110616c785760405162461bcd60e51b815260206004820152602a60248201527f4369726375697420427265616b65723a204c61726765207769746864726177616044820152691b0819195d1958dd195960b21b6064820152608401610e7f565b335f9081526003602052604090205415801590616cae5750600254335f90815260036020526040902054616cac904261827e565b105b15616d0d5760405162461bcd60e51b815260206004820152602960248201527f4369726375697420427265616b65723a205769746864726177616c7320746f6f60448201526808199c995c5d595b9d60ba1b6064820152608401610e7f565b50335f908152600360205260409020429055565b616d296128b0565b6120a257604051638dfc202b60e01b815260040160405180910390fd5b5f808080616d57620151808661826b565b616d6490620afa6c618091565b90505f616d7462023ab18361826b565b90505f616d848262023ab161820f565b616d8e908461827e565b90505f61016d616da162023ab08461826b565b616dad618eac8561826b565b616db96105b48661826b565b616dc3908661827e565b616dcd9190618091565b616dd7919061827e565b616de1919061826b565b9050616def8361019061820f565b616df99082618091565b96505f616e0760648361826b565b616e1260048461826b565b616e1e8461016d61820f565b616e289190618091565b616e32919061827e565b616e3c908461827e565b90505f6099616e4c83600561820f565b616e57906002618091565b616e61919061826b565b90506005616e7082609961820f565b616e7b906002618091565b616e85919061826b565b616e8f908361827e565b616e9a906001618091565b9650600a8110616eb457616eaf60098261827e565b616ebf565b616ebf816003618091565b975060028811616ed75788616ed3816180a4565b9950505b5050505050509193909250565b5f807ff0c57e16840df040f15088dc2f81fe391c3923bec73e23a9662efc9c229c6a00611565565b616f14617793565b6120a26177b8565b6120a2617793565b616f2c617793565b6128ad816177c0565b7f9b779b17422d0df92223018b32b4d1fa46e071723d6817e2486d003becc55f0090565b6001600160a01b038085165f908152600c6020908152604080832093871683529290529081208054839290616f8f908490618091565b925050819055508060088381548110615e2757615e27617ff6565b5f5f60205f8451602086015f885af180616fc9576040513d5f823e3d81fd5b50505f513d91508115616fe0578060011415616fed565b6001600160a01b0384163b155b15615e505783604051635274afe760e01b8152600401610e7f9190617bbb565b617016826177c8565b6040516001600160a01b038316907fbc7cd75a20ee27fd9adebab32041f755214dbc6bffa90cc0225b39da2e5c2d3b905f90a280511561705a57610fb58282617822565b6114e961788b565b600554604051630712f6b360e01b81525f91829182916001600160a01b031690630712f6b390617096908890600401617bbb565b602060405180830381865afa1580156170b1573d5f5f3e3d5ffd5b505050506040513d601f19601f820116820180604052508101906170d59190618226565b60048054604051633c83618d60e21b81529293505f926001600160a01b039091169163f20d863491617109918a9101617bbb565b602060405180830381865afa158015617124573d5f5f3e3d5ffd5b505050506040513d601f19601f820116820180604052508101906171489190618226565b6004805460405163224a5bbb60e21b81529293505f926001600160a01b03909116916389296eec9161717e9130918c910161823d565b602060405180830381865afa158015617199573d5f5f3e3d5ffd5b505050506040513d601f19601f820116820180604052508101906171bd9190618226565b90505f5f83116171cd575f6171e2565b826171d8858461820f565b6171e2919061826b565b6001600160a01b0389165f908152600a60205260409020549091506172075786617233565b6001600160a01b0388165f908152600a6020526040902054617229888361820f565b617233919061826b565b9550868611617242575f61724c565b61724c878761827e565b9450505050509250929050565b5f6008848154811061726d5761726d617ff6565b5f9182526020822060119091020191504290805b600a84015481101561730b575f84600a0182815481106172a3576172a3617ff6565b5f9182526020808320909101548a8352600b825260408084206001600160a01b039092168085529190925290822054909250908186116172e45760016172ee565b6172ee828761827e565b90506172fa8186618091565b945050600190920191506172819050565b5080156155a9575f5b600a840154811015615bc2575f84600a01828154811061733657617336617ff6565b5f9182526020808320909101548a8352600b825260408084206001600160a01b03909216808552919092529082205490925090818611617377576001617381565b617381828761827e565b90505f8561738f838b61820f565b617399919061826b565b905080156173fa576173b56001600160a01b038b168583615bcb565b836001600160a01b03168b7f3d325f4e841722a9f4e4ce5f537d0d2f343d5b547f8f9a26dd7b495a0c3b968e836040516173f191815260200190565b60405180910390a35b5050505f888152600b602090815260408083206001600160a01b03909416835292905290812055600101617314565b600554604051630712f6b360e01b81525f916001600160a01b031690630712f6b390617459908790600401617bbb565b602060405180830381865afa158015617474573d5f5f3e3d5ffd5b505050506040513d601f19601f820116820180604052508101906174989190618226565b60048054604051633c83618d60e21b81529293505f926001600160a01b039091169163f20d8634916174cc91899101617bbb565b602060405180830381865afa1580156174e7573d5f5f3e3d5ffd5b505050506040513d601f19601f8201168201806040525081019061750b9190618226565b6004805460405163224a5bbb60e21b81529293505f926001600160a01b03909116916389296eec916175419130918b910161823d565b602060405180830381865afa15801561755c573d5f5f3e3d5ffd5b505050506040513d601f19601f820116820180604052508101906175809190618226565b90505f5f8411617590575f6175a5565b8361759b848861820f565b6175a5919061826b565b9050818111156175b25750805b6175be3088835f615e56565b6001600160a01b0387165f908152600a602052604090205485106175e2575f617605565b6001600160a01b0387165f908152600a602052604090205461760590869061827e565b6001600160a01b039097165f908152600a6020526040902096909655505050505050565b5f6008828154811061763d5761763d617ff6565b5f9182526020822060119091020191505b600a820154811015617736575f82600d015f84600a01848154811061767557617675617ff6565b5f918252602080832091909101546001600160a01b031683528201929092526040018120805460ff191692151592909217909155600a83018054600c8501918391859081106176c6576176c6617ff6565b5f9182526020808320909101546001600160a01b03168352820192909252604001812091909155600a83018054600e85019183918590811061770a5761770a617ff6565b5f9182526020808320909101546001600160a01b0316835282019290925260400190205560010161764e565b50600681018054905f617748836180a4565b9091555050600a8101546006820154111561777b5760016006820155600781018054905f617775836180a4565b91905055505b600481015461778a9042618091565b60039091015550565b61779b6178aa565b6120a257604051631afcd79f60e31b815260040160405180910390fd5b61547d617793565b614d39617793565b806001600160a01b03163b5f036177f45780604051634c9c8ce360e01b8152600401610e7f9190617bbb565b5f51602061877e5f395f51905f5280546001600160a01b0319166001600160a01b0392909216919091179055565b60605f5f846001600160a01b03168460405161783e9190618727565b5f60405180830381855af49150503d805f8114617876576040519150601f19603f3d011682016040523d82523d5f602084013e61787b565b606091505b50915091506120898583836178c3565b34156120a25760405163b398979f60e01b815260040160405180910390fd5b5f6178b3616ee4565b54600160401b900460ff16919050565b6060826178d8576178d382617919565b617912565b81511580156178ef57506001600160a01b0384163b155b1561790f5783604051639996b31560e01b8152600401610e7f9190617bbb565b50805b9392505050565b8051156179295780518082602001fd5b60405163d6bda27560e01b815260040160405180910390fd5b5080545f8255905f5260205f20908101906128ad91905b8082111561796c575f8155600101617959565b5090565b6001600160a01b03811681146128ad575f5ffd5b5f5f60408385031215617995575f5ffd5b8235915060208301356179a781617970565b809150509250929050565b5f5f604083850312156179c3575f5ffd5b82356179ce81617970565b915060208301356179a781617970565b80151581146128ad575f5ffd5b634e487b7160e01b5f52604160045260245ffd5b604051601f8201601f191681016001600160401b0381118282101715617a2757617a276179eb565b604052919050565b5f806001600160401b03841115617a4857617a486179eb565b50601f8301601f1916602001617a5d816179ff565b915050828152838383011115617a71575f5ffd5b828260208301375f602084830101529392505050565b5f82601f830112617a96575f5ffd5b61156283833560208501617a2f565b5f5f5f5f5f5f60c08789031215617aba575f5ffd5b86359550602087013594506040870135617ad3816179de565b93506060870135617ae381617970565b925060808701356001600160401b03811115617afd575f5ffd5b617b0989828a01617a87565b92505060a08701356001600160401b03811115617b24575f5ffd5b617b3089828a01617a87565b9150509295509295509295565b5f5f83601f840112617b4d575f5ffd5b5081356001600160401b03811115617b63575f5ffd5b6020830191508360208260051b850101111561184b575f5ffd5b5f5f60208385031215617b8e575f5ffd5b82356001600160401b03811115617ba3575f5ffd5b617baf85828601617b3d565b90969095509350505050565b6001600160a01b0391909116815260200190565b5f5f60408385031215617be0575f5ffd5b50508035926020909101359150565b5f8151808452602084019350602083015f5b82811015617c285781516001600160a01b0316865260209586019590910190600101617c01565b5093949350505050565b602081525f6115626020830184617bef565b5f60208284031215617c54575f5ffd5b5035919050565b5f5f60408385031215617c6c575f5ffd5b8235617c7781617970565b946020939093013593505050565b5f60208284031215617c95575f5ffd5b813561791281617970565b5f5f5f60608486031215617cb2575f5ffd5b8335617cbd81617970565b92506020840135617ccd81617970565b91506040840135617cdd81617970565b809150509250925092565b5f5f60408385031215617cf9575f5ffd5b8235617d0481617970565b915060208301356001600160401b03811115617d1e575f5ffd5b8301601f81018513617d2e575f5ffd5b617d3d85823560208401617a2f565b9150509250929050565b5f81518084528060208401602086015e5f602082860101526020601f19601f83011685010191505092915050565b602081525f6115626020830184617d47565b5f5f5f5f60808587031215617d9a575f5ffd5b843593506020850135617dac81617970565b925060408501356001600160401b03811115617dc6575f5ffd5b617dd287828801617a87565b92505060608501356001600160401b03811115617ded575f5ffd5b617df987828801617a87565b91505092959194509250565b5f60208284031215617e15575f5ffd5b81356001600160401b03811115617e2a575f5ffd5b617e3684828501617a87565b949350505050565b5f5f5f60608486031215617e50575f5ffd5b833592506020840135617e6281617970565b929592945050506040919091013590565b602080825282518282018190525f918401906040840190835b818110156135f757835180518452602080820151818601526040808301516001600160a01b031690860152606080830151908601526080808301519086015260a091820151918501919091529093019260c090920191600101617e8c565b5f5f5f60408486031215617efc575f5ffd5b8335925060208401356001600160401b03811115617f18575f5ffd5b617f2486828701617b3d565b9497909650939450505050565b5f5f5f60608486031215617f43575f5ffd5b8335925060208401356001600160401b03811115617f5f575f5ffd5b617f6b86828701617a87565b92505060408401356001600160401b03811115617f86575f5ffd5b617f9286828701617a87565b9150509250925092565b5f5f60408385031215617fad575f5ffd5b8235617fb881617970565b915060208301356179a7816179de565b60208082526014908201527311dc9bdd5c08191bd95cc81b9bdd08195e1a5cdd60621b604082015260600190565b634e487b7160e01b5f52603260045260245ffd5b60208082526013908201527247726f7570206973206e6f742061637469766560681b604082015260600190565b5f60208284031215618047575f5ffd5b8151617912816179de565b6020808252601190820152702ab739bab83837b93a32b2103a37b5b2b760791b604082015260600190565b634e487b7160e01b5f52601160045260245ffd5b808201808211156115655761156561807d565b5f600182016180b5576180b561807d565b5060010190565b868152856020820152846040820152831515606082015260c060808201525f6180e860c0830185617d47565b82810360a08401526180fa8185617d47565b9998505050505050505050565b918252602082015260400190565b5f6001600160401b0382111561812d5761812d6179eb565b5060051b60200190565b5f82601f830112618146575f5ffd5b815161815961815482618115565b6179ff565b8082825260208201915060208360051b86010192508583111561817a575f5ffd5b602085015b838110156181a057805161819281617970565b83526020928301920161817f565b5095945050505050565b5f602082840312156181ba575f5ffd5b81516001600160401b038111156181cf575f5ffd5b617e3684828501618137565b6020808252601a908201527904e6f742061206d656d626572206f6620746869732067726f75760341b604082015260600190565b80820281158282048414176115655761156561807d565b5f60208284031215618236575f5ffd5b5051919050565b6001600160a01b0392831681529116602082015260400190565b634e487b7160e01b5f52601260045260245ffd5b5f8261827957618279618257565b500490565b818103818111156115655761156561807d565b6001600160a01b0393841681526020810192909252909116604082015260600190565b6001600160a01b03929092168252602082015260400190565b60208082526028908201527f4f6e6c792067726f75702061646d696e2063616e20706572666f726d20746869604082015267399030b1ba34b7b760c11b606082015260800190565b6020808252600d908201526c11dc9bdd5c081a5cc8199d5b1b609a1b604082015260600190565b60208082526010908201526f20b63932b0b23c90309036b2b6b132b960811b604082015260600190565b60208082526019908201527811dc9bdd5c081a185cc8185b1c9958591e481cdd185c9d1959603a1b604082015260600190565b604081525f6183ab6040830185617d47565b82810360208401526120898185617d47565b5f826183cb576183cb618257565b500690565b60208082526014908201527347726f757020616c72656164792061637469766560601b604082015260600190565b602080825281018290525f8360408301825b858110156181a057823561842381617970565b6001600160a01b0316825260209283019290910190600101618410565b5f60208284031215618450575f5ffd5b815161791281617970565b602080825260179082015276125b9cdd59999a58da595b9d0818dbdb1b185d195c985b604a1b604082015260600190565b5f6020828403121561849c575f5ffd5b815160ff81168114617912575f5ffd5b60ff82811682821603908111156115655761156561807d565b6001815b6001841115618500578085048111156184e4576184e461807d565b60018416156184f257908102905b60019390931c9280026184c9565b935093915050565b5f8261851657506001611565565b8161852257505f611565565b816001811461853857600281146185425761855e565b6001915050611565565b60ff8411156185535761855361807d565b50506001821b611565565b5060208310610133831016604e8410600b8410161715618581575081810a611565565b61858d5f1984846184c5565b805f19048211156185a0576185a061807d565b029392505050565b5f61156260ff841683618508565b6001600160a01b03841681526060602082018190525f906185d990830185617bef565b905060018060a01b0383166040830152949350505050565b5f5f60408385031215618602575f5ffd5b82516001600160401b03811115618617575f5ffd5b61862385828601618137565b602085015190935090506001600160401b03811115618640575f5ffd5b8301601f81018513618650575f5ffd5b805161865e61815482618115565b8082825260208201915060208360051b85010192508783111561867f575f5ffd5b6020840193505b828410156186a1578351825260209384019390910190618686565b809450505050509250929050565b634e487b7160e01b5f52603160045260245ffd5b602080825282548282018190525f848152918220906040840190835b818110156135f75783546001600160a01b03168352600193840193602090930192016186df565b604081525f6187186040830185617d47565b90508260208301529392505050565b5f82518060208501845e5f92019182525091905056feebefe55be640961855d7fd4e391c743a58d0ee08196320fead0e6d832d33d3b8fe079e5fa34f81453fe4c8457ebcec335238f66f73597bc275282e33d9b4156a360894a13ba1a3210667c828492db98dca3e2076cc3735a920a3ca505d382bbc23372e4a87c76bb90c6b05cd2e56923aef252b15faac1c32671742578595e8bc0a4a91237423e0a1766a761c7cb029311d8b95d6b1b81db1b949a70c98b4e08ea2646970667358221220c7587140ab46383856f08970ac459e32a94552eed515af2c9e21f53c4981a49f64736f6c634300081e0033","linkReferences":{}},"methodIdentifiers":{"CYCLE_DURATION()":"cd421fbf","EMERGENCY_TIMELOCK()":"60d7442b","MAX_MEMBERS()":"ea0e35b1","MIN_CONTRIBUTION()":"40650c91","MIN_DEPOSIT()":"e1e158a5","REWARD_PRECISION()":"3d6aa5e1","UPGRADE_INTERFACE_VERSION()":"ad3cb1cc","aaveIntegration()":"0d578f78","accRewardPerShare(address,address)":"079abc46","activateThriftGroup(uint256)":"a71f5893","addMemberToPrivateGroup(uint256,address,string,string)":"5e33ec82","addRewardToken(address,address)":"23cb2390","addSupportedToken(address)":"6d69fcaf","allMembersContributed(uint256)":"b130a6ac","allowedThriftTokens(address)":"a9a9e257","breakTimelock(address)":"a0226686","canWithdraw()":"b51459fe","claimMyRewards(address[])":"0b098ce9","convertToShares(address,uint256)":"3e5541f1","coverDefault(uint256,address)":"072e778f","createThriftGroup(uint256,uint256,bool,address,string,string)":"0abc062f","cycleContributionTime(uint256,address)":"ccdb9cea","deposit(address,uint256)":"47e7ef24","distributePayout(uint256)":"8c91d2dd","emergencyWithdraw(uint256)":"5312ea8e","emergencyWithdrawalAvailableAt()":"12b1deb8","executeEmergencyWithdrawal(address)":"ab59a11e","getBalance(address,address)":"d4fac45d","getCurrentRecipient(uint256)":"9d07fd13","getDisposableBalance(address,address)":"dfd10047","getGroupInfo(uint256)":"99d4360f","getGroupMembers(uint256)":"36cc8130","getGroupPayouts(uint256)":"9814dbdc","getMemberStatus(uint256,address)":"26e98b8b","getPayoutOrder(uint256)":"df7d296c","getSupportedTokens()":"d3c7c2c7","getSupportedTokensWithPagination(uint256,uint256)":"1ad095d8","getTotalShares(address)":"f20d8634","getUserBalance(address,address)":"6805d6ad","getUserDepositTime(address,address)":"e76a8129","getUserDepositTime_Legacy(address)":"45ad76b4","getUserTotalContributed(address,address)":"cdb646b5","initialize(address,address,address)":"c0c53b8b","isGroupMember(uint256,address)":"bfeb5607","isValidToken(address)":"c1876453","joinPublicGroup(uint256,string,string)":"c1bb31cc","lastUserWithdrawalTimestamp(address)":"4b9ae0ce","leaveGroup(uint256)":"33471df5","makeContribution(uint256)":"360a2bcb","makeContribution(uint256,address,uint256)":"83ba3ce0","owner()":"8da5cb5b","pause()":"8456cb59","paused()":"5c975abb","payouts(uint256)":"29652e86","proxiableUUID()":"52d1902d","renounceOwnership()":"715018a6","resumeOperations()":"a6e1d016","rewardTokens(address,uint256)":"81a4af15","rewardsController()":"6bb65f53","setAllowedThriftToken(address,bool)":"faf7f018","setPayoutOrder(uint256,address[])":"a73992e4","setRewardsController(address)":"bee36bb3","thriftGroups(uint256)":"2d8c04e9","timeBetweenWithdrawalsThreshold()":"1fdf8b86","tokenStorage()":"b199efb5","totalPayouts()":"4089b170","totalThriftGroups()":"1ae740c9","totalThriftStaked(address)":"619e7abf","transferOwnership(address)":"f2fde38b","triggerCircuitBreaker(string)":"61b242c5","unpause()":"3f4ba83a","updateCircuitBreakerThresholds(uint256,uint256)":"af051e5a","upgradeToAndCall(address,bytes)":"4f1ef286","userLockedShares(address,address)":"4c38da4c","userPendingRewards(address,address)":"591d8a4b","userRewardDebt(address,address,address)":"4bbd506e","version()":"54fd4d50","withdraw(address,uint256)":"f3fef3a3","withdrawalAmountThreshold()":"7dc5bb57"},"id":77}